{
  "_format": "hh-sol-artifact-1",
  "contractName": "TellerNFTDictionary",
  "sourceName": "contracts/TellerNftDictionary.sol",
  "abi": [
    {
      "inputs": [],
      "stateMutability": "nonpayable",
      "type": "constructor"
    },
    {
      "anonymous": false,
      "inputs": [
        {
          "indexed": true,
          "internalType": "bytes32",
          "name": "role",
          "type": "bytes32"
        },
        {
          "indexed": true,
          "internalType": "bytes32",
          "name": "previousAdminRole",
          "type": "bytes32"
        },
        {
          "indexed": true,
          "internalType": "bytes32",
          "name": "newAdminRole",
          "type": "bytes32"
        }
      ],
      "name": "RoleAdminChanged",
      "type": "event"
    },
    {
      "anonymous": false,
      "inputs": [
        {
          "indexed": true,
          "internalType": "bytes32",
          "name": "role",
          "type": "bytes32"
        },
        {
          "indexed": true,
          "internalType": "address",
          "name": "account",
          "type": "address"
        },
        {
          "indexed": true,
          "internalType": "address",
          "name": "sender",
          "type": "address"
        }
      ],
      "name": "RoleGranted",
      "type": "event"
    },
    {
      "anonymous": false,
      "inputs": [
        {
          "indexed": true,
          "internalType": "bytes32",
          "name": "role",
          "type": "bytes32"
        },
        {
          "indexed": true,
          "internalType": "address",
          "name": "account",
          "type": "address"
        },
        {
          "indexed": true,
          "internalType": "address",
          "name": "sender",
          "type": "address"
        }
      ],
      "name": "RoleRevoked",
      "type": "event"
    },
    {
      "inputs": [],
      "name": "ADMIN",
      "outputs": [
        {
          "internalType": "bytes32",
          "name": "",
          "type": "bytes32"
        }
      ],
      "stateMutability": "view",
      "type": "function"
    },
    {
      "inputs": [],
      "name": "DEFAULT_ADMIN_ROLE",
      "outputs": [
        {
          "internalType": "bytes32",
          "name": "",
          "type": "bytes32"
        }
      ],
      "stateMutability": "view",
      "type": "function"
    },
    {
      "inputs": [
        {
          "internalType": "uint256",
          "name": "",
          "type": "uint256"
        }
      ],
      "name": "_tokenTierMappingCompressed",
      "outputs": [
        {
          "internalType": "uint256",
          "name": "",
          "type": "uint256"
        }
      ],
      "stateMutability": "view",
      "type": "function"
    },
    {
      "inputs": [
        {
          "internalType": "uint256",
          "name": "",
          "type": "uint256"
        }
      ],
      "name": "baseLoanSizes",
      "outputs": [
        {
          "internalType": "uint256",
          "name": "",
          "type": "uint256"
        }
      ],
      "stateMutability": "view",
      "type": "function"
    },
    {
      "inputs": [
        {
          "internalType": "uint256",
          "name": "",
          "type": "uint256"
        }
      ],
      "name": "contributionAssets",
      "outputs": [
        {
          "internalType": "address",
          "name": "",
          "type": "address"
        }
      ],
      "stateMutability": "view",
      "type": "function"
    },
    {
      "inputs": [
        {
          "internalType": "uint256",
          "name": "",
          "type": "uint256"
        }
      ],
      "name": "contributionMultipliers",
      "outputs": [
        {
          "internalType": "uint8",
          "name": "",
          "type": "uint8"
        }
      ],
      "stateMutability": "view",
      "type": "function"
    },
    {
      "inputs": [
        {
          "internalType": "uint256",
          "name": "",
          "type": "uint256"
        }
      ],
      "name": "contributionSizes",
      "outputs": [
        {
          "internalType": "uint256",
          "name": "",
          "type": "uint256"
        }
      ],
      "stateMutability": "view",
      "type": "function"
    },
    {
      "inputs": [
        {
          "internalType": "bytes32",
          "name": "role",
          "type": "bytes32"
        }
      ],
      "name": "getRoleAdmin",
      "outputs": [
        {
          "internalType": "bytes32",
          "name": "",
          "type": "bytes32"
        }
      ],
      "stateMutability": "view",
      "type": "function"
    },
    {
      "inputs": [
        {
          "internalType": "uint256",
          "name": "tokenId",
          "type": "uint256"
        }
      ],
      "name": "getTokenTierIndex",
      "outputs": [
        {
          "internalType": "uint8",
          "name": "index_",
          "type": "uint8"
        }
      ],
      "stateMutability": "view",
      "type": "function"
    },
    {
      "inputs": [
        {
          "internalType": "bytes32",
          "name": "role",
          "type": "bytes32"
        },
        {
          "internalType": "address",
          "name": "account",
          "type": "address"
        }
      ],
      "name": "grantRole",
      "outputs": [],
      "stateMutability": "nonpayable",
      "type": "function"
    },
    {
      "inputs": [
        {
          "internalType": "bytes32",
          "name": "role",
          "type": "bytes32"
        },
        {
          "internalType": "address",
          "name": "account",
          "type": "address"
        }
      ],
      "name": "hasRole",
      "outputs": [
        {
          "internalType": "bool",
          "name": "",
          "type": "bool"
        }
      ],
      "stateMutability": "view",
      "type": "function"
    },
    {
      "inputs": [
        {
          "internalType": "uint256",
          "name": "",
          "type": "uint256"
        },
        {
          "internalType": "uint256",
          "name": "",
          "type": "uint256"
        }
      ],
      "name": "hashes",
      "outputs": [
        {
          "internalType": "string",
          "name": "",
          "type": "string"
        }
      ],
      "stateMutability": "view",
      "type": "function"
    },
    {
      "inputs": [
        {
          "internalType": "address",
          "name": "initialAdmin",
          "type": "address"
        }
      ],
      "name": "initialize",
      "outputs": [],
      "stateMutability": "nonpayable",
      "type": "function"
    },
    {
      "inputs": [
        {
          "internalType": "bytes32",
          "name": "role",
          "type": "bytes32"
        },
        {
          "internalType": "address",
          "name": "account",
          "type": "address"
        }
      ],
      "name": "renounceRole",
      "outputs": [],
      "stateMutability": "nonpayable",
      "type": "function"
    },
    {
      "inputs": [
        {
          "internalType": "bytes32",
          "name": "role",
          "type": "bytes32"
        },
        {
          "internalType": "address",
          "name": "account",
          "type": "address"
        }
      ],
      "name": "revokeRole",
      "outputs": [],
      "stateMutability": "nonpayable",
      "type": "function"
    },
    {
      "inputs": [
        {
          "internalType": "uint256[]",
          "name": "tiersMapping",
          "type": "uint256[]"
        }
      ],
      "name": "setAllTokenTierMappings",
      "outputs": [
        {
          "internalType": "bool",
          "name": "",
          "type": "bool"
        }
      ],
      "stateMutability": "nonpayable",
      "type": "function"
    },
    {
      "inputs": [
        {
          "internalType": "uint256",
          "name": "index",
          "type": "uint256"
        },
        {
          "components": [
            {
              "internalType": "uint256",
              "name": "baseLoanSize",
              "type": "uint256"
            },
            {
              "internalType": "string[]",
              "name": "hashes",
              "type": "string[]"
            },
            {
              "internalType": "address",
              "name": "contributionAsset",
              "type": "address"
            },
            {
              "internalType": "uint256",
              "name": "contributionSize",
              "type": "uint256"
            },
            {
              "internalType": "uint8",
              "name": "contributionMultiplier",
              "type": "uint8"
            }
          ],
          "internalType": "struct TellerNFTDictionary.Tier",
          "name": "newTier",
          "type": "tuple"
        }
      ],
      "name": "setTier",
      "outputs": [
        {
          "internalType": "bool",
          "name": "",
          "type": "bool"
        }
      ],
      "stateMutability": "nonpayable",
      "type": "function"
    },
    {
      "inputs": [
        {
          "internalType": "uint256",
          "name": "tokenId",
          "type": "uint256"
        },
        {
          "internalType": "uint256",
          "name": "tokenTier",
          "type": "uint256"
        }
      ],
      "name": "setTokenTierForTokenId",
      "outputs": [
        {
          "internalType": "bool",
          "name": "",
          "type": "bool"
        }
      ],
      "stateMutability": "nonpayable",
      "type": "function"
    },
    {
      "inputs": [
        {
          "internalType": "uint256[]",
          "name": "tokenIds",
          "type": "uint256[]"
        },
        {
          "internalType": "uint256",
          "name": "tokenTier",
          "type": "uint256"
        }
      ],
      "name": "setTokenTierForTokenIds",
      "outputs": [
        {
          "internalType": "bool",
          "name": "",
          "type": "bool"
        }
      ],
      "stateMutability": "nonpayable",
      "type": "function"
    },
    {
      "inputs": [
        {
          "internalType": "uint256",
          "name": "index",
          "type": "uint256"
        },
        {
          "internalType": "uint256",
          "name": "tierMapping",
          "type": "uint256"
        }
      ],
      "name": "setTokenTierMapping",
      "outputs": [
        {
          "internalType": "bool",
          "name": "",
          "type": "bool"
        }
      ],
      "stateMutability": "nonpayable",
      "type": "function"
    },
    {
      "inputs": [
        {
          "internalType": "bytes4",
          "name": "interfaceId",
          "type": "bytes4"
        }
      ],
      "name": "supportsInterface",
      "outputs": [
        {
          "internalType": "bool",
          "name": "",
          "type": "bool"
        }
      ],
      "stateMutability": "view",
      "type": "function"
    },
    {
      "inputs": [
        {
          "internalType": "uint256",
          "name": "tokenId",
          "type": "uint256"
        }
      ],
      "name": "tokenBaseLoanSize",
      "outputs": [
        {
          "internalType": "uint256",
          "name": "",
          "type": "uint256"
        }
      ],
      "stateMutability": "view",
      "type": "function"
    },
    {
      "inputs": [
        {
          "internalType": "uint256",
          "name": "tokenId",
          "type": "uint256"
        }
      ],
      "name": "tokenContributionAsset",
      "outputs": [
        {
          "internalType": "address",
          "name": "",
          "type": "address"
        }
      ],
      "stateMutability": "view",
      "type": "function"
    },
    {
      "inputs": [
        {
          "internalType": "uint256",
          "name": "tokenId",
          "type": "uint256"
        }
      ],
      "name": "tokenContributionMultiplier",
      "outputs": [
        {
          "internalType": "uint8",
          "name": "",
          "type": "uint8"
        }
      ],
      "stateMutability": "view",
      "type": "function"
    },
    {
      "inputs": [
        {
          "internalType": "uint256",
          "name": "tokenId",
          "type": "uint256"
        }
      ],
      "name": "tokenContributionSize",
      "outputs": [
        {
          "internalType": "uint256",
          "name": "",
          "type": "uint256"
        }
      ],
      "stateMutability": "view",
      "type": "function"
    },
    {
      "inputs": [
        {
          "internalType": "uint256",
          "name": "tokenId",
          "type": "uint256"
        }
      ],
      "name": "tokenURIHash",
      "outputs": [
        {
          "internalType": "string",
          "name": "",
          "type": "string"
        }
      ],
      "stateMutability": "view",
      "type": "function"
    }
  ],
  "bytecode": "0x608060405234801561001057600080fd5b5061188c806100206000396000f3fe608060405234801561001057600080fd5b506004361061018d5760003560e01c806375623b45116100de578063c4d66de811610097578063d300133911610071578063d3001339146103e4578063d547741f146103f7578063f40898ef1461040a578063f89a268e1461041d5761018d565b8063c4d66de814610391578063c5d6bbaa146103a4578063d13372ca146103c45761018d565b806375623b451461030d5780638a41823c1461032057806391d1485414610340578063a16eae3114610353578063a217fddf14610366578063bd5c89ed1461036e5761018d565b806324db57f81161014b5780632f2ff15d116101255780632f2ff15d146102ad57806336568abe146102c257806346765a57146102d557806362a57233146102e85761018d565b806324db57f8146102725780632a0acc6a146102855780632a4ce6511461029a5761018d565b806284c7951461019257806301ffc9a7146101b85780631a619740146101db5780631e89487a146101fb578063245a69d41461023c578063248a9ca31461024f575b600080fd5b6101a56101a0366004611363565b610430565b6040519081526020015b60405180910390f35b6101cb6101c63660046113a6565b610457565b60405190151581526020016101af565b6101a56101e9366004611363565b60976020526000908152604090205481565b610224610209366004611363565b6099602052600090815260409020546001600160a01b031681565b6040516001600160a01b0390911681526020016101af565b6101cb61024a3660046112cb565b610482565b6101a561025d366004611363565b60009081526065602052604090206001015490565b6101a5610280366004611363565b610524565b6101a560008051602061183783398151915281565b6101cb6102a8366004611516565b610549565b6102c06102bb36600461137b565b610595565b005b6102c06102d036600461137b565b6105c1565b6101cb6102e33660046113ce565b61063f565b6102fb6102f6366004611363565b610710565b60405160ff90911681526020016101af565b6101cb61031b366004611516565b610738565b6101a561032e366004611363565b609a6020526000908152604090205481565b6101cb61034e36600461137b565b610820565b6102fb610361366004611363565b61084b565b6101a5600081565b6102fb61037c366004611363565b609b6020526000908152604090205460ff1681565b6102c061039f36600461123b565b610899565b6101a56103b2366004611363565b609c6020526000908152604090205481565b6103d76103d2366004611516565b6108d4565b6040516101af91906115d8565b6103d76103f2366004611363565b61098d565b6102c061040536600461137b565b610ac3565b610224610418366004611363565b610ae9565b6101cb61042b366004611255565b610b17565b60008061043c8361084b565b60ff166000908152609a60205260409020549150505b919050565b60006001600160e01b03198216630c3e4d3160e31b148061047c575061047c82610ba6565b92915050565b600061049c6000805160206118378339815191523361034e565b6104c15760405162461bcd60e51b81526004016104b890611610565b60405180910390fd5b60005b825181101561051b578281815181106104ed57634e487b7160e01b600052603260045260246000fd5b6020908102919091018101516000838152609c90925260409091205580610513816117c5565b9150506104c4565b50600192915050565b6000806105308361084b565b60ff166000908152609760205260409020549392505050565b60006105636000805160206118378339815191523361034e565b61057f5760405162461bcd60e51b81526004016104b890611610565b506000918252609c602052604090912055600190565b6000828152606560205260409020600101546105b281335b610bdb565b6105bc8383610c3f565b505050565b6001600160a01b03811633146106315760405162461bcd60e51b815260206004820152602f60248201527f416363657373436f6e74726f6c3a2063616e206f6e6c792072656e6f756e636560448201526e103937b632b9903337b91039b2b63360891b60648201526084016104b8565b61063b8282610cc5565b5050565b60006106596000805160206118378339815191523361034e565b6106755760405162461bcd60e51b81526004016104b890611610565b815160008481526097602090815260408083209390935580850151609882529290912082516106aa93919291909101906110c8565b505060408181015160009384526099602090815282852080546001600160a01b0319166001600160a01b03909316929092179091556060830151609a825282852055608090920151609b909252909120805460ff191660ff909216919091179055600190565b60008061071c8361084b565b60ff9081166000908152609b6020526040902054169392505050565b60006107526000805160206118378339815191523361034e565b61076e5760405162461bcd60e51b81526004016104b890611610565b600061077b6020856116f9565b6000818152609c6020908152604082205492935061079990876117e0565b6107a490601f61172c565b6107af90600861170d565b6000848152609c6020908152604091829020600b841b60ff851b8019888116838117948590558651808801909752600f87526e039b2ba103a37b5b2b7103a34b2b91608d1b9587019590955295965094939092919061080f908c8c610d2c565b5060019a9950505050505050505050565b60009182526065602090815260408084206001600160a01b0393909316845291905290205460ff1690565b6000806108596020846116f9565b6000818152609c6020908152604082205492935061087790866117e0565b61088290601f61172c565b61088d90600861170d565b9190911c949350505050565b6108b160008051602061183783398151915282610d73565b6108c960008051602061183783398151915280610d7d565b6108d1610dd1565b50565b609860205281600052604060002081815481106108f057600080fd5b9060005260206000200160009150915050805461090c9061178a565b80601f01602080910402602001604051908101604052809291908181526020018280546109389061178a565b80156109855780601f1061095a57610100808354040283529160200191610985565b820191906000526020600020905b81548152906001019060200180831161096857829003601f168201915b505050505081565b6060600061099a8361084b565b90506000609860008360ff168152602001908152602001600020805480602002602001604051908101604052809291908181526020016000905b82821015610a805783829060005260206000200180546109f39061178a565b80601f0160208091040260200160405190810160405280929190818152602001828054610a1f9061178a565b8015610a6c5780601f10610a4157610100808354040283529160200191610a6c565b820191906000526020600020905b815481529060010190602001808311610a4f57829003601f168201915b5050505050815260200190600101906109d4565b50505050905080815185610a9491906117e0565b81518110610ab257634e487b7160e01b600052603260045260246000fd5b602002602001015192505050919050565b600082815260656020526040902060010154610adf81336105ad565b6105bc8383610cc5565b600080610af58361084b565b60ff166000908152609960205260409020546001600160a01b03169392505050565b6000610b316000805160206118378339815191523361034e565b610b4d5760405162461bcd60e51b81526004016104b890611610565b60005b83811015610b9b57610b88858583818110610b7b57634e487b7160e01b600052603260045260246000fd5b9050602002013584610738565b5080610b93816117c5565b915050610b50565b506001949350505050565b60006001600160e01b03198216637965db0b60e01b148061047c57506301ffc9a760e01b6001600160e01b031983161461047c565b610be58282610820565b61063b57610bfd816001600160a01b03166014610e54565b610c08836020610e54565b604051602001610c19929190611563565b60408051601f198184030181529082905262461bcd60e51b82526104b8916004016115d8565b610c498282610820565b61063b5760008281526065602090815260408083206001600160a01b03851684529091529020805460ff19166001179055610c813390565b6001600160a01b0316816001600160a01b0316837f2f8788117e7eff1d82e926ec794901d17c78024a50270940304540a733656f0d60405160405180910390a45050565b610ccf8282610820565b1561063b5760008281526065602090815260408083206001600160a01b0385168085529252808320805460ff1916905551339285917ff6391f5c32d9c69d2a47ea670b442974b53935d1edc7fd64eb21e047a839171b9190a45050565b6105bc838383604051602401610d44939291906115eb565b60408051601f198184030181529190526020810180516001600160e01b031663969cdd0360e01b17905261103d565b61063b8282610c3f565b600082815260656020526040902060010154819060405184907fbd79b86ffe0ab8e8776151514217cd7cacd52c909f66475c3af44e129f0b00ff90600090a460009182526065602052604090912060010155565b600054610100900460ff1680610dea575060005460ff16155b610e065760405162461bcd60e51b81526004016104b89061163e565b600054610100900460ff16158015610e28576000805461ffff19166101011790555b610e3061105e565b610e3861105e565b610e4061105e565b80156108d1576000805461ff001916905550565b60606000610e6383600261170d565b610e6e9060026116e1565b67ffffffffffffffff811115610e9457634e487b7160e01b600052604160045260246000fd5b6040519080825280601f01601f191660200182016040528015610ebe576020820181803683370190505b509050600360fc1b81600081518110610ee757634e487b7160e01b600052603260045260246000fd5b60200101906001600160f81b031916908160001a905350600f60fb1b81600181518110610f2457634e487b7160e01b600052603260045260246000fd5b60200101906001600160f81b031916908160001a9053506000610f4884600261170d565b610f539060016116e1565b90505b6001811115610fe7576f181899199a1a9b1b9c1cb0b131b232b360811b85600f1660108110610f9557634e487b7160e01b600052603260045260246000fd5b1a60f81b828281518110610fb957634e487b7160e01b600052603260045260246000fd5b60200101906001600160f81b031916908160001a90535060049490941c93610fe081611773565b9050610f56565b5083156110365760405162461bcd60e51b815260206004820181905260248201527f537472696e67733a20686578206c656e67746820696e73756666696369656e7460448201526064016104b8565b9392505050565b80516a636f6e736f6c652e6c6f67602083016000808483855afa5050505050565b600054610100900460ff1680611077575060005460ff16155b6110935760405162461bcd60e51b81526004016104b89061163e565b600054610100900460ff16158015610e40576000805461ffff191661010117905580156108d1576000805461ff001916905550565b828054828255906000526020600020908101928215611115579160200282015b828111156111155782518051611105918491602090910190611125565b50916020019190600101906110e8565b506111219291506111a5565b5090565b8280546111319061178a565b90600052602060002090601f0160209004810192826111535760008555611199565b82601f1061116c57805160ff1916838001178555611199565b82800160010185558215611199579182015b8281111561119957825182559160200191906001019061117e565b506111219291506111c2565b808211156111215760006111b982826111d7565b506001016111a5565b5b8082111561112157600081556001016111c3565b5080546111e39061178a565b6000825580601f106111f557506108d1565b601f0160209004906000526020600020908101906108d191906111c2565b80356001600160a01b038116811461045257600080fd5b803560ff8116811461045257600080fd5b60006020828403121561124c578081fd5b61103682611213565b600080600060408486031215611269578182fd5b833567ffffffffffffffff80821115611280578384fd5b818601915086601f830112611293578384fd5b8135818111156112a1578485fd5b8760208260051b85010111156112b5578485fd5b6020928301989097509590910135949350505050565b600060208083850312156112dd578182fd5b823567ffffffffffffffff8111156112f3578283fd5b8301601f81018513611303578283fd5b8035611316611311826116bd565b61168c565b80828252848201915084840188868560051b8701011115611335578687fd5b8694505b83851015611357578035835260019490940193918501918501611339565b50979650505050505050565b600060208284031215611374578081fd5b5035919050565b6000806040838503121561138d578182fd5b8235915061139d60208401611213565b90509250929050565b6000602082840312156113b7578081fd5b81356001600160e01b031981168114611036578182fd5b600080604083850312156113e0578182fd5b8235915060208084013567ffffffffffffffff808211156113ff578384fd5b9085019060a08288031215611412578384fd5b61141c60a061168c565b823581528383013582811115611430578586fd5b8301601f81018913611440578586fd5b61144d61131182356116bd565b8135815285810190868301885b84358110156114d357813585018d603f820112611475578a8bfd5b898101358881111561148957611489611820565b61149b601f8201601f19168c0161168c565b8181528f60408385010111156114af578c8dfd5b81604084018d8301379081018b018c9052855250928801929088019060010161145a565b505083870152506114e8905060408401611213565b6040820152606083013560608201526115036080840161122a565b6080820152809450505050509250929050565b60008060408385031215611528578182fd5b50508035926020909101359150565b6000815180845261154f816020860160208601611743565b601f01601f19169290920160200192915050565b60007f416363657373436f6e74726f6c3a206163636f756e74200000000000000000008252835161159b816017850160208801611743565b7001034b99036b4b9b9b4b733903937b6329607d1b60179184019182015283516115cc816028840160208801611743565b01602801949350505050565b6000602082526110366020830184611537565b6000606082526115fe6060830186611537565b60208301949094525060400152919050565b6020808252601490820152732a32b63632b927232a1d103737ba1030b236b4b760611b604082015260600190565b6020808252602e908201527f496e697469616c697a61626c653a20636f6e747261637420697320616c72656160408201526d191e481a5b9a5d1a585b1a5e995960921b606082015260800190565b604051601f8201601f1916810167ffffffffffffffff811182821017156116b5576116b5611820565b604052919050565b600067ffffffffffffffff8211156116d7576116d7611820565b5060051b60200190565b600082198211156116f4576116f46117f4565b500190565b6000826117085761170861180a565b500490565b6000816000190483118215151615611727576117276117f4565b500290565b60008282101561173e5761173e6117f4565b500390565b60005b8381101561175e578181015183820152602001611746565b8381111561176d576000848401525b50505050565b600081611782576117826117f4565b506000190190565b600181811c9082168061179e57607f821691505b602082108114156117bf57634e487b7160e01b600052602260045260246000fd5b50919050565b60006000198214156117d9576117d96117f4565b5060010190565b6000826117ef576117ef61180a565b500690565b634e487b7160e01b600052601160045260246000fd5b634e487b7160e01b600052601260045260246000fd5b634e487b7160e01b600052604160045260246000fdfedf8b4c520ffe197c5343c6f5aec59570151ef9a492f2c624fd45ddde6135ec42a2646970667358221220ecb16c7c3da297ed57d0a9e8ed2c841722760c049ad6a345c2e06e55ec99fb0f64736f6c63430008030033",
  "linkReferences": {},
  "deployedLinkReferences": {}
}