{
  "_format": "hh-sol-artifact-1",
  "contractName": "TellerNFTDictionary",
  "sourceName": "contracts/TellerNftDictionary.sol",
  "abi": [
    {
      "inputs": [],
      "stateMutability": "nonpayable",
      "type": "constructor"
    },
    {
      "anonymous": false,
      "inputs": [
        {
          "indexed": true,
          "internalType": "bytes32",
          "name": "role",
          "type": "bytes32"
        },
        {
          "indexed": true,
          "internalType": "bytes32",
          "name": "previousAdminRole",
          "type": "bytes32"
        },
        {
          "indexed": true,
          "internalType": "bytes32",
          "name": "newAdminRole",
          "type": "bytes32"
        }
      ],
      "name": "RoleAdminChanged",
      "type": "event"
    },
    {
      "anonymous": false,
      "inputs": [
        {
          "indexed": true,
          "internalType": "bytes32",
          "name": "role",
          "type": "bytes32"
        },
        {
          "indexed": true,
          "internalType": "address",
          "name": "account",
          "type": "address"
        },
        {
          "indexed": true,
          "internalType": "address",
          "name": "sender",
          "type": "address"
        }
      ],
      "name": "RoleGranted",
      "type": "event"
    },
    {
      "anonymous": false,
      "inputs": [
        {
          "indexed": true,
          "internalType": "bytes32",
          "name": "role",
          "type": "bytes32"
        },
        {
          "indexed": true,
          "internalType": "address",
          "name": "account",
          "type": "address"
        },
        {
          "indexed": true,
          "internalType": "address",
          "name": "sender",
          "type": "address"
        }
      ],
      "name": "RoleRevoked",
      "type": "event"
    },
    {
      "inputs": [],
      "name": "ADMIN",
      "outputs": [
        {
          "internalType": "bytes32",
          "name": "",
          "type": "bytes32"
        }
      ],
      "stateMutability": "view",
      "type": "function"
    },
    {
      "inputs": [],
      "name": "DEFAULT_ADMIN_ROLE",
      "outputs": [
        {
          "internalType": "bytes32",
          "name": "",
          "type": "bytes32"
        }
      ],
      "stateMutability": "view",
      "type": "function"
    },
    {
      "inputs": [
        {
          "internalType": "uint256",
          "name": "",
          "type": "uint256"
        }
      ],
      "name": "_tokenTierMappingCompressed",
      "outputs": [
        {
          "internalType": "uint256",
          "name": "",
          "type": "uint256"
        }
      ],
      "stateMutability": "view",
      "type": "function"
    },
    {
      "inputs": [
        {
          "internalType": "bytes32",
          "name": "role",
          "type": "bytes32"
        }
      ],
      "name": "getRoleAdmin",
      "outputs": [
        {
          "internalType": "bytes32",
          "name": "",
          "type": "bytes32"
        }
      ],
      "stateMutability": "view",
      "type": "function"
    },
    {
      "inputs": [
        {
          "internalType": "uint256",
          "name": "tokenTier",
          "type": "uint256"
        }
      ],
      "name": "getTierBaseLoanSize",
      "outputs": [
        {
          "internalType": "uint256",
          "name": "",
          "type": "uint256"
        }
      ],
      "stateMutability": "view",
      "type": "function"
    },
    {
      "inputs": [
        {
          "internalType": "uint256",
          "name": "tokenTier",
          "type": "uint256"
        }
      ],
      "name": "getTierContributionAsset",
      "outputs": [
        {
          "internalType": "address",
          "name": "",
          "type": "address"
        }
      ],
      "stateMutability": "view",
      "type": "function"
    },
    {
      "inputs": [
        {
          "internalType": "uint256",
          "name": "tokenTier",
          "type": "uint256"
        }
      ],
      "name": "getTierContributionMultiplier",
      "outputs": [
        {
          "internalType": "uint8",
          "name": "",
          "type": "uint8"
        }
      ],
      "stateMutability": "view",
      "type": "function"
    },
    {
      "inputs": [
        {
          "internalType": "uint256",
          "name": "tokenTier",
          "type": "uint256"
        }
      ],
      "name": "getTierContributionSize",
      "outputs": [
        {
          "internalType": "uint256",
          "name": "",
          "type": "uint256"
        }
      ],
      "stateMutability": "view",
      "type": "function"
    },
    {
      "inputs": [
        {
          "internalType": "uint256",
          "name": "tierIndex",
          "type": "uint256"
        }
      ],
      "name": "getTierHashes",
      "outputs": [
        {
          "internalType": "string[]",
          "name": "hashes_",
          "type": "string[]"
        }
      ],
      "stateMutability": "view",
      "type": "function"
    },
    {
      "inputs": [
        {
          "internalType": "uint256",
          "name": "tokenId",
          "type": "uint256"
        }
      ],
      "name": "getTokenTierIndex",
      "outputs": [
        {
          "internalType": "uint8",
          "name": "index_",
          "type": "uint8"
        }
      ],
      "stateMutability": "view",
      "type": "function"
    },
    {
      "inputs": [
        {
          "internalType": "bytes32",
          "name": "role",
          "type": "bytes32"
        },
        {
          "internalType": "address",
          "name": "account",
          "type": "address"
        }
      ],
      "name": "grantRole",
      "outputs": [],
      "stateMutability": "nonpayable",
      "type": "function"
    },
    {
      "inputs": [
        {
          "internalType": "bytes32",
          "name": "role",
          "type": "bytes32"
        },
        {
          "internalType": "address",
          "name": "account",
          "type": "address"
        }
      ],
      "name": "hasRole",
      "outputs": [
        {
          "internalType": "bool",
          "name": "",
          "type": "bool"
        }
      ],
      "stateMutability": "view",
      "type": "function"
    },
    {
      "inputs": [
        {
          "internalType": "bytes32",
          "name": "role",
          "type": "bytes32"
        },
        {
          "internalType": "address",
          "name": "account",
          "type": "address"
        }
      ],
      "name": "renounceRole",
      "outputs": [],
      "stateMutability": "nonpayable",
      "type": "function"
    },
    {
      "inputs": [
        {
          "internalType": "bytes32",
          "name": "role",
          "type": "bytes32"
        },
        {
          "internalType": "address",
          "name": "account",
          "type": "address"
        }
      ],
      "name": "revokeRole",
      "outputs": [],
      "stateMutability": "nonpayable",
      "type": "function"
    },
    {
      "inputs": [
        {
          "internalType": "uint256[]",
          "name": "tiersMapping",
          "type": "uint256[]"
        }
      ],
      "name": "setAllTokenTierMappings",
      "outputs": [
        {
          "internalType": "bool",
          "name": "",
          "type": "bool"
        }
      ],
      "stateMutability": "nonpayable",
      "type": "function"
    },
    {
      "inputs": [
        {
          "internalType": "uint256",
          "name": "index",
          "type": "uint256"
        },
        {
          "components": [
            {
              "internalType": "uint256",
              "name": "baseLoanSize",
              "type": "uint256"
            },
            {
              "internalType": "string[]",
              "name": "hashes",
              "type": "string[]"
            },
            {
              "internalType": "address",
              "name": "contributionAsset",
              "type": "address"
            },
            {
              "internalType": "uint256",
              "name": "contributionSize",
              "type": "uint256"
            },
            {
              "internalType": "uint8",
              "name": "contributionMultiplier",
              "type": "uint8"
            }
          ],
          "internalType": "struct TellerNFTDictionary.Tier",
          "name": "newTier",
          "type": "tuple"
        }
      ],
      "name": "setTier",
      "outputs": [
        {
          "internalType": "bool",
          "name": "",
          "type": "bool"
        }
      ],
      "stateMutability": "nonpayable",
      "type": "function"
    },
    {
      "inputs": [
        {
          "internalType": "uint256",
          "name": "tokenId",
          "type": "uint256"
        },
        {
          "internalType": "uint256",
          "name": "tokenTier",
          "type": "uint256"
        }
      ],
      "name": "setTokenTierForTokenId",
      "outputs": [
        {
          "internalType": "bool",
          "name": "",
          "type": "bool"
        }
      ],
      "stateMutability": "nonpayable",
      "type": "function"
    },
    {
      "inputs": [
        {
          "internalType": "uint256",
          "name": "index",
          "type": "uint256"
        },
        {
          "internalType": "uint256",
          "name": "tierMapping",
          "type": "uint256"
        }
      ],
      "name": "setTokenTierMapping",
      "outputs": [
        {
          "internalType": "bool",
          "name": "",
          "type": "bool"
        }
      ],
      "stateMutability": "nonpayable",
      "type": "function"
    },
    {
      "inputs": [],
      "name": "stakeableTokenType",
      "outputs": [
        {
          "internalType": "bytes32",
          "name": "",
          "type": "bytes32"
        }
      ],
      "stateMutability": "view",
      "type": "function"
    },
    {
      "inputs": [
        {
          "internalType": "bytes4",
          "name": "interfaceId",
          "type": "bytes4"
        }
      ],
      "name": "supportsInterface",
      "outputs": [
        {
          "internalType": "bool",
          "name": "",
          "type": "bool"
        }
      ],
      "stateMutability": "view",
      "type": "function"
    },
    {
      "inputs": [
        {
          "internalType": "uint256",
          "name": "tokenId",
          "type": "uint256"
        }
      ],
      "name": "tokenBaseLoanSize",
      "outputs": [
        {
          "internalType": "uint256",
          "name": "",
          "type": "uint256"
        }
      ],
      "stateMutability": "view",
      "type": "function"
    },
    {
      "inputs": [
        {
          "internalType": "uint256",
          "name": "tokenId",
          "type": "uint256"
        }
      ],
      "name": "tokenContributionAsset",
      "outputs": [
        {
          "internalType": "address",
          "name": "",
          "type": "address"
        }
      ],
      "stateMutability": "view",
      "type": "function"
    },
    {
      "inputs": [
        {
          "internalType": "uint256",
          "name": "tokenId",
          "type": "uint256"
        }
      ],
      "name": "tokenContributionMultiplier",
      "outputs": [
        {
          "internalType": "uint8",
          "name": "",
          "type": "uint8"
        }
      ],
      "stateMutability": "view",
      "type": "function"
    },
    {
      "inputs": [
        {
          "internalType": "uint256",
          "name": "tokenId",
          "type": "uint256"
        }
      ],
      "name": "tokenContributionSize",
      "outputs": [
        {
          "internalType": "uint256",
          "name": "",
          "type": "uint256"
        }
      ],
      "stateMutability": "view",
      "type": "function"
    },
    {
      "inputs": [
        {
          "internalType": "uint256",
          "name": "tokenId",
          "type": "uint256"
        }
      ],
      "name": "tokenURIHash",
      "outputs": [
        {
          "internalType": "string",
          "name": "",
          "type": "string"
        }
      ],
      "stateMutability": "view",
      "type": "function"
    }
  ],
  "bytecode": "0x608060405234801561001057600080fd5b5061003b7fdf8b4c520ffe197c5343c6f5aec59570151ef9a492f2c624fd45ddde6135ec4233610040565b6100f0565b61004a828261004e565b5050565b60008281526065602090815260408083206001600160a01b038516845290915290205460ff1661004a5760008281526065602090815260408083206001600160a01b03851684529091529020805460ff191660011790556100ac3390565b6001600160a01b0316816001600160a01b0316837f2f8788117e7eff1d82e926ec794901d17c78024a50270940304540a733656f0d60405160405180910390a45050565b61149c806100ff6000396000f3fe608060405234801561001057600080fd5b50600436106101715760003560e01c806347534ec9116100de578063a16eae3111610097578063cbee53a311610071578063cbee53a3146103ab578063d3001339146103cb578063d547741f146103eb578063f40898ef146103fe57610171565b8063a16eae3114610370578063a217fddf14610383578063c5d6bbaa1461038b57610171565b806347534ec9146102b057806360eedb0d146102d657806362a57233146102f657806375623b4514610309578063904783671461031c57806391d148541461035d57610171565b806324db57f81161013057806324db57f81461023a5780632a0acc6a1461024d5780632a4ce651146102625780632f2ff15d1461027557806336568abe1461028a57806346765a571461029d57610171565b80623d60651461017657806284c795146101a057806301ffc9a7146101c15780631933561a146101e4578063245a69d414610204578063248a9ca314610217575b600080fd5b610189610184366004610f85565b610411565b60405160ff90911681526020015b60405180910390f35b6101b36101ae366004610f85565b610429565b604051908152602001610197565b6101d46101cf366004610fc8565b61044e565b6040519015158152602001610197565b6101b36101f2366004610f85565b6000908152609a602052604090205490565b6101d4610212366004610eed565b610479565b6101b3610225366004610f85565b60009081526065602052604090206001015490565b6101b3610248366004610f85565b61051b565b6101b360008051602061144783398151915281565b6101d4610270366004611138565b610540565b610288610283366004610f9d565b61058c565b005b610288610298366004610f9d565b6105b8565b6101d46102ab366004610ff0565b610636565b7f2213d707f04cdfd263a540394e2a26bbf3a63d6ad89a37f534d2ee35bdfe0d386101b3565b6101b36102e4366004610f85565b60009081526097602052604090205490565b610189610304366004610f85565b610707565b6101d4610317366004611138565b61072f565b61034561032a366004610f85565b6000908152609960205260409020546001600160a01b031690565b6040516001600160a01b039091168152602001610197565b6101d461036b366004610f9d565b6107d6565b61018961037e366004610f85565b610801565b6101b3600081565b6101b3610399366004610f85565b609c6020526000908152604090205481565b6103be6103b9366004610f85565b610841565b60405161019791906111fa565b6103de6103d9366004610f85565b61092d565b604051610197919061125b565b6102886103f9366004610f9d565b610990565b61034561040c366004610f85565b6109b6565b6000818152609b602052604090205460ff165b919050565b60008061043583610801565b60ff166000908152609a60205260409020549392505050565b60006001600160e01b031982166326a1274160e01b14806104735750610473826109e4565b92915050565b60006104936000805160206114478339815191523361036b565b6104b85760405162461bcd60e51b81526004016104af9061126e565b60405180910390fd5b60005b8251811015610512578281815181106104e457634e487b7160e01b600052603260045260246000fd5b6020908102919091018101516000838152609c9092526040909120558061050a816113d5565b9150506104bb565b50600192915050565b60008061052783610801565b60ff166000908152609760205260409020549392505050565b600061055a6000805160206114478339815191523361036b565b6105765760405162461bcd60e51b81526004016104af9061126e565b506000918252609c602052604090912055600190565b6000828152606560205260409020600101546105a981335b610a19565b6105b38383610a7d565b505050565b6001600160a01b03811633146106285760405162461bcd60e51b815260206004820152602f60248201527f416363657373436f6e74726f6c3a2063616e206f6e6c792072656e6f756e636560448201526e103937b632b9903337b91039b2b63360891b60648201526084016104af565b6106328282610b03565b5050565b60006106506000805160206114478339815191523361036b565b61066c5760405162461bcd60e51b81526004016104af9061126e565b815160008481526097602090815260408083209390935580850151609882529290912082516106a19391929190910190610d77565b505060408181015160009384526099602090815282852080546001600160a01b0319166001600160a01b03909316929092179091556060830151609a825282852055608090920151609b909252909120805460ff191660ff909216919091179055600190565b60008061071383610801565b60ff9081166000908152609b6020526040902054169392505050565b60006107496000805160206114478339815191523361036b565b6107655760405162461bcd60e51b81526004016104af9061126e565b6000610772846020610b6a565b6000818152609c602090815260408220549293506107a990600890610798908990610b7d565b6107a390601f61133c565b90610b89565b6000938452609c6020526040909320600b841b60ff90941b19929092169290921790555060019392505050565b60009182526065602090815260408084206001600160a01b0393909316845291905290205460ff1690565b60008061080f836020610b6a565b6000818152609c6020908152604082205492935061083590600890610798908890610b7d565b9190911c949350505050565b606060986000838152602001908152602001600020805480602002602001604051908101604052809291908181526020016000905b828210156109225783829060005260206000200180546108959061139a565b80601f01602080910402602001604051908101604052809291908181526020018280546108c19061139a565b801561090e5780601f106108e35761010080835404028352916020019161090e565b820191906000526020600020905b8154815290600101906020018083116108f157829003601f168201915b505050505081526020019060010190610876565b505050509050919050565b6060600061093a83610801565b9050600061094a8260ff16610841565b905080610961825186610b7d90919063ffffffff16565b8151811061097f57634e487b7160e01b600052603260045260246000fd5b602002602001015192505050919050565b6000828152606560205260409020600101546109ac81336105a4565b6105b38383610b03565b6000806109c283610801565b60ff166000908152609960205260409020546001600160a01b03169392505050565b60006001600160e01b03198216637965db0b60e01b148061047357506301ffc9a760e01b6001600160e01b0319831614610473565b610a2382826107d6565b61063257610a3b816001600160a01b03166014610b95565b610a46836020610b95565b604051602001610a57929190611185565b60408051601f198184030181529082905262461bcd60e51b82526104af9160040161125b565b610a8782826107d6565b6106325760008281526065602090815260408083206001600160a01b03851684529091529020805460ff19166001179055610abf3390565b6001600160a01b0316816001600160a01b0316837f2f8788117e7eff1d82e926ec794901d17c78024a50270940304540a733656f0d60405160405180910390a45050565b610b0d82826107d6565b156106325760008281526065602090815260408083206001600160a01b0385168085529252808320805460ff1916905551339285917ff6391f5c32d9c69d2a47ea670b442974b53935d1edc7fd64eb21e047a839171b9190a45050565b6000610b768284611309565b9392505050565b6000610b7682846113f0565b6000610b76828461131d565b60606000610ba483600261131d565b610baf9060026112f1565b67ffffffffffffffff811115610bd557634e487b7160e01b600052604160045260246000fd5b6040519080825280601f01601f191660200182016040528015610bff576020820181803683370190505b509050600360fc1b81600081518110610c2857634e487b7160e01b600052603260045260246000fd5b60200101906001600160f81b031916908160001a905350600f60fb1b81600181518110610c6557634e487b7160e01b600052603260045260246000fd5b60200101906001600160f81b031916908160001a9053506000610c8984600261131d565b610c949060016112f1565b90505b6001811115610d28576f181899199a1a9b1b9c1cb0b131b232b360811b85600f1660108110610cd657634e487b7160e01b600052603260045260246000fd5b1a60f81b828281518110610cfa57634e487b7160e01b600052603260045260246000fd5b60200101906001600160f81b031916908160001a90535060049490941c93610d2181611383565b9050610c97565b508315610b765760405162461bcd60e51b815260206004820181905260248201527f537472696e67733a20686578206c656e67746820696e73756666696369656e7460448201526064016104af565b828054828255906000526020600020908101928215610dc4579160200282015b82811115610dc45782518051610db4918491602090910190610dd4565b5091602001919060010190610d97565b50610dd0929150610e54565b5090565b828054610de09061139a565b90600052602060002090601f016020900481019282610e025760008555610e48565b82601f10610e1b57805160ff1916838001178555610e48565b82800160010185558215610e48579182015b82811115610e48578251825591602001919060010190610e2d565b50610dd0929150610e71565b80821115610dd0576000610e688282610e86565b50600101610e54565b5b80821115610dd05760008155600101610e72565b508054610e929061139a565b6000825580601f10610ea45750610ec2565b601f016020900490600052602060002090810190610ec29190610e71565b50565b80356001600160a01b038116811461042457600080fd5b803560ff8116811461042457600080fd5b60006020808385031215610eff578182fd5b823567ffffffffffffffff811115610f15578283fd5b8301601f81018513610f25578283fd5b8035610f38610f33826112cd565b61129c565b80828252848201915084840188868560051b8701011115610f57578687fd5b8694505b83851015610f79578035835260019490940193918501918501610f5b565b50979650505050505050565b600060208284031215610f96578081fd5b5035919050565b60008060408385031215610faf578081fd5b82359150610fbf60208401610ec5565b90509250929050565b600060208284031215610fd9578081fd5b81356001600160e01b031981168114610b76578182fd5b60008060408385031215611002578182fd5b8235915060208084013567ffffffffffffffff80821115611021578384fd5b9085019060a08288031215611034578384fd5b61103e60a061129c565b823581528383013582811115611052578586fd5b8301601f81018913611062578586fd5b61106f610f3382356112cd565b8135815285810190868301885b84358110156110f557813585018d603f820112611097578a8bfd5b89810135888111156110ab576110ab611430565b6110bd601f8201601f19168c0161129c565b8181528f60408385010111156110d1578c8dfd5b81604084018d8301379081018b018c9052855250928801929088019060010161107c565b5050838701525061110a905060408401610ec5565b60408201526060830135606082015261112560808401610edc565b6080820152809450505050509250929050565b6000806040838503121561114a578182fd5b50508035926020909101359150565b60008151808452611171816020860160208601611353565b601f01601f19169290920160200192915050565b60007f416363657373436f6e74726f6c3a206163636f756e7420000000000000000000825283516111bd816017850160208801611353565b7001034b99036b4b9b9b4b733903937b6329607d1b60179184019182015283516111ee816028840160208801611353565b01602801949350505050565b6000602080830181845280855180835260408601915060408160051b8701019250838701855b8281101561124e57603f1988860301845261123c858351611159565b94509285019290850190600101611220565b5092979650505050505050565b600060208252610b766020830184611159565b6020808252601490820152732a32b63632b927232a1d103737ba1030b236b4b760611b604082015260600190565b604051601f8201601f1916810167ffffffffffffffff811182821017156112c5576112c5611430565b604052919050565b600067ffffffffffffffff8211156112e7576112e7611430565b5060051b60200190565b6000821982111561130457611304611404565b500190565b6000826113185761131861141a565b500490565b600081600019048311821515161561133757611337611404565b500290565b60008282101561134e5761134e611404565b500390565b60005b8381101561136e578181015183820152602001611356565b8381111561137d576000848401525b50505050565b60008161139257611392611404565b506000190190565b600181811c908216806113ae57607f821691505b602082108114156113cf57634e487b7160e01b600052602260045260246000fd5b50919050565b60006000198214156113e9576113e9611404565b5060010190565b6000826113ff576113ff61141a565b500690565b634e487b7160e01b600052601160045260246000fd5b634e487b7160e01b600052601260045260246000fd5b634e487b7160e01b600052604160045260246000fdfedf8b4c520ffe197c5343c6f5aec59570151ef9a492f2c624fd45ddde6135ec42a264697066735822122055b6eb26c3ebaf81c3c532e5523300525816c88de81dc9a8108fbc8e0c73e85264736f6c63430008030033",
  "linkReferences": {},
  "deployedLinkReferences": {}
}