{
  "_format": "hh-sol-artifact-1",
  "contractName": "TellerNFTDictionary",
  "sourceName": "contracts/TellerNftDictionary.sol",
  "abi": [
    {
      "inputs": [],
      "stateMutability": "nonpayable",
      "type": "constructor"
    },
    {
      "anonymous": false,
      "inputs": [
        {
          "indexed": true,
          "internalType": "address",
          "name": "owner",
          "type": "address"
        },
        {
          "indexed": true,
          "internalType": "address",
          "name": "approved",
          "type": "address"
        },
        {
          "indexed": true,
          "internalType": "uint256",
          "name": "tokenId",
          "type": "uint256"
        }
      ],
      "name": "Approval",
      "type": "event"
    },
    {
      "anonymous": false,
      "inputs": [
        {
          "indexed": true,
          "internalType": "address",
          "name": "owner",
          "type": "address"
        },
        {
          "indexed": true,
          "internalType": "address",
          "name": "operator",
          "type": "address"
        },
        {
          "indexed": false,
          "internalType": "bool",
          "name": "approved",
          "type": "bool"
        }
      ],
      "name": "ApprovalForAll",
      "type": "event"
    },
    {
      "anonymous": false,
      "inputs": [
        {
          "indexed": true,
          "internalType": "bytes32",
          "name": "role",
          "type": "bytes32"
        },
        {
          "indexed": true,
          "internalType": "bytes32",
          "name": "previousAdminRole",
          "type": "bytes32"
        },
        {
          "indexed": true,
          "internalType": "bytes32",
          "name": "newAdminRole",
          "type": "bytes32"
        }
      ],
      "name": "RoleAdminChanged",
      "type": "event"
    },
    {
      "anonymous": false,
      "inputs": [
        {
          "indexed": true,
          "internalType": "bytes32",
          "name": "role",
          "type": "bytes32"
        },
        {
          "indexed": true,
          "internalType": "address",
          "name": "account",
          "type": "address"
        },
        {
          "indexed": true,
          "internalType": "address",
          "name": "sender",
          "type": "address"
        }
      ],
      "name": "RoleGranted",
      "type": "event"
    },
    {
      "anonymous": false,
      "inputs": [
        {
          "indexed": true,
          "internalType": "bytes32",
          "name": "role",
          "type": "bytes32"
        },
        {
          "indexed": true,
          "internalType": "address",
          "name": "account",
          "type": "address"
        },
        {
          "indexed": true,
          "internalType": "address",
          "name": "sender",
          "type": "address"
        }
      ],
      "name": "RoleRevoked",
      "type": "event"
    },
    {
      "anonymous": false,
      "inputs": [
        {
          "indexed": true,
          "internalType": "address",
          "name": "from",
          "type": "address"
        },
        {
          "indexed": true,
          "internalType": "address",
          "name": "to",
          "type": "address"
        },
        {
          "indexed": true,
          "internalType": "uint256",
          "name": "tokenId",
          "type": "uint256"
        }
      ],
      "name": "Transfer",
      "type": "event"
    },
    {
      "inputs": [],
      "name": "ADMIN",
      "outputs": [
        {
          "internalType": "bytes32",
          "name": "",
          "type": "bytes32"
        }
      ],
      "stateMutability": "view",
      "type": "function"
    },
    {
      "inputs": [],
      "name": "DEFAULT_ADMIN_ROLE",
      "outputs": [
        {
          "internalType": "bytes32",
          "name": "",
          "type": "bytes32"
        }
      ],
      "stateMutability": "view",
      "type": "function"
    },
    {
      "inputs": [
        {
          "internalType": "uint256",
          "name": "",
          "type": "uint256"
        }
      ],
      "name": "_tokenTierMappingCompressed",
      "outputs": [
        {
          "internalType": "uint256",
          "name": "",
          "type": "uint256"
        }
      ],
      "stateMutability": "view",
      "type": "function"
    },
    {
      "inputs": [
        {
          "internalType": "address",
          "name": "to",
          "type": "address"
        },
        {
          "internalType": "uint256",
          "name": "tokenId",
          "type": "uint256"
        }
      ],
      "name": "approve",
      "outputs": [],
      "stateMutability": "nonpayable",
      "type": "function"
    },
    {
      "inputs": [
        {
          "internalType": "address",
          "name": "owner",
          "type": "address"
        }
      ],
      "name": "balanceOf",
      "outputs": [
        {
          "internalType": "uint256",
          "name": "",
          "type": "uint256"
        }
      ],
      "stateMutability": "view",
      "type": "function"
    },
    {
      "inputs": [],
      "name": "bitshiftTesting",
      "outputs": [
        {
          "internalType": "uint8",
          "name": "",
          "type": "uint8"
        }
      ],
      "stateMutability": "view",
      "type": "function"
    },
    {
      "inputs": [
        {
          "internalType": "uint256",
          "name": "tokenId",
          "type": "uint256"
        }
      ],
      "name": "getApproved",
      "outputs": [
        {
          "internalType": "address",
          "name": "",
          "type": "address"
        }
      ],
      "stateMutability": "view",
      "type": "function"
    },
    {
      "inputs": [
        {
          "internalType": "bytes32",
          "name": "role",
          "type": "bytes32"
        }
      ],
      "name": "getRoleAdmin",
      "outputs": [
        {
          "internalType": "bytes32",
          "name": "",
          "type": "bytes32"
        }
      ],
      "stateMutability": "view",
      "type": "function"
    },
    {
      "inputs": [
        {
          "internalType": "uint256",
          "name": "tierIndex",
          "type": "uint256"
        }
      ],
      "name": "getTierHashes",
      "outputs": [
        {
          "internalType": "string[]",
          "name": "hashes_",
          "type": "string[]"
        }
      ],
      "stateMutability": "view",
      "type": "function"
    },
    {
      "inputs": [
        {
          "internalType": "uint256",
          "name": "tokenId",
          "type": "uint256"
        }
      ],
      "name": "getTokenTierIndex",
      "outputs": [
        {
          "internalType": "uint8",
          "name": "index_",
          "type": "uint8"
        }
      ],
      "stateMutability": "view",
      "type": "function"
    },
    {
      "inputs": [
        {
          "internalType": "bytes32",
          "name": "role",
          "type": "bytes32"
        },
        {
          "internalType": "address",
          "name": "account",
          "type": "address"
        }
      ],
      "name": "grantRole",
      "outputs": [],
      "stateMutability": "nonpayable",
      "type": "function"
    },
    {
      "inputs": [
        {
          "internalType": "bytes32",
          "name": "role",
          "type": "bytes32"
        },
        {
          "internalType": "address",
          "name": "account",
          "type": "address"
        }
      ],
      "name": "hasRole",
      "outputs": [
        {
          "internalType": "bool",
          "name": "",
          "type": "bool"
        }
      ],
      "stateMutability": "view",
      "type": "function"
    },
    {
      "inputs": [
        {
          "internalType": "address",
          "name": "owner",
          "type": "address"
        },
        {
          "internalType": "address",
          "name": "operator",
          "type": "address"
        }
      ],
      "name": "isApprovedForAll",
      "outputs": [
        {
          "internalType": "bool",
          "name": "",
          "type": "bool"
        }
      ],
      "stateMutability": "view",
      "type": "function"
    },
    {
      "inputs": [],
      "name": "name",
      "outputs": [
        {
          "internalType": "string",
          "name": "",
          "type": "string"
        }
      ],
      "stateMutability": "view",
      "type": "function"
    },
    {
      "inputs": [
        {
          "internalType": "uint256",
          "name": "tokenId",
          "type": "uint256"
        }
      ],
      "name": "ownerOf",
      "outputs": [
        {
          "internalType": "address",
          "name": "",
          "type": "address"
        }
      ],
      "stateMutability": "view",
      "type": "function"
    },
    {
      "inputs": [
        {
          "internalType": "bytes32",
          "name": "role",
          "type": "bytes32"
        },
        {
          "internalType": "address",
          "name": "account",
          "type": "address"
        }
      ],
      "name": "renounceRole",
      "outputs": [],
      "stateMutability": "nonpayable",
      "type": "function"
    },
    {
      "inputs": [
        {
          "internalType": "bytes32",
          "name": "role",
          "type": "bytes32"
        },
        {
          "internalType": "address",
          "name": "account",
          "type": "address"
        }
      ],
      "name": "revokeRole",
      "outputs": [],
      "stateMutability": "nonpayable",
      "type": "function"
    },
    {
      "inputs": [
        {
          "internalType": "address",
          "name": "from",
          "type": "address"
        },
        {
          "internalType": "address",
          "name": "to",
          "type": "address"
        },
        {
          "internalType": "uint256",
          "name": "tokenId",
          "type": "uint256"
        }
      ],
      "name": "safeTransferFrom",
      "outputs": [],
      "stateMutability": "nonpayable",
      "type": "function"
    },
    {
      "inputs": [
        {
          "internalType": "address",
          "name": "from",
          "type": "address"
        },
        {
          "internalType": "address",
          "name": "to",
          "type": "address"
        },
        {
          "internalType": "uint256",
          "name": "tokenId",
          "type": "uint256"
        },
        {
          "internalType": "bytes",
          "name": "_data",
          "type": "bytes"
        }
      ],
      "name": "safeTransferFrom",
      "outputs": [],
      "stateMutability": "nonpayable",
      "type": "function"
    },
    {
      "inputs": [
        {
          "internalType": "uint256[]",
          "name": "tiersMapping",
          "type": "uint256[]"
        }
      ],
      "name": "setAllTokenTierMappings",
      "outputs": [],
      "stateMutability": "nonpayable",
      "type": "function"
    },
    {
      "inputs": [
        {
          "internalType": "address",
          "name": "operator",
          "type": "address"
        },
        {
          "internalType": "bool",
          "name": "approved",
          "type": "bool"
        }
      ],
      "name": "setApprovalForAll",
      "outputs": [],
      "stateMutability": "nonpayable",
      "type": "function"
    },
    {
      "inputs": [
        {
          "internalType": "uint256",
          "name": "index",
          "type": "uint256"
        },
        {
          "components": [
            {
              "internalType": "uint256",
              "name": "baseLoanSize",
              "type": "uint256"
            },
            {
              "internalType": "string[]",
              "name": "hashes",
              "type": "string[]"
            },
            {
              "internalType": "address",
              "name": "contributionAsset",
              "type": "address"
            },
            {
              "internalType": "uint256",
              "name": "contributionSize",
              "type": "uint256"
            },
            {
              "internalType": "uint8",
              "name": "contributionMultiplier",
              "type": "uint8"
            }
          ],
          "internalType": "struct TellerNFTDictionary.Tier",
          "name": "newTier",
          "type": "tuple"
        }
      ],
      "name": "setTier",
      "outputs": [],
      "stateMutability": "nonpayable",
      "type": "function"
    },
    {
      "inputs": [
        {
          "internalType": "uint256",
          "name": "index",
          "type": "uint256"
        },
        {
          "internalType": "uint256",
          "name": "tierMapping",
          "type": "uint256"
        }
      ],
      "name": "setTokenTierMapping",
      "outputs": [],
      "stateMutability": "nonpayable",
      "type": "function"
    },
    {
      "inputs": [],
      "name": "stakeableTokenType",
      "outputs": [
        {
          "internalType": "bytes32",
          "name": "",
          "type": "bytes32"
        }
      ],
      "stateMutability": "view",
      "type": "function"
    },
    {
      "inputs": [
        {
          "internalType": "bytes4",
          "name": "interfaceId",
          "type": "bytes4"
        }
      ],
      "name": "supportsInterface",
      "outputs": [
        {
          "internalType": "bool",
          "name": "",
          "type": "bool"
        }
      ],
      "stateMutability": "view",
      "type": "function"
    },
    {
      "inputs": [],
      "name": "symbol",
      "outputs": [
        {
          "internalType": "string",
          "name": "",
          "type": "string"
        }
      ],
      "stateMutability": "view",
      "type": "function"
    },
    {
      "inputs": [
        {
          "internalType": "uint256",
          "name": "tokenId",
          "type": "uint256"
        }
      ],
      "name": "tokenBaseLoanSize",
      "outputs": [
        {
          "internalType": "uint256",
          "name": "",
          "type": "uint256"
        }
      ],
      "stateMutability": "view",
      "type": "function"
    },
    {
      "inputs": [
        {
          "internalType": "uint256",
          "name": "tokenId",
          "type": "uint256"
        }
      ],
      "name": "tokenContributionAsset",
      "outputs": [
        {
          "internalType": "address",
          "name": "",
          "type": "address"
        }
      ],
      "stateMutability": "view",
      "type": "function"
    },
    {
      "inputs": [
        {
          "internalType": "uint256",
          "name": "tokenId",
          "type": "uint256"
        }
      ],
      "name": "tokenContributionMultiplier",
      "outputs": [
        {
          "internalType": "uint256",
          "name": "",
          "type": "uint256"
        }
      ],
      "stateMutability": "view",
      "type": "function"
    },
    {
      "inputs": [
        {
          "internalType": "uint256",
          "name": "tokenId",
          "type": "uint256"
        }
      ],
      "name": "tokenContributionSize",
      "outputs": [
        {
          "internalType": "uint256",
          "name": "",
          "type": "uint256"
        }
      ],
      "stateMutability": "view",
      "type": "function"
    },
    {
      "inputs": [
        {
          "internalType": "uint256",
          "name": "tokenId",
          "type": "uint256"
        }
      ],
      "name": "tokenURI",
      "outputs": [
        {
          "internalType": "string",
          "name": "",
          "type": "string"
        }
      ],
      "stateMutability": "view",
      "type": "function"
    },
    {
      "inputs": [
        {
          "internalType": "uint256",
          "name": "tokenId",
          "type": "uint256"
        }
      ],
      "name": "tokenURIHash",
      "outputs": [
        {
          "internalType": "string",
          "name": "",
          "type": "string"
        }
      ],
      "stateMutability": "view",
      "type": "function"
    },
    {
      "inputs": [
        {
          "internalType": "address",
          "name": "from",
          "type": "address"
        },
        {
          "internalType": "address",
          "name": "to",
          "type": "address"
        },
        {
          "internalType": "uint256",
          "name": "tokenId",
          "type": "uint256"
        }
      ],
      "name": "transferFrom",
      "outputs": [],
      "stateMutability": "nonpayable",
      "type": "function"
    }
  ],
  "bytecode": "0x60806040523480156200001157600080fd5b506200003e7fdf8b4c520ffe197c5343c6f5aec59570151ef9a492f2c624fd45ddde6135ec423362000044565b620000f8565b62000050828262000054565b5050565b60008281526097602090815260408083206001600160a01b038516845290915290205460ff16620000505760008281526097602090815260408083206001600160a01b03851684529091529020805460ff19166001179055620000b43390565b6001600160a01b0316816001600160a01b0316837f2f8788117e7eff1d82e926ec794901d17c78024a50270940304540a733656f0d60405160405180910390a45050565b6122db80620001086000396000f3fe608060405234801561001057600080fd5b50600436106101fa5760003560e01c806362a572331161011a578063a22cb465116100ad578063cbee53a31161007c578063cbee53a314610475578063d300133914610495578063d547741f146104a8578063e985e9c5146104bb578063f40898ef146104f7576101fa565b8063a22cb4651461041c578063b88d4fde1461042f578063c5d6bbaa14610442578063c87b56dd14610462576101fa565b806391d14854116100e957806391d14854146103e657806395d89b41146103f9578063a16eae3114610401578063a217fddf14610414576101fa565b806362a57233146103935780636352211e146103a657806370a08231146103b9578063916a47db146103cc576101fa565b806324db57f81161019257806336568abe1161016157806336568abe1461033457806342842e0e1461034757806346765a571461035a57806347534ec91461036d576101fa565b806324db57f8146102e65780632a0acc6a146102f95780632a4ce6511461030e5780632f2ff15d14610321576101fa565b8063095ea7b3116101ce578063095ea7b31461028857806323b872dd1461029d578063245a69d4146102b0578063248a9ca3146102c3576101fa565b806284c795146101ff57806301ffc9a71461022557806306fdde0314610248578063081812fc1461025d575b600080fd5b61021261020d366004611cd6565b61050a565b6040519081526020015b60405180910390f35b610238610233366004611d10565b610531565b604051901515815260200161021c565b61025061056b565b60405161021c9190611fe5565b61027061026b366004611cd6565b6105fd565b6040516001600160a01b03909116815260200161021c565b61029b610296366004611c15565b610697565b005b61029b6102ab366004611b27565b6107ad565b61029b6102be366004611c3e565b6107de565b6102126102d1366004611cd6565b60009081526097602052604090206001015490565b6102126102f4366004611cd6565b610870565b61021260008051602061228683398151915281565b61029b61031c366004611e56565b610895565b61029b61032f366004611cee565b6108db565b61029b610342366004611cee565b610902565b61029b610355366004611b27565b61097c565b61029b610368366004611d48565b610997565b7f2213d707f04cdfd263a540394e2a26bbf3a63d6ad89a37f534d2ee35bdfe0d38610212565b6102126103a1366004611cd6565b610a62565b6102706103b4366004611cd6565b610a8a565b6102126103c7366004611adb565b610b01565b6103d4610b88565b60405160ff909116815260200161021c565b6102386103f4366004611cee565b610bc1565b610250610bec565b6103d461040f366004611cd6565b610bfb565b610212600081565b61029b61042a366004611bdb565b610c4c565b61029b61043d366004611b62565b610d1e565b610212610450366004611cd6565b60ce6020526000908152604090205481565b610250610470366004611cd6565b610d56565b610488610483366004611cd6565b610e3e565b60405161021c9190611f84565b6102506104a3366004611cd6565b610f2a565b61029b6104b6366004611cee565b610f8d565b6102386104c9366004611af5565b6001600160a01b039182166000908152606a6020908152604080832093909416825291909152205460ff1690565b610270610505366004611cd6565b610fb3565b60008061051683610bfb565b60ff16600090815260cc60205260409020549150505b919050565b60006001600160e01b031982166326a1274160e01b1480610556575061055682610fe1565b80610565575061056582611031565b92915050565b60606065805461057a906121c3565b80601f01602080910402602001604051908101604052809291908181526020018280546105a6906121c3565b80156105f35780601f106105c8576101008083540402835291602001916105f3565b820191906000526020600020905b8154815290600101906020018083116105d657829003601f168201915b5050505050905090565b6000818152606760205260408120546001600160a01b031661067b5760405162461bcd60e51b815260206004820152602c60248201527f4552433732313a20617070726f76656420717565727920666f72206e6f6e657860448201526b34b9ba32b73a103a37b5b2b760a11b60648201526084015b60405180910390fd5b506000908152606960205260409020546001600160a01b031690565b60006106a282610a8a565b9050806001600160a01b0316836001600160a01b031614156107105760405162461bcd60e51b815260206004820152602160248201527f4552433732313a20617070726f76616c20746f2063757272656e74206f776e656044820152603960f91b6064820152608401610672565b336001600160a01b038216148061072c575061072c81336104c9565b61079e5760405162461bcd60e51b815260206004820152603860248201527f4552433732313a20617070726f76652063616c6c6572206973206e6f74206f7760448201527f6e6572206e6f7220617070726f76656420666f7220616c6c00000000000000006064820152608401610672565b6107a88383611056565b505050565b6107b733826110c4565b6107d35760405162461bcd60e51b815260040161067290612078565b6107a88383836111bb565b6107f6600080516020612286833981519152336103f4565b6108125760405162461bcd60e51b81526004016106729061204a565b60005b815181101561086c5781818151811061083e57634e487b7160e01b600052603260045260246000fd5b602090810291909101810151600083815260ce90925260409091205580610864816121fe565b915050610815565b5050565b60008061087c83610bfb565b60ff16600090815260c960205260409020549392505050565b6108ad600080516020612286833981519152336103f4565b6108c95760405162461bcd60e51b81526004016106729061204a565b600091825260ce602052604090912055565b6000828152609760205260409020600101546108f881335b61135b565b6107a883836113bf565b6001600160a01b03811633146109725760405162461bcd60e51b815260206004820152602f60248201527f416363657373436f6e74726f6c3a2063616e206f6e6c792072656e6f756e636560448201526e103937b632b9903337b91039b2b63360891b6064820152608401610672565b61086c8282611445565b6107a883838360405180602001604052806000815250610d1e565b6109af600080516020612286833981519152336103f4565b6109cb5760405162461bcd60e51b81526004016106729061204a565b8051600083815260c960209081526040808320939093558084015160ca8252929091208251610a00939192919091019061190d565b50604081810151600093845260cb602090815282852080546001600160a01b0319166001600160a01b0390931692909217909155606083015160cc82528285205560809092015160cd909252909120805460ff191660ff909216919091179055565b600080610a6e83610bfb565b60ff908116600090815260cd6020526040902054169392505050565b6000818152606760205260408120546001600160a01b0316806105655760405162461bcd60e51b815260206004820152602960248201527f4552433732313a206f776e657220717565727920666f72206e6f6e657869737460448201526832b73a103a37b5b2b760b91b6064820152608401610672565b60006001600160a01b038216610b6c5760405162461bcd60e51b815260206004820152602a60248201527f4552433732313a2062616c616e636520717565727920666f7220746865207a65604482015269726f206164647265737360b01b6064820152608401610672565b506001600160a01b031660009081526068602052604090205490565b60007e210201000302010003020100030201000302010003020100030201000302016002610bb78160086114ac565b9190911c91505090565b60009182526097602090815260408084206001600160a01b0393909316845291905290205460ff1690565b60606066805461057a906121c3565b600080610c098360206114b8565b600081815260ce60209081526040822054929350610c4090600890610c2f9088906114c4565b610c3a90601f612169565b906114ac565b9190911c949350505050565b6001600160a01b038216331415610ca55760405162461bcd60e51b815260206004820152601960248201527f4552433732313a20617070726f766520746f2063616c6c6572000000000000006044820152606401610672565b336000818152606a602090815260408083206001600160a01b0387168085529252909120805460ff1916841515179055906001600160a01b03167f17307eab39ab6107e8899845ad3d59bd9653f200f220920489ca2b5937696c3183604051610d12911515815260200190565b60405180910390a35050565b610d2833836110c4565b610d445760405162461bcd60e51b815260040161067290612078565b610d50848484846114d0565b50505050565b6000818152606760205260409020546060906001600160a01b0316610dd55760405162461bcd60e51b815260206004820152602f60248201527f4552433732314d657461646174613a2055524920717565727920666f72206e6f60448201526e3732bc34b9ba32b73a103a37b5b2b760891b6064820152608401610672565b6000610dec60408051602081019091526000815290565b90506000815111610e0c5760405180602001604052806000815250610e37565b80610e1684611503565b604051602001610e27929190611ea3565b6040516020818303038152906040525b9392505050565b606060ca6000838152602001908152602001600020805480602002602001604051908101604052809291908181526020016000905b82821015610f1f578382906000526020600020018054610e92906121c3565b80601f0160208091040260200160405190810160405280929190818152602001828054610ebe906121c3565b8015610f0b5780601f10610ee057610100808354040283529160200191610f0b565b820191906000526020600020905b815481529060010190602001808311610eee57829003601f168201915b505050505081526020019060010190610e73565b505050509050919050565b60606000610f3783610bfb565b90506000610f478260ff16610e3e565b905080610f5e8251866114c490919063ffffffff16565b81518110610f7c57634e487b7160e01b600052603260045260246000fd5b602002602001015192505050919050565b600082815260976020526040902060010154610fa981336108f3565b6107a88383611445565b600080610fbf83610bfb565b60ff16600090815260cb60205260409020546001600160a01b03169392505050565b60006001600160e01b031982166380ac58cd60e01b148061101257506001600160e01b03198216635b5e139f60e01b145b8061056557506301ffc9a760e01b6001600160e01b0319831614610565565b60006001600160e01b03198216637965db0b60e01b1480610565575061056582610fe1565b600081815260696020526040902080546001600160a01b0319166001600160a01b038416908117909155819061108b82610a8a565b6001600160a01b03167f8c5be1e5ebec7d5bd14f71427d1e84f3dd0314c0f7b2291e5b200ac8c7c3b92560405160405180910390a45050565b6000818152606760205260408120546001600160a01b031661113d5760405162461bcd60e51b815260206004820152602c60248201527f4552433732313a206f70657261746f7220717565727920666f72206e6f6e657860448201526b34b9ba32b73a103a37b5b2b760a11b6064820152608401610672565b600061114883610a8a565b9050806001600160a01b0316846001600160a01b031614806111835750836001600160a01b0316611178846105fd565b6001600160a01b0316145b806111b357506001600160a01b038082166000908152606a602090815260408083209388168352929052205460ff165b949350505050565b826001600160a01b03166111ce82610a8a565b6001600160a01b0316146112365760405162461bcd60e51b815260206004820152602960248201527f4552433732313a207472616e73666572206f6620746f6b656e2074686174206960448201526839903737ba1037bbb760b91b6064820152608401610672565b6001600160a01b0382166112985760405162461bcd60e51b8152602060048201526024808201527f4552433732313a207472616e7366657220746f20746865207a65726f206164646044820152637265737360e01b6064820152608401610672565b6112a3600082611056565b6001600160a01b03831660009081526068602052604081208054600192906112cc908490612169565b90915550506001600160a01b03821660009081526068602052604081208054600192906112fa90849061211e565b909155505060008181526067602052604080822080546001600160a01b0319166001600160a01b0386811691821790925591518493918716917fddf252ad1be2c89b69c2b068fc378daa952ba7f163c4a11628f55a4df523b3ef91a4505050565b6113658282610bc1565b61086c5761137d816001600160a01b0316601461161e565b61138883602061161e565b604051602001611399929190611ed2565b60408051601f198184030181529082905262461bcd60e51b825261067291600401611fe5565b6113c98282610bc1565b61086c5760008281526097602090815260408083206001600160a01b03851684529091529020805460ff191660011790556114013390565b6001600160a01b0316816001600160a01b0316837f2f8788117e7eff1d82e926ec794901d17c78024a50270940304540a733656f0d60405160405180910390a45050565b61144f8282610bc1565b1561086c5760008281526097602090815260408083206001600160a01b0385168085529252808320805460ff1916905551339285917ff6391f5c32d9c69d2a47ea670b442974b53935d1edc7fd64eb21e047a839171b9190a45050565b6000610e37828461214a565b6000610e378284612136565b6000610e378284612219565b6114db8484846111bb565b6114e784848484611800565b610d505760405162461bcd60e51b815260040161067290611ff8565b60608161152857506040805180820190915260018152600360fc1b602082015261052c565b8160005b8115611552578061153c816121fe565b915061154b9050600a83612136565b915061152c565b60008167ffffffffffffffff81111561157b57634e487b7160e01b600052604160045260246000fd5b6040519080825280601f01601f1916602001820160405280156115a5576020820181803683370190505b5090505b84156111b3576115ba600183612169565b91506115c7600a86612219565b6115d290603061211e565b60f81b8183815181106115f557634e487b7160e01b600052603260045260246000fd5b60200101906001600160f81b031916908160001a905350611617600a86612136565b94506115a9565b6060600061162d83600261214a565b61163890600261211e565b67ffffffffffffffff81111561165e57634e487b7160e01b600052604160045260246000fd5b6040519080825280601f01601f191660200182016040528015611688576020820181803683370190505b509050600360fc1b816000815181106116b157634e487b7160e01b600052603260045260246000fd5b60200101906001600160f81b031916908160001a905350600f60fb1b816001815181106116ee57634e487b7160e01b600052603260045260246000fd5b60200101906001600160f81b031916908160001a905350600061171284600261214a565b61171d90600161211e565b90505b60018111156117b1576f181899199a1a9b1b9c1cb0b131b232b360811b85600f166010811061175f57634e487b7160e01b600052603260045260246000fd5b1a60f81b82828151811061178357634e487b7160e01b600052603260045260246000fd5b60200101906001600160f81b031916908160001a90535060049490941c936117aa816121ac565b9050611720565b508315610e375760405162461bcd60e51b815260206004820181905260248201527f537472696e67733a20686578206c656e67746820696e73756666696369656e746044820152606401610672565b60006001600160a01b0384163b1561190257604051630a85bd0160e11b81526001600160a01b0385169063150b7a0290611844903390899088908890600401611f47565b602060405180830381600087803b15801561185e57600080fd5b505af192505050801561188e575060408051601f3d908101601f1916820190925261188b91810190611d2c565b60015b6118e8573d8080156118bc576040519150601f19603f3d011682016040523d82523d6000602084013e6118c1565b606091505b5080516118e05760405162461bcd60e51b815260040161067290611ff8565b805181602001fd5b6001600160e01b031916630a85bd0160e11b1490506111b3565b506001949350505050565b82805482825590600052602060002090810192821561195a579160200282015b8281111561195a578251805161194a91849160209091019061196a565b509160200191906001019061192d565b506119669291506119ea565b5090565b828054611976906121c3565b90600052602060002090601f01602090048101928261199857600085556119de565b82601f106119b157805160ff19168380011785556119de565b828001600101855582156119de579182015b828111156119de5782518255916020019190600101906119c3565b50611966929150611a07565b808211156119665760006119fe8282611a1c565b506001016119ea565b5b808211156119665760008155600101611a08565b508054611a28906121c3565b6000825580601f10611a3a5750611a58565b601f016020900490600052602060002090810190611a589190611a07565b50565b600067ffffffffffffffff831115611a7557611a75612259565b611a88601f8401601f19166020016120c9565b9050828152838383011115611a9c57600080fd5b828260208301376000602084830101529392505050565b80356001600160a01b038116811461052c57600080fd5b803560ff8116811461052c57600080fd5b600060208284031215611aec578081fd5b610e3782611ab3565b60008060408385031215611b07578081fd5b611b1083611ab3565b9150611b1e60208401611ab3565b90509250929050565b600080600060608486031215611b3b578081fd5b611b4484611ab3565b9250611b5260208501611ab3565b9150604084013590509250925092565b60008060008060808587031215611b77578081fd5b611b8085611ab3565b9350611b8e60208601611ab3565b925060408501359150606085013567ffffffffffffffff811115611bb0578182fd5b8501601f81018713611bc0578182fd5b611bcf87823560208401611a5b565b91505092959194509250565b60008060408385031215611bed578182fd5b611bf683611ab3565b915060208301358015158114611c0a578182fd5b809150509250929050565b60008060408385031215611c27578182fd5b611c3083611ab3565b946020939093013593505050565b60006020808385031215611c50578182fd5b823567ffffffffffffffff811115611c66578283fd5b8301601f81018513611c76578283fd5b8035611c89611c84826120fa565b6120c9565b80828252848201915084840188868560051b8701011115611ca8578687fd5b8694505b83851015611cca578035835260019490940193918501918501611cac565b50979650505050505050565b600060208284031215611ce7578081fd5b5035919050565b60008060408385031215611d00578182fd5b82359150611b1e60208401611ab3565b600060208284031215611d21578081fd5b8135610e378161226f565b600060208284031215611d3d578081fd5b8151610e378161226f565b6000806040808486031215611d5b578283fd5b8335925060208085013567ffffffffffffffff80821115611d7a578485fd5b9086019060a08289031215611d8d578485fd5b611d9760a06120c9565b823581528383013582811115611dab578687fd5b83019150601f82018913611dbd578586fd5b8135611dcb611c84826120fa565b81815285810190848701895b84811015611e1457813587018e603f820112611df1578b8cfd5b611e018f8b8301358d8401611a5b565b8552509288019290880190600101611dd7565b50508387015250611e289050838601611ab3565b8582015260608301356060820152611e4260808401611aca565b608082015280955050505050509250929050565b60008060408385031215611e68578182fd5b50508035926020909101359150565b60008151808452611e8f816020860160208601612180565b601f01601f19169290920160200192915050565b60008351611eb5818460208801612180565b835190830190611ec9818360208801612180565b01949350505050565b60007f416363657373436f6e74726f6c3a206163636f756e742000000000000000000082528351611f0a816017850160208801612180565b7001034b99036b4b9b9b4b733903937b6329607d1b6017918401918201528351611f3b816028840160208801612180565b01602801949350505050565b6001600160a01b0385811682528416602082015260408101839052608060608201819052600090611f7a90830184611e77565b9695505050505050565b6000602080830181845280855180835260408601915060408160051b8701019250838701855b82811015611fd857603f19888603018452611fc6858351611e77565b94509285019290850190600101611faa565b5092979650505050505050565b600060208252610e376020830184611e77565b60208082526032908201527f4552433732313a207472616e7366657220746f206e6f6e20455243373231526560408201527131b2b4bb32b91034b6b83632b6b2b73a32b960711b606082015260800190565b6020808252601490820152732a32b63632b927232a1d103737ba1030b236b4b760611b604082015260600190565b60208082526031908201527f4552433732313a207472616e736665722063616c6c6572206973206e6f74206f6040820152701ddb995c881b9bdc88185c1c1c9bdd9959607a1b606082015260800190565b604051601f8201601f1916810167ffffffffffffffff811182821017156120f2576120f2612259565b604052919050565b600067ffffffffffffffff82111561211457612114612259565b5060051b60200190565b600082198211156121315761213161222d565b500190565b60008261214557612145612243565b500490565b60008160001904831182151516156121645761216461222d565b500290565b60008282101561217b5761217b61222d565b500390565b60005b8381101561219b578181015183820152602001612183565b83811115610d505750506000910152565b6000816121bb576121bb61222d565b506000190190565b600181811c908216806121d757607f821691505b602082108114156121f857634e487b7160e01b600052602260045260246000fd5b50919050565b60006000198214156122125761221261222d565b5060010190565b60008261222857612228612243565b500690565b634e487b7160e01b600052601160045260246000fd5b634e487b7160e01b600052601260045260246000fd5b634e487b7160e01b600052604160045260246000fd5b6001600160e01b031981168114611a5857600080fdfedf8b4c520ffe197c5343c6f5aec59570151ef9a492f2c624fd45ddde6135ec42a264697066735822122084dfd7d0fb79c523f21884f79ac0ec351168fce550b57bec582f0d6a591c96e264736f6c63430008030033",
  "linkReferences": {},
  "deployedLinkReferences": {}
}