{
  "_format": "hh-sol-artifact-1",
  "contractName": "TellerNFTDictionary",
  "sourceName": "contracts/TellerNftDictionary.sol",
  "abi": [
    {
      "inputs": [],
      "stateMutability": "nonpayable",
      "type": "constructor"
    },
    {
      "anonymous": false,
      "inputs": [
        {
          "indexed": true,
          "internalType": "address",
          "name": "owner",
          "type": "address"
        },
        {
          "indexed": true,
          "internalType": "address",
          "name": "approved",
          "type": "address"
        },
        {
          "indexed": true,
          "internalType": "uint256",
          "name": "tokenId",
          "type": "uint256"
        }
      ],
      "name": "Approval",
      "type": "event"
    },
    {
      "anonymous": false,
      "inputs": [
        {
          "indexed": true,
          "internalType": "address",
          "name": "owner",
          "type": "address"
        },
        {
          "indexed": true,
          "internalType": "address",
          "name": "operator",
          "type": "address"
        },
        {
          "indexed": false,
          "internalType": "bool",
          "name": "approved",
          "type": "bool"
        }
      ],
      "name": "ApprovalForAll",
      "type": "event"
    },
    {
      "anonymous": false,
      "inputs": [
        {
          "indexed": true,
          "internalType": "bytes32",
          "name": "role",
          "type": "bytes32"
        },
        {
          "indexed": true,
          "internalType": "bytes32",
          "name": "previousAdminRole",
          "type": "bytes32"
        },
        {
          "indexed": true,
          "internalType": "bytes32",
          "name": "newAdminRole",
          "type": "bytes32"
        }
      ],
      "name": "RoleAdminChanged",
      "type": "event"
    },
    {
      "anonymous": false,
      "inputs": [
        {
          "indexed": true,
          "internalType": "bytes32",
          "name": "role",
          "type": "bytes32"
        },
        {
          "indexed": true,
          "internalType": "address",
          "name": "account",
          "type": "address"
        },
        {
          "indexed": true,
          "internalType": "address",
          "name": "sender",
          "type": "address"
        }
      ],
      "name": "RoleGranted",
      "type": "event"
    },
    {
      "anonymous": false,
      "inputs": [
        {
          "indexed": true,
          "internalType": "bytes32",
          "name": "role",
          "type": "bytes32"
        },
        {
          "indexed": true,
          "internalType": "address",
          "name": "account",
          "type": "address"
        },
        {
          "indexed": true,
          "internalType": "address",
          "name": "sender",
          "type": "address"
        }
      ],
      "name": "RoleRevoked",
      "type": "event"
    },
    {
      "anonymous": false,
      "inputs": [
        {
          "indexed": true,
          "internalType": "address",
          "name": "from",
          "type": "address"
        },
        {
          "indexed": true,
          "internalType": "address",
          "name": "to",
          "type": "address"
        },
        {
          "indexed": true,
          "internalType": "uint256",
          "name": "tokenId",
          "type": "uint256"
        }
      ],
      "name": "Transfer",
      "type": "event"
    },
    {
      "inputs": [],
      "name": "ADMIN",
      "outputs": [
        {
          "internalType": "bytes32",
          "name": "",
          "type": "bytes32"
        }
      ],
      "stateMutability": "view",
      "type": "function"
    },
    {
      "inputs": [],
      "name": "DEFAULT_ADMIN_ROLE",
      "outputs": [
        {
          "internalType": "bytes32",
          "name": "",
          "type": "bytes32"
        }
      ],
      "stateMutability": "view",
      "type": "function"
    },
    {
      "inputs": [
        {
          "internalType": "uint256",
          "name": "",
          "type": "uint256"
        }
      ],
      "name": "_tokenTierMappingCompressed",
      "outputs": [
        {
          "internalType": "uint256",
          "name": "",
          "type": "uint256"
        }
      ],
      "stateMutability": "view",
      "type": "function"
    },
    {
      "inputs": [
        {
          "internalType": "uint256[]",
          "name": "tiersMapping",
          "type": "uint256[]"
        }
      ],
      "name": "addTokenTierMapping",
      "outputs": [],
      "stateMutability": "nonpayable",
      "type": "function"
    },
    {
      "inputs": [
        {
          "internalType": "address",
          "name": "to",
          "type": "address"
        },
        {
          "internalType": "uint256",
          "name": "tokenId",
          "type": "uint256"
        }
      ],
      "name": "approve",
      "outputs": [],
      "stateMutability": "nonpayable",
      "type": "function"
    },
    {
      "inputs": [
        {
          "internalType": "address",
          "name": "owner",
          "type": "address"
        }
      ],
      "name": "balanceOf",
      "outputs": [
        {
          "internalType": "uint256",
          "name": "",
          "type": "uint256"
        }
      ],
      "stateMutability": "view",
      "type": "function"
    },
    {
      "inputs": [
        {
          "internalType": "uint256",
          "name": "tokenId",
          "type": "uint256"
        }
      ],
      "name": "getApproved",
      "outputs": [
        {
          "internalType": "address",
          "name": "",
          "type": "address"
        }
      ],
      "stateMutability": "view",
      "type": "function"
    },
    {
      "inputs": [
        {
          "internalType": "bytes32",
          "name": "role",
          "type": "bytes32"
        }
      ],
      "name": "getRoleAdmin",
      "outputs": [
        {
          "internalType": "bytes32",
          "name": "",
          "type": "bytes32"
        }
      ],
      "stateMutability": "view",
      "type": "function"
    },
    {
      "inputs": [
        {
          "internalType": "uint256",
          "name": "tierIndex",
          "type": "uint256"
        }
      ],
      "name": "getTierHashes",
      "outputs": [
        {
          "internalType": "string[]",
          "name": "hashes_",
          "type": "string[]"
        }
      ],
      "stateMutability": "view",
      "type": "function"
    },
    {
      "inputs": [
        {
          "internalType": "uint256",
          "name": "tokenId",
          "type": "uint256"
        }
      ],
      "name": "getTokenTierIndex",
      "outputs": [
        {
          "internalType": "uint8",
          "name": "index_",
          "type": "uint8"
        }
      ],
      "stateMutability": "view",
      "type": "function"
    },
    {
      "inputs": [
        {
          "internalType": "bytes32",
          "name": "role",
          "type": "bytes32"
        },
        {
          "internalType": "address",
          "name": "account",
          "type": "address"
        }
      ],
      "name": "grantRole",
      "outputs": [],
      "stateMutability": "nonpayable",
      "type": "function"
    },
    {
      "inputs": [
        {
          "internalType": "bytes32",
          "name": "role",
          "type": "bytes32"
        },
        {
          "internalType": "address",
          "name": "account",
          "type": "address"
        }
      ],
      "name": "hasRole",
      "outputs": [
        {
          "internalType": "bool",
          "name": "",
          "type": "bool"
        }
      ],
      "stateMutability": "view",
      "type": "function"
    },
    {
      "inputs": [
        {
          "internalType": "address",
          "name": "owner",
          "type": "address"
        },
        {
          "internalType": "address",
          "name": "operator",
          "type": "address"
        }
      ],
      "name": "isApprovedForAll",
      "outputs": [
        {
          "internalType": "bool",
          "name": "",
          "type": "bool"
        }
      ],
      "stateMutability": "view",
      "type": "function"
    },
    {
      "inputs": [],
      "name": "name",
      "outputs": [
        {
          "internalType": "string",
          "name": "",
          "type": "string"
        }
      ],
      "stateMutability": "view",
      "type": "function"
    },
    {
      "inputs": [
        {
          "internalType": "uint256",
          "name": "tokenId",
          "type": "uint256"
        }
      ],
      "name": "ownerOf",
      "outputs": [
        {
          "internalType": "address",
          "name": "",
          "type": "address"
        }
      ],
      "stateMutability": "view",
      "type": "function"
    },
    {
      "inputs": [
        {
          "internalType": "bytes32",
          "name": "role",
          "type": "bytes32"
        },
        {
          "internalType": "address",
          "name": "account",
          "type": "address"
        }
      ],
      "name": "renounceRole",
      "outputs": [],
      "stateMutability": "nonpayable",
      "type": "function"
    },
    {
      "inputs": [
        {
          "internalType": "bytes32",
          "name": "role",
          "type": "bytes32"
        },
        {
          "internalType": "address",
          "name": "account",
          "type": "address"
        }
      ],
      "name": "revokeRole",
      "outputs": [],
      "stateMutability": "nonpayable",
      "type": "function"
    },
    {
      "inputs": [
        {
          "internalType": "address",
          "name": "from",
          "type": "address"
        },
        {
          "internalType": "address",
          "name": "to",
          "type": "address"
        },
        {
          "internalType": "uint256",
          "name": "tokenId",
          "type": "uint256"
        }
      ],
      "name": "safeTransferFrom",
      "outputs": [],
      "stateMutability": "nonpayable",
      "type": "function"
    },
    {
      "inputs": [
        {
          "internalType": "address",
          "name": "from",
          "type": "address"
        },
        {
          "internalType": "address",
          "name": "to",
          "type": "address"
        },
        {
          "internalType": "uint256",
          "name": "tokenId",
          "type": "uint256"
        },
        {
          "internalType": "bytes",
          "name": "_data",
          "type": "bytes"
        }
      ],
      "name": "safeTransferFrom",
      "outputs": [],
      "stateMutability": "nonpayable",
      "type": "function"
    },
    {
      "inputs": [
        {
          "internalType": "address",
          "name": "operator",
          "type": "address"
        },
        {
          "internalType": "bool",
          "name": "approved",
          "type": "bool"
        }
      ],
      "name": "setApprovalForAll",
      "outputs": [],
      "stateMutability": "nonpayable",
      "type": "function"
    },
    {
      "inputs": [
        {
          "internalType": "uint256",
          "name": "index",
          "type": "uint256"
        },
        {
          "components": [
            {
              "internalType": "uint256",
              "name": "baseLoanSize",
              "type": "uint256"
            },
            {
              "internalType": "string[]",
              "name": "hashes",
              "type": "string[]"
            },
            {
              "internalType": "address",
              "name": "contributionAsset",
              "type": "address"
            },
            {
              "internalType": "uint256",
              "name": "contributionSize",
              "type": "uint256"
            },
            {
              "internalType": "uint8",
              "name": "contributionMultiplier",
              "type": "uint8"
            }
          ],
          "internalType": "struct TellerNFTDictionary.Tier",
          "name": "newTier",
          "type": "tuple"
        }
      ],
      "name": "setTier",
      "outputs": [],
      "stateMutability": "nonpayable",
      "type": "function"
    },
    {
      "inputs": [],
      "name": "stakeableTokenType",
      "outputs": [
        {
          "internalType": "bytes32",
          "name": "",
          "type": "bytes32"
        }
      ],
      "stateMutability": "view",
      "type": "function"
    },
    {
      "inputs": [
        {
          "internalType": "bytes4",
          "name": "interfaceId",
          "type": "bytes4"
        }
      ],
      "name": "supportsInterface",
      "outputs": [
        {
          "internalType": "bool",
          "name": "",
          "type": "bool"
        }
      ],
      "stateMutability": "view",
      "type": "function"
    },
    {
      "inputs": [],
      "name": "symbol",
      "outputs": [
        {
          "internalType": "string",
          "name": "",
          "type": "string"
        }
      ],
      "stateMutability": "view",
      "type": "function"
    },
    {
      "inputs": [
        {
          "internalType": "uint256",
          "name": "tokenId",
          "type": "uint256"
        }
      ],
      "name": "tokenBaseLoanSize",
      "outputs": [
        {
          "internalType": "uint256",
          "name": "",
          "type": "uint256"
        }
      ],
      "stateMutability": "view",
      "type": "function"
    },
    {
      "inputs": [
        {
          "internalType": "uint256",
          "name": "tokenId",
          "type": "uint256"
        }
      ],
      "name": "tokenContributionAsset",
      "outputs": [
        {
          "internalType": "address",
          "name": "",
          "type": "address"
        }
      ],
      "stateMutability": "view",
      "type": "function"
    },
    {
      "inputs": [
        {
          "internalType": "uint256",
          "name": "tokenId",
          "type": "uint256"
        }
      ],
      "name": "tokenContributionMultiplier",
      "outputs": [
        {
          "internalType": "uint256",
          "name": "",
          "type": "uint256"
        }
      ],
      "stateMutability": "view",
      "type": "function"
    },
    {
      "inputs": [
        {
          "internalType": "uint256",
          "name": "tokenId",
          "type": "uint256"
        }
      ],
      "name": "tokenContributionSize",
      "outputs": [
        {
          "internalType": "uint256",
          "name": "",
          "type": "uint256"
        }
      ],
      "stateMutability": "view",
      "type": "function"
    },
    {
      "inputs": [
        {
          "internalType": "uint256",
          "name": "tokenId",
          "type": "uint256"
        }
      ],
      "name": "tokenURI",
      "outputs": [
        {
          "internalType": "string",
          "name": "",
          "type": "string"
        }
      ],
      "stateMutability": "view",
      "type": "function"
    },
    {
      "inputs": [
        {
          "internalType": "uint256",
          "name": "tokenId",
          "type": "uint256"
        }
      ],
      "name": "tokenURIHash",
      "outputs": [
        {
          "internalType": "string",
          "name": "",
          "type": "string"
        }
      ],
      "stateMutability": "view",
      "type": "function"
    },
    {
      "inputs": [
        {
          "internalType": "address",
          "name": "from",
          "type": "address"
        },
        {
          "internalType": "address",
          "name": "to",
          "type": "address"
        },
        {
          "internalType": "uint256",
          "name": "tokenId",
          "type": "uint256"
        }
      ],
      "name": "transferFrom",
      "outputs": [],
      "stateMutability": "nonpayable",
      "type": "function"
    }
  ],
  "bytecode": "0x60806040523480156200001157600080fd5b506200003e7fdf8b4c520ffe197c5343c6f5aec59570151ef9a492f2c624fd45ddde6135ec423362000044565b620000f8565b62000050828262000054565b5050565b60008281526097602090815260408083206001600160a01b038516845290915290205460ff16620000505760008281526097602090815260408083206001600160a01b03851684529091529020805460ff19166001179055620000b43390565b6001600160a01b0316816001600160a01b0316837f2f8788117e7eff1d82e926ec794901d17c78024a50270940304540a733656f0d60405160405180910390a45050565b6122bf80620001086000396000f3fe608060405234801561001057600080fd5b50600436106101e45760003560e01c80636352211e1161010f578063b88d4fde116100a2578063d300133911610071578063d300133914610476578063d547741f14610489578063e985e9c51461049c578063f40898ef146104d8576101e4565b8063b88d4fde14610410578063c5d6bbaa14610423578063c87b56dd14610443578063cbee53a314610456576101e4565b8063a16eae31116100de578063a16eae31146103bd578063a217fddf146103e2578063a22cb465146103ea578063a52645f8146103fd576101e4565b80636352211e1461037c57806370a082311461038f57806391d14854146103a257806395d89b41146103b5576101e4565b806324db57f81161018757806342842e0e1161015657806342842e0e1461031d57806346765a571461033057806347534ec91461034357806362a5723314610369576101e4565b806324db57f8146102bd5780632a0acc6a146102d05780632f2ff15d146102f757806336568abe1461030a576101e4565b8063081812fc116101c3578063081812fc14610247578063095ea7b31461027257806323b872dd14610287578063248a9ca31461029a576101e4565b806284c795146101e957806301ffc9a71461020f57806306fdde0314610232575b600080fd5b6101fc6101f7366004611d29565b6104eb565b6040519081526020015b60405180910390f35b61022261021d366004611d63565b610512565b6040519015158152602001610206565b61023a61054c565b6040516102069190612017565b61025a610255366004611d29565b6105de565b6040516001600160a01b039091168152602001610206565b610285610280366004611c68565b610678565b005b610285610295366004611b7a565b61078e565b6101fc6102a8366004611d29565b60009081526097602052604090206001015490565b6101fc6102cb366004611d29565b6107bf565b6101fc7fdf8b4c520ffe197c5343c6f5aec59570151ef9a492f2c624fd45ddde6135ec4281565b610285610305366004611d41565b6107e4565b610285610318366004611d41565b61080b565b61028561032b366004611b7a565b610889565b61028561033e366004611d9b565b6108a4565b7f2213d707f04cdfd263a540394e2a26bbf3a63d6ad89a37f534d2ee35bdfe0d386101fc565b6101fc610377366004611d29565b6109a8565b61025a61038a366004611d29565b6109d0565b6101fc61039d366004611b2e565b610a47565b6102226103b0366004611d41565b610ace565b61023a610af9565b6103d06103cb366004611d29565b610b08565b60405160ff9091168152602001610206565b6101fc600081565b6102856103f8366004611c2e565b610b4e565b61028561040b366004611c91565b610c20565b61028561041e366004611bb5565b610ce8565b6101fc610431366004611d29565b60ce6020526000908152604090205481565b61023a610451366004611d29565b610d20565b610469610464366004611d29565b610e08565b6040516102069190611fb6565b61023a610484366004611d29565b610ef4565b610285610497366004611d41565b610fe0565b6102226104aa366004611b48565b6001600160a01b039182166000908152606a6020908152604080832093909416825291909152205460ff1690565b61025a6104e6366004611d29565b611006565b6000806104f783610b08565b60ff16600090815260cc60205260409020549150505b919050565b60006001600160e01b031982166326a1274160e01b1480610537575061053782611034565b80610546575061054682611084565b92915050565b60606065805461055b906121c7565b80601f0160208091040260200160405190810160405280929190818152602001828054610587906121c7565b80156105d45780601f106105a9576101008083540402835291602001916105d4565b820191906000526020600020905b8154815290600101906020018083116105b757829003601f168201915b5050505050905090565b6000818152606760205260408120546001600160a01b031661065c5760405162461bcd60e51b815260206004820152602c60248201527f4552433732313a20617070726f76656420717565727920666f72206e6f6e657860448201526b34b9ba32b73a103a37b5b2b760a11b60648201526084015b60405180910390fd5b506000908152606960205260409020546001600160a01b031690565b6000610683826109d0565b9050806001600160a01b0316836001600160a01b031614156106f15760405162461bcd60e51b815260206004820152602160248201527f4552433732313a20617070726f76616c20746f2063757272656e74206f776e656044820152603960f91b6064820152608401610653565b336001600160a01b038216148061070d575061070d81336104aa565b61077f5760405162461bcd60e51b815260206004820152603860248201527f4552433732313a20617070726f76652063616c6c6572206973206e6f74206f7760448201527f6e6572206e6f7220617070726f76656420666f7220616c6c00000000000000006064820152608401610653565b61078983836110a9565b505050565b6107983382611117565b6107b45760405162461bcd60e51b81526004016106539061207c565b61078983838361120e565b6000806107cb83610b08565b60ff16600090815260c960205260409020549392505050565b60008281526097602052604090206001015461080181335b6113ae565b6107898383611412565b6001600160a01b038116331461087b5760405162461bcd60e51b815260206004820152602f60248201527f416363657373436f6e74726f6c3a2063616e206f6e6c792072656e6f756e636560448201526e103937b632b9903337b91039b2b63360891b6064820152608401610653565b6108858282611498565b5050565b61078983838360405180602001604052806000815250610ce8565b6108ce7fdf8b4c520ffe197c5343c6f5aec59570151ef9a492f2c624fd45ddde6135ec42336103b0565b6109115760405162461bcd60e51b81526020600482015260146024820152732a32b63632b927232a1d103737ba1030b236b4b760611b6044820152606401610653565b8051600083815260c960209081526040808320939093558084015160ca82529290912082516109469391929190910190611960565b50604081810151600093845260cb602090815282852080546001600160a01b0319166001600160a01b0390931692909217909155606083015160cc82528285205560809092015160cd909252909120805460ff191660ff909216919091179055565b6000806109b483610b08565b60ff908116600090815260cd6020526040902054169392505050565b6000818152606760205260408120546001600160a01b0316806105465760405162461bcd60e51b815260206004820152602960248201527f4552433732313a206f776e657220717565727920666f72206e6f6e657869737460448201526832b73a103a37b5b2b760b91b6064820152608401610653565b60006001600160a01b038216610ab25760405162461bcd60e51b815260206004820152602a60248201527f4552433732313a2062616c616e636520717565727920666f7220746865207a65604482015269726f206164647265737360b01b6064820152608401610653565b506001600160a01b031660009081526068602052604090205490565b60009182526097602090815260408084206001600160a01b0393909316845291905290205460ff1690565b60606066805461055b906121c7565b600080610b168360206114ff565b600081815260ce60209081526040822054929350610b4290600890610b3c90889061150b565b90611517565b9190911b949350505050565b6001600160a01b038216331415610ba75760405162461bcd60e51b815260206004820152601960248201527f4552433732313a20617070726f766520746f2063616c6c6572000000000000006044820152606401610653565b336000818152606a602090815260408083206001600160a01b0387168085529252909120805460ff1916841515179055906001600160a01b03167f17307eab39ab6107e8899845ad3d59bd9653f200f220920489ca2b5937696c3183604051610c14911515815260200190565b60405180910390a35050565b610c4a7fdf8b4c520ffe197c5343c6f5aec59570151ef9a492f2c624fd45ddde6135ec42336103b0565b610c8d5760405162461bcd60e51b81526020600482015260146024820152732a32b63632b927232a1d103737ba1030b236b4b760611b6044820152606401610653565b80600081518110610cae57634e487b7160e01b600052603260045260246000fd5b6020908102919091018101516000805260ce9091527fd3f5862f6f80175da7514904f3a889cc3cc8c4f3af5129e28cdeaee2baa6efc45550565b610cf23383611117565b610d0e5760405162461bcd60e51b81526004016106539061207c565b610d1a84848484611523565b50505050565b6000818152606760205260409020546060906001600160a01b0316610d9f5760405162461bcd60e51b815260206004820152602f60248201527f4552433732314d657461646174613a2055524920717565727920666f72206e6f60448201526e3732bc34b9ba32b73a103a37b5b2b760891b6064820152608401610653565b6000610db660408051602081019091526000815290565b90506000815111610dd65760405180602001604052806000815250610e01565b80610de084611556565b604051602001610df1929190611ed5565b6040516020818303038152906040525b9392505050565b606060ca6000838152602001908152602001600020805480602002602001604051908101604052809291908181526020016000905b82821015610ee9578382906000526020600020018054610e5c906121c7565b80601f0160208091040260200160405190810160405280929190818152602001828054610e88906121c7565b8015610ed55780601f10610eaa57610100808354040283529160200191610ed5565b820191906000526020600020905b815481529060010190602001808311610eb857829003601f168201915b505050505081526020019060010190610e3d565b505050509050919050565b60606000610f0183610b08565b60ff8116600090815260ca602052604090208054919250908190610f2690869061150b565b81548110610f4457634e487b7160e01b600052603260045260246000fd5b906000526020600020018054610f59906121c7565b80601f0160208091040260200160405190810160405280929190818152602001828054610f85906121c7565b8015610fd25780601f10610fa757610100808354040283529160200191610fd2565b820191906000526020600020905b815481529060010190602001808311610fb557829003601f168201915b505050505092505050919050565b600082815260976020526040902060010154610ffc81336107fc565b6107898383611498565b60008061101283610b08565b60ff16600090815260cb60205260409020546001600160a01b03169392505050565b60006001600160e01b031982166380ac58cd60e01b148061106557506001600160e01b03198216635b5e139f60e01b145b8061054657506301ffc9a760e01b6001600160e01b0319831614610546565b60006001600160e01b03198216637965db0b60e01b1480610546575061054682611034565b600081815260696020526040902080546001600160a01b0319166001600160a01b03841690811790915581906110de826109d0565b6001600160a01b03167f8c5be1e5ebec7d5bd14f71427d1e84f3dd0314c0f7b2291e5b200ac8c7c3b92560405160405180910390a45050565b6000818152606760205260408120546001600160a01b03166111905760405162461bcd60e51b815260206004820152602c60248201527f4552433732313a206f70657261746f7220717565727920666f72206e6f6e657860448201526b34b9ba32b73a103a37b5b2b760a11b6064820152608401610653565b600061119b836109d0565b9050806001600160a01b0316846001600160a01b031614806111d65750836001600160a01b03166111cb846105de565b6001600160a01b0316145b8061120657506001600160a01b038082166000908152606a602090815260408083209388168352929052205460ff165b949350505050565b826001600160a01b0316611221826109d0565b6001600160a01b0316146112895760405162461bcd60e51b815260206004820152602960248201527f4552433732313a207472616e73666572206f6620746f6b656e2074686174206960448201526839903737ba1037bbb760b91b6064820152608401610653565b6001600160a01b0382166112eb5760405162461bcd60e51b8152602060048201526024808201527f4552433732313a207472616e7366657220746f20746865207a65726f206164646044820152637265737360e01b6064820152608401610653565b6112f66000826110a9565b6001600160a01b038316600090815260686020526040812080546001929061131f90849061216d565b90915550506001600160a01b038216600090815260686020526040812080546001929061134d908490612122565b909155505060008181526067602052604080822080546001600160a01b0319166001600160a01b0386811691821790925591518493918716917fddf252ad1be2c89b69c2b068fc378daa952ba7f163c4a11628f55a4df523b3ef91a4505050565b6113b88282610ace565b610885576113d0816001600160a01b03166014611671565b6113db836020611671565b6040516020016113ec929190611f04565b60408051601f198184030181529082905262461bcd60e51b825261065391600401612017565b61141c8282610ace565b6108855760008281526097602090815260408083206001600160a01b03851684529091529020805460ff191660011790556114543390565b6001600160a01b0316816001600160a01b0316837f2f8788117e7eff1d82e926ec794901d17c78024a50270940304540a733656f0d60405160405180910390a45050565b6114a28282610ace565b156108855760008281526097602090815260408083206001600160a01b0385168085529252808320805460ff1916905551339285917ff6391f5c32d9c69d2a47ea670b442974b53935d1edc7fd64eb21e047a839171b9190a45050565b6000610e01828461213a565b6000610e01828461221d565b6000610e01828461214e565b61152e84848461120e565b61153a84848484611853565b610d1a5760405162461bcd60e51b81526004016106539061202a565b60608161157b57506040805180820190915260018152600360fc1b602082015261050d565b8160005b81156115a5578061158f81612202565b915061159e9050600a8361213a565b915061157f565b60008167ffffffffffffffff8111156115ce57634e487b7160e01b600052604160045260246000fd5b6040519080825280601f01601f1916602001820160405280156115f8576020820181803683370190505b5090505b84156112065761160d60018361216d565b915061161a600a8661221d565b611625906030612122565b60f81b81838151811061164857634e487b7160e01b600052603260045260246000fd5b60200101906001600160f81b031916908160001a90535061166a600a8661213a565b94506115fc565b6060600061168083600261214e565b61168b906002612122565b67ffffffffffffffff8111156116b157634e487b7160e01b600052604160045260246000fd5b6040519080825280601f01601f1916602001820160405280156116db576020820181803683370190505b509050600360fc1b8160008151811061170457634e487b7160e01b600052603260045260246000fd5b60200101906001600160f81b031916908160001a905350600f60fb1b8160018151811061174157634e487b7160e01b600052603260045260246000fd5b60200101906001600160f81b031916908160001a905350600061176584600261214e565b611770906001612122565b90505b6001811115611804576f181899199a1a9b1b9c1cb0b131b232b360811b85600f16601081106117b257634e487b7160e01b600052603260045260246000fd5b1a60f81b8282815181106117d657634e487b7160e01b600052603260045260246000fd5b60200101906001600160f81b031916908160001a90535060049490941c936117fd816121b0565b9050611773565b508315610e015760405162461bcd60e51b815260206004820181905260248201527f537472696e67733a20686578206c656e67746820696e73756666696369656e746044820152606401610653565b60006001600160a01b0384163b1561195557604051630a85bd0160e11b81526001600160a01b0385169063150b7a0290611897903390899088908890600401611f79565b602060405180830381600087803b1580156118b157600080fd5b505af19250505080156118e1575060408051601f3d908101601f191682019092526118de91810190611d7f565b60015b61193b573d80801561190f576040519150601f19603f3d011682016040523d82523d6000602084013e611914565b606091505b5080516119335760405162461bcd60e51b81526004016106539061202a565b805181602001fd5b6001600160e01b031916630a85bd0160e11b149050611206565b506001949350505050565b8280548282559060005260206000209081019282156119ad579160200282015b828111156119ad578251805161199d9184916020909101906119bd565b5091602001919060010190611980565b506119b9929150611a3d565b5090565b8280546119c9906121c7565b90600052602060002090601f0160209004810192826119eb5760008555611a31565b82601f10611a0457805160ff1916838001178555611a31565b82800160010185558215611a31579182015b82811115611a31578251825591602001919060010190611a16565b506119b9929150611a5a565b808211156119b9576000611a518282611a6f565b50600101611a3d565b5b808211156119b95760008155600101611a5b565b508054611a7b906121c7565b6000825580601f10611a8d5750611aab565b601f016020900490600052602060002090810190611aab9190611a5a565b50565b600067ffffffffffffffff831115611ac857611ac861225d565b611adb601f8401601f19166020016120cd565b9050828152838383011115611aef57600080fd5b828260208301376000602084830101529392505050565b80356001600160a01b038116811461050d57600080fd5b803560ff8116811461050d57600080fd5b600060208284031215611b3f578081fd5b610e0182611b06565b60008060408385031215611b5a578081fd5b611b6383611b06565b9150611b7160208401611b06565b90509250929050565b600080600060608486031215611b8e578081fd5b611b9784611b06565b9250611ba560208501611b06565b9150604084013590509250925092565b60008060008060808587031215611bca578081fd5b611bd385611b06565b9350611be160208601611b06565b925060408501359150606085013567ffffffffffffffff811115611c03578182fd5b8501601f81018713611c13578182fd5b611c2287823560208401611aae565b91505092959194509250565b60008060408385031215611c40578182fd5b611c4983611b06565b915060208301358015158114611c5d578182fd5b809150509250929050565b60008060408385031215611c7a578182fd5b611c8383611b06565b946020939093013593505050565b60006020808385031215611ca3578182fd5b823567ffffffffffffffff811115611cb9578283fd5b8301601f81018513611cc9578283fd5b8035611cdc611cd7826120fe565b6120cd565b80828252848201915084840188868560051b8701011115611cfb578687fd5b8694505b83851015611d1d578035835260019490940193918501918501611cff565b50979650505050505050565b600060208284031215611d3a578081fd5b5035919050565b60008060408385031215611d53578182fd5b82359150611b7160208401611b06565b600060208284031215611d74578081fd5b8135610e0181612273565b600060208284031215611d90578081fd5b8151610e0181612273565b6000806040808486031215611dae578283fd5b8335925060208085013567ffffffffffffffff80821115611dcd578485fd5b9086019060a08289031215611de0578485fd5b611dea60a06120cd565b823581528383013582811115611dfe578687fd5b83019150601f82018913611e10578586fd5b8135611e1e611cd7826120fe565b81815285810190848701895b84811015611e6757813587018e603f820112611e44578b8cfd5b611e548f8b8301358d8401611aae565b8552509288019290880190600101611e2a565b50508387015250611e7b9050838601611b06565b8582015260608301356060820152611e9560808401611b1d565b608082015280955050505050509250929050565b60008151808452611ec1816020860160208601612184565b601f01601f19169290920160200192915050565b60008351611ee7818460208801612184565b835190830190611efb818360208801612184565b01949350505050565b60007f416363657373436f6e74726f6c3a206163636f756e742000000000000000000082528351611f3c816017850160208801612184565b7001034b99036b4b9b9b4b733903937b6329607d1b6017918401918201528351611f6d816028840160208801612184565b01602801949350505050565b6001600160a01b0385811682528416602082015260408101839052608060608201819052600090611fac90830184611ea9565b9695505050505050565b6000602080830181845280855180835260408601915060408160051b8701019250838701855b8281101561200a57603f19888603018452611ff8858351611ea9565b94509285019290850190600101611fdc565b5092979650505050505050565b600060208252610e016020830184611ea9565b60208082526032908201527f4552433732313a207472616e7366657220746f206e6f6e20455243373231526560408201527131b2b4bb32b91034b6b83632b6b2b73a32b960711b606082015260800190565b60208082526031908201527f4552433732313a207472616e736665722063616c6c6572206973206e6f74206f6040820152701ddb995c881b9bdc88185c1c1c9bdd9959607a1b606082015260800190565b604051601f8201601f1916810167ffffffffffffffff811182821017156120f6576120f661225d565b604052919050565b600067ffffffffffffffff8211156121185761211861225d565b5060051b60200190565b6000821982111561213557612135612231565b500190565b60008261214957612149612247565b500490565b600081600019048311821515161561216857612168612231565b500290565b60008282101561217f5761217f612231565b500390565b60005b8381101561219f578181015183820152602001612187565b83811115610d1a5750506000910152565b6000816121bf576121bf612231565b506000190190565b600181811c908216806121db57607f821691505b602082108114156121fc57634e487b7160e01b600052602260045260246000fd5b50919050565b600060001982141561221657612216612231565b5060010190565b60008261222c5761222c612247565b500690565b634e487b7160e01b600052601160045260246000fd5b634e487b7160e01b600052601260045260246000fd5b634e487b7160e01b600052604160045260246000fd5b6001600160e01b031981168114611aab57600080fdfea2646970667358221220631f0335fd364ab513f8ab5d491220cdbefe258ebbbc83e28e8cd50015503e0464736f6c63430008030033",
  "linkReferences": {},
  "deployedLinkReferences": {}
}