{
  "_format": "hh-sol-artifact-1",
  "contractName": "TellerNFTDictionary",
  "sourceName": "contracts/TellerNftDictionary.sol",
  "abi": [
    {
      "inputs": [
        {
          "internalType": "address",
          "name": "_adminAddress",
          "type": "address"
        },
        {
          "internalType": "uint256[]",
          "name": "tiersMapping",
          "type": "uint256[]"
        }
      ],
      "stateMutability": "nonpayable",
      "type": "constructor"
    },
    {
      "anonymous": false,
      "inputs": [
        {
          "indexed": true,
          "internalType": "address",
          "name": "owner",
          "type": "address"
        },
        {
          "indexed": true,
          "internalType": "address",
          "name": "approved",
          "type": "address"
        },
        {
          "indexed": true,
          "internalType": "uint256",
          "name": "tokenId",
          "type": "uint256"
        }
      ],
      "name": "Approval",
      "type": "event"
    },
    {
      "anonymous": false,
      "inputs": [
        {
          "indexed": true,
          "internalType": "address",
          "name": "owner",
          "type": "address"
        },
        {
          "indexed": true,
          "internalType": "address",
          "name": "operator",
          "type": "address"
        },
        {
          "indexed": false,
          "internalType": "bool",
          "name": "approved",
          "type": "bool"
        }
      ],
      "name": "ApprovalForAll",
      "type": "event"
    },
    {
      "anonymous": false,
      "inputs": [
        {
          "indexed": true,
          "internalType": "bytes32",
          "name": "role",
          "type": "bytes32"
        },
        {
          "indexed": true,
          "internalType": "bytes32",
          "name": "previousAdminRole",
          "type": "bytes32"
        },
        {
          "indexed": true,
          "internalType": "bytes32",
          "name": "newAdminRole",
          "type": "bytes32"
        }
      ],
      "name": "RoleAdminChanged",
      "type": "event"
    },
    {
      "anonymous": false,
      "inputs": [
        {
          "indexed": true,
          "internalType": "bytes32",
          "name": "role",
          "type": "bytes32"
        },
        {
          "indexed": true,
          "internalType": "address",
          "name": "account",
          "type": "address"
        },
        {
          "indexed": true,
          "internalType": "address",
          "name": "sender",
          "type": "address"
        }
      ],
      "name": "RoleGranted",
      "type": "event"
    },
    {
      "anonymous": false,
      "inputs": [
        {
          "indexed": true,
          "internalType": "bytes32",
          "name": "role",
          "type": "bytes32"
        },
        {
          "indexed": true,
          "internalType": "address",
          "name": "account",
          "type": "address"
        },
        {
          "indexed": true,
          "internalType": "address",
          "name": "sender",
          "type": "address"
        }
      ],
      "name": "RoleRevoked",
      "type": "event"
    },
    {
      "anonymous": false,
      "inputs": [
        {
          "indexed": true,
          "internalType": "address",
          "name": "from",
          "type": "address"
        },
        {
          "indexed": true,
          "internalType": "address",
          "name": "to",
          "type": "address"
        },
        {
          "indexed": true,
          "internalType": "uint256",
          "name": "tokenId",
          "type": "uint256"
        }
      ],
      "name": "Transfer",
      "type": "event"
    },
    {
      "inputs": [],
      "name": "ADMIN",
      "outputs": [
        {
          "internalType": "bytes32",
          "name": "",
          "type": "bytes32"
        }
      ],
      "stateMutability": "view",
      "type": "function"
    },
    {
      "inputs": [],
      "name": "DEFAULT_ADMIN_ROLE",
      "outputs": [
        {
          "internalType": "bytes32",
          "name": "",
          "type": "bytes32"
        }
      ],
      "stateMutability": "view",
      "type": "function"
    },
    {
      "inputs": [
        {
          "internalType": "uint256",
          "name": "",
          "type": "uint256"
        }
      ],
      "name": "_tokenTierMappingCompressed",
      "outputs": [
        {
          "internalType": "uint256",
          "name": "",
          "type": "uint256"
        }
      ],
      "stateMutability": "view",
      "type": "function"
    },
    {
      "inputs": [
        {
          "internalType": "address",
          "name": "to",
          "type": "address"
        },
        {
          "internalType": "uint256",
          "name": "tokenId",
          "type": "uint256"
        }
      ],
      "name": "approve",
      "outputs": [],
      "stateMutability": "nonpayable",
      "type": "function"
    },
    {
      "inputs": [
        {
          "internalType": "address",
          "name": "owner",
          "type": "address"
        }
      ],
      "name": "balanceOf",
      "outputs": [
        {
          "internalType": "uint256",
          "name": "",
          "type": "uint256"
        }
      ],
      "stateMutability": "view",
      "type": "function"
    },
    {
      "inputs": [],
      "name": "bitshiftTesting",
      "outputs": [
        {
          "internalType": "uint8",
          "name": "",
          "type": "uint8"
        }
      ],
      "stateMutability": "view",
      "type": "function"
    },
    {
      "inputs": [
        {
          "internalType": "uint256",
          "name": "tokenId",
          "type": "uint256"
        }
      ],
      "name": "getApproved",
      "outputs": [
        {
          "internalType": "address",
          "name": "",
          "type": "address"
        }
      ],
      "stateMutability": "view",
      "type": "function"
    },
    {
      "inputs": [
        {
          "internalType": "bytes32",
          "name": "role",
          "type": "bytes32"
        }
      ],
      "name": "getRoleAdmin",
      "outputs": [
        {
          "internalType": "bytes32",
          "name": "",
          "type": "bytes32"
        }
      ],
      "stateMutability": "view",
      "type": "function"
    },
    {
      "inputs": [
        {
          "internalType": "uint256",
          "name": "tierIndex",
          "type": "uint256"
        }
      ],
      "name": "getTierHashes",
      "outputs": [
        {
          "internalType": "string[]",
          "name": "hashes_",
          "type": "string[]"
        }
      ],
      "stateMutability": "view",
      "type": "function"
    },
    {
      "inputs": [
        {
          "internalType": "uint256",
          "name": "tokenId",
          "type": "uint256"
        }
      ],
      "name": "getTokenTierIndex",
      "outputs": [
        {
          "internalType": "uint8",
          "name": "index_",
          "type": "uint8"
        }
      ],
      "stateMutability": "view",
      "type": "function"
    },
    {
      "inputs": [
        {
          "internalType": "bytes32",
          "name": "role",
          "type": "bytes32"
        },
        {
          "internalType": "address",
          "name": "account",
          "type": "address"
        }
      ],
      "name": "grantRole",
      "outputs": [],
      "stateMutability": "nonpayable",
      "type": "function"
    },
    {
      "inputs": [
        {
          "internalType": "bytes32",
          "name": "role",
          "type": "bytes32"
        },
        {
          "internalType": "address",
          "name": "account",
          "type": "address"
        }
      ],
      "name": "hasRole",
      "outputs": [
        {
          "internalType": "bool",
          "name": "",
          "type": "bool"
        }
      ],
      "stateMutability": "view",
      "type": "function"
    },
    {
      "inputs": [
        {
          "internalType": "address",
          "name": "owner",
          "type": "address"
        },
        {
          "internalType": "address",
          "name": "operator",
          "type": "address"
        }
      ],
      "name": "isApprovedForAll",
      "outputs": [
        {
          "internalType": "bool",
          "name": "",
          "type": "bool"
        }
      ],
      "stateMutability": "view",
      "type": "function"
    },
    {
      "inputs": [],
      "name": "name",
      "outputs": [
        {
          "internalType": "string",
          "name": "",
          "type": "string"
        }
      ],
      "stateMutability": "view",
      "type": "function"
    },
    {
      "inputs": [
        {
          "internalType": "uint256",
          "name": "tokenId",
          "type": "uint256"
        }
      ],
      "name": "ownerOf",
      "outputs": [
        {
          "internalType": "address",
          "name": "",
          "type": "address"
        }
      ],
      "stateMutability": "view",
      "type": "function"
    },
    {
      "inputs": [
        {
          "internalType": "bytes32",
          "name": "role",
          "type": "bytes32"
        },
        {
          "internalType": "address",
          "name": "account",
          "type": "address"
        }
      ],
      "name": "renounceRole",
      "outputs": [],
      "stateMutability": "nonpayable",
      "type": "function"
    },
    {
      "inputs": [
        {
          "internalType": "bytes32",
          "name": "role",
          "type": "bytes32"
        },
        {
          "internalType": "address",
          "name": "account",
          "type": "address"
        }
      ],
      "name": "revokeRole",
      "outputs": [],
      "stateMutability": "nonpayable",
      "type": "function"
    },
    {
      "inputs": [
        {
          "internalType": "address",
          "name": "from",
          "type": "address"
        },
        {
          "internalType": "address",
          "name": "to",
          "type": "address"
        },
        {
          "internalType": "uint256",
          "name": "tokenId",
          "type": "uint256"
        }
      ],
      "name": "safeTransferFrom",
      "outputs": [],
      "stateMutability": "nonpayable",
      "type": "function"
    },
    {
      "inputs": [
        {
          "internalType": "address",
          "name": "from",
          "type": "address"
        },
        {
          "internalType": "address",
          "name": "to",
          "type": "address"
        },
        {
          "internalType": "uint256",
          "name": "tokenId",
          "type": "uint256"
        },
        {
          "internalType": "bytes",
          "name": "_data",
          "type": "bytes"
        }
      ],
      "name": "safeTransferFrom",
      "outputs": [],
      "stateMutability": "nonpayable",
      "type": "function"
    },
    {
      "inputs": [
        {
          "internalType": "uint256[]",
          "name": "tiersMapping",
          "type": "uint256[]"
        }
      ],
      "name": "setAllTokenTierMappings",
      "outputs": [],
      "stateMutability": "nonpayable",
      "type": "function"
    },
    {
      "inputs": [
        {
          "internalType": "address",
          "name": "operator",
          "type": "address"
        },
        {
          "internalType": "bool",
          "name": "approved",
          "type": "bool"
        }
      ],
      "name": "setApprovalForAll",
      "outputs": [],
      "stateMutability": "nonpayable",
      "type": "function"
    },
    {
      "inputs": [
        {
          "internalType": "uint256",
          "name": "index",
          "type": "uint256"
        },
        {
          "internalType": "uint256",
          "name": "tokenTier",
          "type": "uint256"
        }
      ],
      "name": "setSpecificTokenTierForTokenId",
      "outputs": [],
      "stateMutability": "nonpayable",
      "type": "function"
    },
    {
      "inputs": [
        {
          "internalType": "uint256",
          "name": "index",
          "type": "uint256"
        },
        {
          "components": [
            {
              "internalType": "uint256",
              "name": "baseLoanSize",
              "type": "uint256"
            },
            {
              "internalType": "string[]",
              "name": "hashes",
              "type": "string[]"
            },
            {
              "internalType": "address",
              "name": "contributionAsset",
              "type": "address"
            },
            {
              "internalType": "uint256",
              "name": "contributionSize",
              "type": "uint256"
            },
            {
              "internalType": "uint8",
              "name": "contributionMultiplier",
              "type": "uint8"
            }
          ],
          "internalType": "struct TellerNFTDictionary.Tier",
          "name": "newTier",
          "type": "tuple"
        }
      ],
      "name": "setTier",
      "outputs": [],
      "stateMutability": "nonpayable",
      "type": "function"
    },
    {
      "inputs": [
        {
          "internalType": "uint256",
          "name": "index",
          "type": "uint256"
        },
        {
          "internalType": "uint256",
          "name": "tierMapping",
          "type": "uint256"
        }
      ],
      "name": "setTokenTierMapping",
      "outputs": [],
      "stateMutability": "nonpayable",
      "type": "function"
    },
    {
      "inputs": [],
      "name": "stakeableTokenType",
      "outputs": [
        {
          "internalType": "bytes32",
          "name": "",
          "type": "bytes32"
        }
      ],
      "stateMutability": "view",
      "type": "function"
    },
    {
      "inputs": [
        {
          "internalType": "bytes4",
          "name": "interfaceId",
          "type": "bytes4"
        }
      ],
      "name": "supportsInterface",
      "outputs": [
        {
          "internalType": "bool",
          "name": "",
          "type": "bool"
        }
      ],
      "stateMutability": "view",
      "type": "function"
    },
    {
      "inputs": [],
      "name": "symbol",
      "outputs": [
        {
          "internalType": "string",
          "name": "",
          "type": "string"
        }
      ],
      "stateMutability": "view",
      "type": "function"
    },
    {
      "inputs": [
        {
          "internalType": "uint256",
          "name": "tokenId",
          "type": "uint256"
        }
      ],
      "name": "tokenBaseLoanSize",
      "outputs": [
        {
          "internalType": "uint256",
          "name": "",
          "type": "uint256"
        }
      ],
      "stateMutability": "view",
      "type": "function"
    },
    {
      "inputs": [
        {
          "internalType": "uint256",
          "name": "tokenId",
          "type": "uint256"
        }
      ],
      "name": "tokenContributionAsset",
      "outputs": [
        {
          "internalType": "address",
          "name": "",
          "type": "address"
        }
      ],
      "stateMutability": "view",
      "type": "function"
    },
    {
      "inputs": [
        {
          "internalType": "uint256",
          "name": "tokenId",
          "type": "uint256"
        }
      ],
      "name": "tokenContributionMultiplier",
      "outputs": [
        {
          "internalType": "uint256",
          "name": "",
          "type": "uint256"
        }
      ],
      "stateMutability": "view",
      "type": "function"
    },
    {
      "inputs": [
        {
          "internalType": "uint256",
          "name": "tokenId",
          "type": "uint256"
        }
      ],
      "name": "tokenContributionSize",
      "outputs": [
        {
          "internalType": "uint256",
          "name": "",
          "type": "uint256"
        }
      ],
      "stateMutability": "view",
      "type": "function"
    },
    {
      "inputs": [
        {
          "internalType": "uint256",
          "name": "tokenId",
          "type": "uint256"
        }
      ],
      "name": "tokenURI",
      "outputs": [
        {
          "internalType": "string",
          "name": "",
          "type": "string"
        }
      ],
      "stateMutability": "view",
      "type": "function"
    },
    {
      "inputs": [
        {
          "internalType": "uint256",
          "name": "tokenId",
          "type": "uint256"
        }
      ],
      "name": "tokenURIHash",
      "outputs": [
        {
          "internalType": "string",
          "name": "",
          "type": "string"
        }
      ],
      "stateMutability": "view",
      "type": "function"
    },
    {
      "inputs": [
        {
          "internalType": "address",
          "name": "from",
          "type": "address"
        },
        {
          "internalType": "address",
          "name": "to",
          "type": "address"
        },
        {
          "internalType": "uint256",
          "name": "tokenId",
          "type": "uint256"
        }
      ],
      "name": "transferFrom",
      "outputs": [],
      "stateMutability": "nonpayable",
      "type": "function"
    }
  ],
  "bytecode": "0x60806040523480156200001157600080fd5b506040516200267238038062002672833981016040819052620000349162000209565b620000607fdf8b4c520ffe197c5343c6f5aec59570151ef9a492f2c624fd45ddde6135ec428362000073565b6200006b8162000083565b505062000335565b6200007f828262000165565b5050565b3360009081527f049b36c3b918cd579baac98e5874bc200b9bd3f20d88018720947d64a0498255602052604090205460ff16620001065760405162461bcd60e51b815260206004820152601460248201527f54656c6c65724e46543a206e6f742061646d696e000000000000000000000000604482015260640160405180910390fd5b60005b81518110156200007f578181815181106200013457634e487b7160e01b600052603260045260246000fd5b602090810291909101810151600083815260ce909252604090912055806200015c81620002f7565b91505062000109565b60008281526097602090815260408083206001600160a01b038516845290915290205460ff166200007f5760008281526097602090815260408083206001600160a01b03851684529091529020805460ff19166001179055620001c53390565b6001600160a01b0316816001600160a01b0316837f2f8788117e7eff1d82e926ec794901d17c78024a50270940304540a733656f0d60405160405180910390a45050565b600080604083850312156200021c578182fd5b82516001600160a01b038116811462000233578283fd5b602084810151919350906001600160401b038082111562000252578384fd5b818601915086601f83011262000266578384fd5b8151818111156200027b576200027b6200031f565b8060051b604051601f19603f83011681018181108582111715620002a357620002a36200031f565b604052828152858101935084860182860187018b1015620002c2578788fd5b8795505b83861015620002e6578051855260019590950194938601938601620002c6565b508096505050505050509250929050565b60006000198214156200031857634e487b7160e01b81526011600452602481fd5b5060010190565b634e487b7160e01b600052604160045260246000fd5b61232d80620003456000396000f3fe608060405234801561001057600080fd5b50600436106102055760003560e01c806362a572331161011a578063a22cb465116100ad578063cbee53a31161007c578063cbee53a314610493578063d3001339146104b3578063d547741f146104c6578063e985e9c5146104d9578063f40898ef1461051557610205565b8063a22cb4651461043a578063b88d4fde1461044d578063c5d6bbaa14610460578063c87b56dd1461048057610205565b806391d14854116100e957806391d148541461040457806395d89b4114610417578063a16eae311461041f578063a217fddf1461043257610205565b806362a57233146103b15780636352211e146103c457806370a08231146103d7578063916a47db146103ea57610205565b8063248a9ca31161019d5780632f2ff15d1161016c5780632f2ff15d1461033f57806336568abe1461035257806342842e0e1461036557806346765a571461037857806347534ec91461038b57610205565b8063248a9ca3146102e157806324db57f8146103045780632a0acc6a146103175780632a4ce6511461032c57610205565b8063095ea7b3116101d9578063095ea7b3146102935780631f7ea3f4146102a857806323b872dd146102bb578063245a69d4146102ce57610205565b806284c7951461020a57806301ffc9a71461023057806306fdde0314610253578063081812fc14610268575b600080fd5b61021d610218366004611d28565b610528565b6040519081526020015b60405180910390f35b61024361023e366004611d62565b61054f565b6040519015158152602001610227565b61025b610589565b6040516102279190612037565b61027b610276366004611d28565b61061b565b6040516001600160a01b039091168152602001610227565b6102a66102a1366004611c67565b6106b5565b005b6102a66102b6366004611ea8565b6107cb565b6102a66102c9366004611b79565b610803565b6102a66102dc366004611c90565b610834565b61021d6102ef366004611d28565b60009081526097602052604090206001015490565b61021d610312366004611d28565b6108c2565b61021d6000805160206122d883398151915281565b6102a661033a366004611ea8565b6108e7565b6102a661034d366004611d40565b61092d565b6102a6610360366004611d40565b610954565b6102a6610373366004611b79565b6109ce565b6102a6610386366004611d9a565b6109e9565b7f2213d707f04cdfd263a540394e2a26bbf3a63d6ad89a37f534d2ee35bdfe0d3861021d565b61021d6103bf366004611d28565b610ab4565b61027b6103d2366004611d28565b610adc565b61021d6103e5366004611b2d565b610b53565b6103f2610bda565b60405160ff9091168152602001610227565b610243610412366004611d40565b610c13565b61025b610c3e565b6103f261042d366004611d28565b610c4d565b61021d600081565b6102a6610448366004611c2d565b610c9e565b6102a661045b366004611bb4565b610d70565b61021d61046e366004611d28565b60ce6020526000908152604090205481565b61025b61048e366004611d28565b610da8565b6104a66104a1366004611d28565b610e90565b6040516102279190611fd6565b61025b6104c1366004611d28565b610f7c565b6102a66104d4366004611d40565b610fdf565b6102436104e7366004611b47565b6001600160a01b039182166000908152606a6020908152604080832093909416825291909152205460ff1690565b61027b610523366004611d28565b611005565b60008061053483610c4d565b60ff16600090815260cc60205260409020549150505b919050565b60006001600160e01b031982166326a1274160e01b1480610574575061057482611033565b80610583575061058382611083565b92915050565b60606065805461059890612215565b80601f01602080910402602001604051908101604052809291908181526020018280546105c490612215565b80156106115780601f106105e657610100808354040283529160200191610611565b820191906000526020600020905b8154815290600101906020018083116105f457829003601f168201915b5050505050905090565b6000818152606760205260408120546001600160a01b03166106995760405162461bcd60e51b815260206004820152602c60248201527f4552433732313a20617070726f76656420717565727920666f72206e6f6e657860448201526b34b9ba32b73a103a37b5b2b760a11b60648201526084015b60405180910390fd5b506000908152606960205260409020546001600160a01b031690565b60006106c082610adc565b9050806001600160a01b0316836001600160a01b0316141561072e5760405162461bcd60e51b815260206004820152602160248201527f4552433732313a20617070726f76616c20746f2063757272656e74206f776e656044820152603960f91b6064820152608401610690565b336001600160a01b038216148061074a575061074a81336104e7565b6107bc5760405162461bcd60e51b815260206004820152603860248201527f4552433732313a20617070726f76652063616c6c6572206973206e6f74206f7760448201527f6e6572206e6f7220617070726f76656420666f7220616c6c00000000000000006064820152608401610690565b6107c683836110a8565b505050565b6107e36000805160206122d883398151915233610412565b6107ff5760405162461bcd60e51b81526004016106909061209c565b5050565b61080d3382611116565b6108295760405162461bcd60e51b8152600401610690906120ca565b6107c683838361120d565b61084c6000805160206122d883398151915233610412565b6108685760405162461bcd60e51b81526004016106909061209c565b60005b81518110156107ff5781818151811061089457634e487b7160e01b600052603260045260246000fd5b602090810291909101810151600083815260ce909252604090912055806108ba81612250565b91505061086b565b6000806108ce83610c4d565b60ff16600090815260c960205260409020549392505050565b6108ff6000805160206122d883398151915233610412565b61091b5760405162461bcd60e51b81526004016106909061209c565b600091825260ce602052604090912055565b60008281526097602052604090206001015461094a81335b6113ad565b6107c68383611411565b6001600160a01b03811633146109c45760405162461bcd60e51b815260206004820152602f60248201527f416363657373436f6e74726f6c3a2063616e206f6e6c792072656e6f756e636560448201526e103937b632b9903337b91039b2b63360891b6064820152608401610690565b6107ff8282611497565b6107c683838360405180602001604052806000815250610d70565b610a016000805160206122d883398151915233610412565b610a1d5760405162461bcd60e51b81526004016106909061209c565b8051600083815260c960209081526040808320939093558084015160ca8252929091208251610a52939192919091019061195f565b50604081810151600093845260cb602090815282852080546001600160a01b0319166001600160a01b0390931692909217909155606083015160cc82528285205560809092015160cd909252909120805460ff191660ff909216919091179055565b600080610ac083610c4d565b60ff908116600090815260cd6020526040902054169392505050565b6000818152606760205260408120546001600160a01b0316806105835760405162461bcd60e51b815260206004820152602960248201527f4552433732313a206f776e657220717565727920666f72206e6f6e657869737460448201526832b73a103a37b5b2b760b91b6064820152608401610690565b60006001600160a01b038216610bbe5760405162461bcd60e51b815260206004820152602a60248201527f4552433732313a2062616c616e636520717565727920666f7220746865207a65604482015269726f206164647265737360b01b6064820152608401610690565b506001600160a01b031660009081526068602052604090205490565b60007e210201000302010003020100030201000302010003020100030201000302016002610c098160086114fe565b9190911c91505090565b60009182526097602090815260408084206001600160a01b0393909316845291905290205460ff1690565b60606066805461059890612215565b600080610c5b83602061150a565b600081815260ce60209081526040822054929350610c9290600890610c81908890611516565b610c8c90601f6121bb565b906114fe565b9190911c949350505050565b6001600160a01b038216331415610cf75760405162461bcd60e51b815260206004820152601960248201527f4552433732313a20617070726f766520746f2063616c6c6572000000000000006044820152606401610690565b336000818152606a602090815260408083206001600160a01b0387168085529252909120805460ff1916841515179055906001600160a01b03167f17307eab39ab6107e8899845ad3d59bd9653f200f220920489ca2b5937696c3183604051610d64911515815260200190565b60405180910390a35050565b610d7a3383611116565b610d965760405162461bcd60e51b8152600401610690906120ca565b610da284848484611522565b50505050565b6000818152606760205260409020546060906001600160a01b0316610e275760405162461bcd60e51b815260206004820152602f60248201527f4552433732314d657461646174613a2055524920717565727920666f72206e6f60448201526e3732bc34b9ba32b73a103a37b5b2b760891b6064820152608401610690565b6000610e3e60408051602081019091526000815290565b90506000815111610e5e5760405180602001604052806000815250610e89565b80610e6884611555565b604051602001610e79929190611ef5565b6040516020818303038152906040525b9392505050565b606060ca6000838152602001908152602001600020805480602002602001604051908101604052809291908181526020016000905b82821015610f71578382906000526020600020018054610ee490612215565b80601f0160208091040260200160405190810160405280929190818152602001828054610f1090612215565b8015610f5d5780601f10610f3257610100808354040283529160200191610f5d565b820191906000526020600020905b815481529060010190602001808311610f4057829003601f168201915b505050505081526020019060010190610ec5565b505050509050919050565b60606000610f8983610c4d565b90506000610f998260ff16610e90565b905080610fb082518661151690919063ffffffff16565b81518110610fce57634e487b7160e01b600052603260045260246000fd5b602002602001015192505050919050565b600082815260976020526040902060010154610ffb8133610945565b6107c68383611497565b60008061101183610c4d565b60ff16600090815260cb60205260409020546001600160a01b03169392505050565b60006001600160e01b031982166380ac58cd60e01b148061106457506001600160e01b03198216635b5e139f60e01b145b8061058357506301ffc9a760e01b6001600160e01b0319831614610583565b60006001600160e01b03198216637965db0b60e01b1480610583575061058382611033565b600081815260696020526040902080546001600160a01b0319166001600160a01b03841690811790915581906110dd82610adc565b6001600160a01b03167f8c5be1e5ebec7d5bd14f71427d1e84f3dd0314c0f7b2291e5b200ac8c7c3b92560405160405180910390a45050565b6000818152606760205260408120546001600160a01b031661118f5760405162461bcd60e51b815260206004820152602c60248201527f4552433732313a206f70657261746f7220717565727920666f72206e6f6e657860448201526b34b9ba32b73a103a37b5b2b760a11b6064820152608401610690565b600061119a83610adc565b9050806001600160a01b0316846001600160a01b031614806111d55750836001600160a01b03166111ca8461061b565b6001600160a01b0316145b8061120557506001600160a01b038082166000908152606a602090815260408083209388168352929052205460ff165b949350505050565b826001600160a01b031661122082610adc565b6001600160a01b0316146112885760405162461bcd60e51b815260206004820152602960248201527f4552433732313a207472616e73666572206f6620746f6b656e2074686174206960448201526839903737ba1037bbb760b91b6064820152608401610690565b6001600160a01b0382166112ea5760405162461bcd60e51b8152602060048201526024808201527f4552433732313a207472616e7366657220746f20746865207a65726f206164646044820152637265737360e01b6064820152608401610690565b6112f56000826110a8565b6001600160a01b038316600090815260686020526040812080546001929061131e9084906121bb565b90915550506001600160a01b038216600090815260686020526040812080546001929061134c908490612170565b909155505060008181526067602052604080822080546001600160a01b0319166001600160a01b0386811691821790925591518493918716917fddf252ad1be2c89b69c2b068fc378daa952ba7f163c4a11628f55a4df523b3ef91a4505050565b6113b78282610c13565b6107ff576113cf816001600160a01b03166014611670565b6113da836020611670565b6040516020016113eb929190611f24565b60408051601f198184030181529082905262461bcd60e51b825261069091600401612037565b61141b8282610c13565b6107ff5760008281526097602090815260408083206001600160a01b03851684529091529020805460ff191660011790556114533390565b6001600160a01b0316816001600160a01b0316837f2f8788117e7eff1d82e926ec794901d17c78024a50270940304540a733656f0d60405160405180910390a45050565b6114a18282610c13565b156107ff5760008281526097602090815260408083206001600160a01b0385168085529252808320805460ff1916905551339285917ff6391f5c32d9c69d2a47ea670b442974b53935d1edc7fd64eb21e047a839171b9190a45050565b6000610e89828461219c565b6000610e898284612188565b6000610e89828461226b565b61152d84848461120d565b61153984848484611852565b610da25760405162461bcd60e51b81526004016106909061204a565b60608161157a57506040805180820190915260018152600360fc1b602082015261054a565b8160005b81156115a4578061158e81612250565b915061159d9050600a83612188565b915061157e565b60008167ffffffffffffffff8111156115cd57634e487b7160e01b600052604160045260246000fd5b6040519080825280601f01601f1916602001820160405280156115f7576020820181803683370190505b5090505b84156112055761160c6001836121bb565b9150611619600a8661226b565b611624906030612170565b60f81b81838151811061164757634e487b7160e01b600052603260045260246000fd5b60200101906001600160f81b031916908160001a905350611669600a86612188565b94506115fb565b6060600061167f83600261219c565b61168a906002612170565b67ffffffffffffffff8111156116b057634e487b7160e01b600052604160045260246000fd5b6040519080825280601f01601f1916602001820160405280156116da576020820181803683370190505b509050600360fc1b8160008151811061170357634e487b7160e01b600052603260045260246000fd5b60200101906001600160f81b031916908160001a905350600f60fb1b8160018151811061174057634e487b7160e01b600052603260045260246000fd5b60200101906001600160f81b031916908160001a905350600061176484600261219c565b61176f906001612170565b90505b6001811115611803576f181899199a1a9b1b9c1cb0b131b232b360811b85600f16601081106117b157634e487b7160e01b600052603260045260246000fd5b1a60f81b8282815181106117d557634e487b7160e01b600052603260045260246000fd5b60200101906001600160f81b031916908160001a90535060049490941c936117fc816121fe565b9050611772565b508315610e895760405162461bcd60e51b815260206004820181905260248201527f537472696e67733a20686578206c656e67746820696e73756666696369656e746044820152606401610690565b60006001600160a01b0384163b1561195457604051630a85bd0160e11b81526001600160a01b0385169063150b7a0290611896903390899088908890600401611f99565b602060405180830381600087803b1580156118b057600080fd5b505af19250505080156118e0575060408051601f3d908101601f191682019092526118dd91810190611d7e565b60015b61193a573d80801561190e576040519150601f19603f3d011682016040523d82523d6000602084013e611913565b606091505b5080516119325760405162461bcd60e51b81526004016106909061204a565b805181602001fd5b6001600160e01b031916630a85bd0160e11b149050611205565b506001949350505050565b8280548282559060005260206000209081019282156119ac579160200282015b828111156119ac578251805161199c9184916020909101906119bc565b509160200191906001019061197f565b506119b8929150611a3c565b5090565b8280546119c890612215565b90600052602060002090601f0160209004810192826119ea5760008555611a30565b82601f10611a0357805160ff1916838001178555611a30565b82800160010185558215611a30579182015b82811115611a30578251825591602001919060010190611a15565b506119b8929150611a59565b808211156119b8576000611a508282611a6e565b50600101611a3c565b5b808211156119b85760008155600101611a5a565b508054611a7a90612215565b6000825580601f10611a8c5750611aaa565b601f016020900490600052602060002090810190611aaa9190611a59565b50565b600067ffffffffffffffff831115611ac757611ac76122ab565b611ada601f8401601f191660200161211b565b9050828152838383011115611aee57600080fd5b828260208301376000602084830101529392505050565b80356001600160a01b038116811461054a57600080fd5b803560ff8116811461054a57600080fd5b600060208284031215611b3e578081fd5b610e8982611b05565b60008060408385031215611b59578081fd5b611b6283611b05565b9150611b7060208401611b05565b90509250929050565b600080600060608486031215611b8d578081fd5b611b9684611b05565b9250611ba460208501611b05565b9150604084013590509250925092565b60008060008060808587031215611bc9578081fd5b611bd285611b05565b9350611be060208601611b05565b925060408501359150606085013567ffffffffffffffff811115611c02578182fd5b8501601f81018713611c12578182fd5b611c2187823560208401611aad565b91505092959194509250565b60008060408385031215611c3f578182fd5b611c4883611b05565b915060208301358015158114611c5c578182fd5b809150509250929050565b60008060408385031215611c79578182fd5b611c8283611b05565b946020939093013593505050565b60006020808385031215611ca2578182fd5b823567ffffffffffffffff811115611cb8578283fd5b8301601f81018513611cc8578283fd5b8035611cdb611cd68261214c565b61211b565b80828252848201915084840188868560051b8701011115611cfa578687fd5b8694505b83851015611d1c578035835260019490940193918501918501611cfe565b50979650505050505050565b600060208284031215611d39578081fd5b5035919050565b60008060408385031215611d52578182fd5b82359150611b7060208401611b05565b600060208284031215611d73578081fd5b8135610e89816122c1565b600060208284031215611d8f578081fd5b8151610e89816122c1565b6000806040808486031215611dad578283fd5b8335925060208085013567ffffffffffffffff80821115611dcc578485fd5b9086019060a08289031215611ddf578485fd5b611de960a061211b565b823581528383013582811115611dfd578687fd5b83019150601f82018913611e0f578586fd5b8135611e1d611cd68261214c565b81815285810190848701895b84811015611e6657813587018e603f820112611e43578b8cfd5b611e538f8b8301358d8401611aad565b8552509288019290880190600101611e29565b50508387015250611e7a9050838601611b05565b8582015260608301356060820152611e9460808401611b1c565b608082015280955050505050509250929050565b60008060408385031215611eba578182fd5b50508035926020909101359150565b60008151808452611ee18160208601602086016121d2565b601f01601f19169290920160200192915050565b60008351611f078184602088016121d2565b835190830190611f1b8183602088016121d2565b01949350505050565b60007f416363657373436f6e74726f6c3a206163636f756e742000000000000000000082528351611f5c8160178501602088016121d2565b7001034b99036b4b9b9b4b733903937b6329607d1b6017918401918201528351611f8d8160288401602088016121d2565b01602801949350505050565b6001600160a01b0385811682528416602082015260408101839052608060608201819052600090611fcc90830184611ec9565b9695505050505050565b6000602080830181845280855180835260408601915060408160051b8701019250838701855b8281101561202a57603f19888603018452612018858351611ec9565b94509285019290850190600101611ffc565b5092979650505050505050565b600060208252610e896020830184611ec9565b60208082526032908201527f4552433732313a207472616e7366657220746f206e6f6e20455243373231526560408201527131b2b4bb32b91034b6b83632b6b2b73a32b960711b606082015260800190565b6020808252601490820152732a32b63632b927232a1d103737ba1030b236b4b760611b604082015260600190565b60208082526031908201527f4552433732313a207472616e736665722063616c6c6572206973206e6f74206f6040820152701ddb995c881b9bdc88185c1c1c9bdd9959607a1b606082015260800190565b604051601f8201601f1916810167ffffffffffffffff81118282101715612144576121446122ab565b604052919050565b600067ffffffffffffffff821115612166576121666122ab565b5060051b60200190565b600082198211156121835761218361227f565b500190565b60008261219757612197612295565b500490565b60008160001904831182151516156121b6576121b661227f565b500290565b6000828210156121cd576121cd61227f565b500390565b60005b838110156121ed5781810151838201526020016121d5565b83811115610da25750506000910152565b60008161220d5761220d61227f565b506000190190565b600181811c9082168061222957607f821691505b6020821081141561224a57634e487b7160e01b600052602260045260246000fd5b50919050565b60006000198214156122645761226461227f565b5060010190565b60008261227a5761227a612295565b500690565b634e487b7160e01b600052601160045260246000fd5b634e487b7160e01b600052601260045260246000fd5b634e487b7160e01b600052604160045260246000fd5b6001600160e01b031981168114611aaa57600080fdfedf8b4c520ffe197c5343c6f5aec59570151ef9a492f2c624fd45ddde6135ec42a2646970667358221220701db41618df66fedc7c9c8644b1485e51bddf7d662342423013baf9a80b54f064736f6c63430008030033",
  "linkReferences": {},
  "deployedLinkReferences": {}
}