{
  "_format": "hh-sol-artifact-1",
  "contractName": "TellerNFTDictionary",
  "sourceName": "contracts/TellerNftDictionary.sol",
  "abi": [
    {
      "inputs": [],
      "stateMutability": "nonpayable",
      "type": "constructor"
    },
    {
      "anonymous": false,
      "inputs": [
        {
          "indexed": true,
          "internalType": "address",
          "name": "owner",
          "type": "address"
        },
        {
          "indexed": true,
          "internalType": "address",
          "name": "approved",
          "type": "address"
        },
        {
          "indexed": true,
          "internalType": "uint256",
          "name": "tokenId",
          "type": "uint256"
        }
      ],
      "name": "Approval",
      "type": "event"
    },
    {
      "anonymous": false,
      "inputs": [
        {
          "indexed": true,
          "internalType": "address",
          "name": "owner",
          "type": "address"
        },
        {
          "indexed": true,
          "internalType": "address",
          "name": "operator",
          "type": "address"
        },
        {
          "indexed": false,
          "internalType": "bool",
          "name": "approved",
          "type": "bool"
        }
      ],
      "name": "ApprovalForAll",
      "type": "event"
    },
    {
      "anonymous": false,
      "inputs": [
        {
          "indexed": true,
          "internalType": "bytes32",
          "name": "role",
          "type": "bytes32"
        },
        {
          "indexed": true,
          "internalType": "bytes32",
          "name": "previousAdminRole",
          "type": "bytes32"
        },
        {
          "indexed": true,
          "internalType": "bytes32",
          "name": "newAdminRole",
          "type": "bytes32"
        }
      ],
      "name": "RoleAdminChanged",
      "type": "event"
    },
    {
      "anonymous": false,
      "inputs": [
        {
          "indexed": true,
          "internalType": "bytes32",
          "name": "role",
          "type": "bytes32"
        },
        {
          "indexed": true,
          "internalType": "address",
          "name": "account",
          "type": "address"
        },
        {
          "indexed": true,
          "internalType": "address",
          "name": "sender",
          "type": "address"
        }
      ],
      "name": "RoleGranted",
      "type": "event"
    },
    {
      "anonymous": false,
      "inputs": [
        {
          "indexed": true,
          "internalType": "bytes32",
          "name": "role",
          "type": "bytes32"
        },
        {
          "indexed": true,
          "internalType": "address",
          "name": "account",
          "type": "address"
        },
        {
          "indexed": true,
          "internalType": "address",
          "name": "sender",
          "type": "address"
        }
      ],
      "name": "RoleRevoked",
      "type": "event"
    },
    {
      "anonymous": false,
      "inputs": [
        {
          "indexed": true,
          "internalType": "address",
          "name": "from",
          "type": "address"
        },
        {
          "indexed": true,
          "internalType": "address",
          "name": "to",
          "type": "address"
        },
        {
          "indexed": true,
          "internalType": "uint256",
          "name": "tokenId",
          "type": "uint256"
        }
      ],
      "name": "Transfer",
      "type": "event"
    },
    {
      "inputs": [],
      "name": "ADMIN",
      "outputs": [
        {
          "internalType": "bytes32",
          "name": "",
          "type": "bytes32"
        }
      ],
      "stateMutability": "view",
      "type": "function"
    },
    {
      "inputs": [],
      "name": "DEFAULT_ADMIN_ROLE",
      "outputs": [
        {
          "internalType": "bytes32",
          "name": "",
          "type": "bytes32"
        }
      ],
      "stateMutability": "view",
      "type": "function"
    },
    {
      "inputs": [
        {
          "internalType": "uint256",
          "name": "",
          "type": "uint256"
        }
      ],
      "name": "_tokenTierMappingCompressed",
      "outputs": [
        {
          "internalType": "uint256",
          "name": "",
          "type": "uint256"
        }
      ],
      "stateMutability": "view",
      "type": "function"
    },
    {
      "inputs": [
        {
          "internalType": "uint256[]",
          "name": "tiersMapping",
          "type": "uint256[]"
        }
      ],
      "name": "addTokenTierMapping",
      "outputs": [],
      "stateMutability": "nonpayable",
      "type": "function"
    },
    {
      "inputs": [
        {
          "internalType": "address",
          "name": "to",
          "type": "address"
        },
        {
          "internalType": "uint256",
          "name": "tokenId",
          "type": "uint256"
        }
      ],
      "name": "approve",
      "outputs": [],
      "stateMutability": "nonpayable",
      "type": "function"
    },
    {
      "inputs": [
        {
          "internalType": "address",
          "name": "owner",
          "type": "address"
        }
      ],
      "name": "balanceOf",
      "outputs": [
        {
          "internalType": "uint256",
          "name": "",
          "type": "uint256"
        }
      ],
      "stateMutability": "view",
      "type": "function"
    },
    {
      "inputs": [],
      "name": "bitshiftTesting",
      "outputs": [
        {
          "internalType": "uint8",
          "name": "",
          "type": "uint8"
        }
      ],
      "stateMutability": "view",
      "type": "function"
    },
    {
      "inputs": [
        {
          "internalType": "uint256",
          "name": "tokenId",
          "type": "uint256"
        }
      ],
      "name": "getApproved",
      "outputs": [
        {
          "internalType": "address",
          "name": "",
          "type": "address"
        }
      ],
      "stateMutability": "view",
      "type": "function"
    },
    {
      "inputs": [
        {
          "internalType": "bytes32",
          "name": "role",
          "type": "bytes32"
        }
      ],
      "name": "getRoleAdmin",
      "outputs": [
        {
          "internalType": "bytes32",
          "name": "",
          "type": "bytes32"
        }
      ],
      "stateMutability": "view",
      "type": "function"
    },
    {
      "inputs": [
        {
          "internalType": "uint256",
          "name": "tierIndex",
          "type": "uint256"
        }
      ],
      "name": "getTierHashes",
      "outputs": [
        {
          "internalType": "string[]",
          "name": "hashes_",
          "type": "string[]"
        }
      ],
      "stateMutability": "view",
      "type": "function"
    },
    {
      "inputs": [
        {
          "internalType": "uint256",
          "name": "tokenId",
          "type": "uint256"
        }
      ],
      "name": "getTokenTierIndex",
      "outputs": [
        {
          "internalType": "uint8",
          "name": "index_",
          "type": "uint8"
        }
      ],
      "stateMutability": "view",
      "type": "function"
    },
    {
      "inputs": [
        {
          "internalType": "bytes32",
          "name": "role",
          "type": "bytes32"
        },
        {
          "internalType": "address",
          "name": "account",
          "type": "address"
        }
      ],
      "name": "grantRole",
      "outputs": [],
      "stateMutability": "nonpayable",
      "type": "function"
    },
    {
      "inputs": [
        {
          "internalType": "bytes32",
          "name": "role",
          "type": "bytes32"
        },
        {
          "internalType": "address",
          "name": "account",
          "type": "address"
        }
      ],
      "name": "hasRole",
      "outputs": [
        {
          "internalType": "bool",
          "name": "",
          "type": "bool"
        }
      ],
      "stateMutability": "view",
      "type": "function"
    },
    {
      "inputs": [
        {
          "internalType": "address",
          "name": "owner",
          "type": "address"
        },
        {
          "internalType": "address",
          "name": "operator",
          "type": "address"
        }
      ],
      "name": "isApprovedForAll",
      "outputs": [
        {
          "internalType": "bool",
          "name": "",
          "type": "bool"
        }
      ],
      "stateMutability": "view",
      "type": "function"
    },
    {
      "inputs": [],
      "name": "name",
      "outputs": [
        {
          "internalType": "string",
          "name": "",
          "type": "string"
        }
      ],
      "stateMutability": "view",
      "type": "function"
    },
    {
      "inputs": [
        {
          "internalType": "uint256",
          "name": "tokenId",
          "type": "uint256"
        }
      ],
      "name": "ownerOf",
      "outputs": [
        {
          "internalType": "address",
          "name": "",
          "type": "address"
        }
      ],
      "stateMutability": "view",
      "type": "function"
    },
    {
      "inputs": [
        {
          "internalType": "bytes32",
          "name": "role",
          "type": "bytes32"
        },
        {
          "internalType": "address",
          "name": "account",
          "type": "address"
        }
      ],
      "name": "renounceRole",
      "outputs": [],
      "stateMutability": "nonpayable",
      "type": "function"
    },
    {
      "inputs": [
        {
          "internalType": "bytes32",
          "name": "role",
          "type": "bytes32"
        },
        {
          "internalType": "address",
          "name": "account",
          "type": "address"
        }
      ],
      "name": "revokeRole",
      "outputs": [],
      "stateMutability": "nonpayable",
      "type": "function"
    },
    {
      "inputs": [
        {
          "internalType": "address",
          "name": "from",
          "type": "address"
        },
        {
          "internalType": "address",
          "name": "to",
          "type": "address"
        },
        {
          "internalType": "uint256",
          "name": "tokenId",
          "type": "uint256"
        }
      ],
      "name": "safeTransferFrom",
      "outputs": [],
      "stateMutability": "nonpayable",
      "type": "function"
    },
    {
      "inputs": [
        {
          "internalType": "address",
          "name": "from",
          "type": "address"
        },
        {
          "internalType": "address",
          "name": "to",
          "type": "address"
        },
        {
          "internalType": "uint256",
          "name": "tokenId",
          "type": "uint256"
        },
        {
          "internalType": "bytes",
          "name": "_data",
          "type": "bytes"
        }
      ],
      "name": "safeTransferFrom",
      "outputs": [],
      "stateMutability": "nonpayable",
      "type": "function"
    },
    {
      "inputs": [
        {
          "internalType": "address",
          "name": "operator",
          "type": "address"
        },
        {
          "internalType": "bool",
          "name": "approved",
          "type": "bool"
        }
      ],
      "name": "setApprovalForAll",
      "outputs": [],
      "stateMutability": "nonpayable",
      "type": "function"
    },
    {
      "inputs": [
        {
          "internalType": "uint256",
          "name": "index",
          "type": "uint256"
        },
        {
          "components": [
            {
              "internalType": "uint256",
              "name": "baseLoanSize",
              "type": "uint256"
            },
            {
              "internalType": "string[]",
              "name": "hashes",
              "type": "string[]"
            },
            {
              "internalType": "address",
              "name": "contributionAsset",
              "type": "address"
            },
            {
              "internalType": "uint256",
              "name": "contributionSize",
              "type": "uint256"
            },
            {
              "internalType": "uint8",
              "name": "contributionMultiplier",
              "type": "uint8"
            }
          ],
          "internalType": "struct TellerNFTDictionary.Tier",
          "name": "newTier",
          "type": "tuple"
        }
      ],
      "name": "setTier",
      "outputs": [],
      "stateMutability": "nonpayable",
      "type": "function"
    },
    {
      "inputs": [],
      "name": "stakeableTokenType",
      "outputs": [
        {
          "internalType": "bytes32",
          "name": "",
          "type": "bytes32"
        }
      ],
      "stateMutability": "view",
      "type": "function"
    },
    {
      "inputs": [
        {
          "internalType": "bytes4",
          "name": "interfaceId",
          "type": "bytes4"
        }
      ],
      "name": "supportsInterface",
      "outputs": [
        {
          "internalType": "bool",
          "name": "",
          "type": "bool"
        }
      ],
      "stateMutability": "view",
      "type": "function"
    },
    {
      "inputs": [],
      "name": "symbol",
      "outputs": [
        {
          "internalType": "string",
          "name": "",
          "type": "string"
        }
      ],
      "stateMutability": "view",
      "type": "function"
    },
    {
      "inputs": [
        {
          "internalType": "uint256",
          "name": "tokenId",
          "type": "uint256"
        }
      ],
      "name": "tokenBaseLoanSize",
      "outputs": [
        {
          "internalType": "uint256",
          "name": "",
          "type": "uint256"
        }
      ],
      "stateMutability": "view",
      "type": "function"
    },
    {
      "inputs": [
        {
          "internalType": "uint256",
          "name": "tokenId",
          "type": "uint256"
        }
      ],
      "name": "tokenContributionAsset",
      "outputs": [
        {
          "internalType": "address",
          "name": "",
          "type": "address"
        }
      ],
      "stateMutability": "view",
      "type": "function"
    },
    {
      "inputs": [
        {
          "internalType": "uint256",
          "name": "tokenId",
          "type": "uint256"
        }
      ],
      "name": "tokenContributionMultiplier",
      "outputs": [
        {
          "internalType": "uint256",
          "name": "",
          "type": "uint256"
        }
      ],
      "stateMutability": "view",
      "type": "function"
    },
    {
      "inputs": [
        {
          "internalType": "uint256",
          "name": "tokenId",
          "type": "uint256"
        }
      ],
      "name": "tokenContributionSize",
      "outputs": [
        {
          "internalType": "uint256",
          "name": "",
          "type": "uint256"
        }
      ],
      "stateMutability": "view",
      "type": "function"
    },
    {
      "inputs": [
        {
          "internalType": "uint256",
          "name": "tokenId",
          "type": "uint256"
        }
      ],
      "name": "tokenURI",
      "outputs": [
        {
          "internalType": "string",
          "name": "",
          "type": "string"
        }
      ],
      "stateMutability": "view",
      "type": "function"
    },
    {
      "inputs": [
        {
          "internalType": "uint256",
          "name": "tokenId",
          "type": "uint256"
        }
      ],
      "name": "tokenURIHash",
      "outputs": [
        {
          "internalType": "string",
          "name": "",
          "type": "string"
        }
      ],
      "stateMutability": "view",
      "type": "function"
    },
    {
      "inputs": [
        {
          "internalType": "address",
          "name": "from",
          "type": "address"
        },
        {
          "internalType": "address",
          "name": "to",
          "type": "address"
        },
        {
          "internalType": "uint256",
          "name": "tokenId",
          "type": "uint256"
        }
      ],
      "name": "transferFrom",
      "outputs": [],
      "stateMutability": "nonpayable",
      "type": "function"
    }
  ],
  "bytecode": "0x60806040523480156200001157600080fd5b506200003e7fdf8b4c520ffe197c5343c6f5aec59570151ef9a492f2c624fd45ddde6135ec423362000044565b620000f8565b62000050828262000054565b5050565b60008281526097602090815260408083206001600160a01b038516845290915290205460ff16620000505760008281526097602090815260408083206001600160a01b03851684529091529020805460ff19166001179055620000b43390565b6001600160a01b0316816001600160a01b0316837f2f8788117e7eff1d82e926ec794901d17c78024a50270940304540a733656f0d60405160405180910390a45050565b61231680620001086000396000f3fe608060405234801561001057600080fd5b50600436106101ef5760003560e01c806370a082311161010f578063b88d4fde116100a2578063d300133911610071578063d300133914610489578063d547741f1461049c578063e985e9c5146104af578063f40898ef146104eb576101ef565b8063b88d4fde14610423578063c5d6bbaa14610436578063c87b56dd14610456578063cbee53a314610469576101ef565b8063a16eae31116100de578063a16eae31146103e2578063a217fddf146103f5578063a22cb465146103fd578063a52645f814610410576101ef565b806370a082311461039a578063916a47db146103ad57806391d14854146103c757806395d89b41146103da576101ef565b80632a0acc6a1161018757806346765a571161015657806346765a571461033b57806347534ec91461034e57806362a57233146103745780636352211e14610387576101ef565b80632a0acc6a146102db5780632f2ff15d1461030257806336568abe1461031557806342842e0e14610328576101ef565b8063095ea7b3116101c3578063095ea7b31461027d57806323b872dd14610292578063248a9ca3146102a557806324db57f8146102c8576101ef565b806284c795146101f457806301ffc9a71461021a57806306fdde031461023d578063081812fc14610252575b600080fd5b610207610202366004611d80565b6104fe565b6040519081526020015b60405180910390f35b61022d610228366004611dba565b610525565b6040519015158152602001610211565b61024561055f565b604051610211919061206e565b610265610260366004611d80565b6105f1565b6040516001600160a01b039091168152602001610211565b61029061028b366004611cbf565b61068b565b005b6102906102a0366004611bd1565b6107a1565b6102076102b3366004611d80565b60009081526097602052604090206001015490565b6102076102d6366004611d80565b6107d2565b6102077fdf8b4c520ffe197c5343c6f5aec59570151ef9a492f2c624fd45ddde6135ec4281565b610290610310366004611d98565b6107f7565b610290610323366004611d98565b61081e565b610290610336366004611bd1565b61089c565b610290610349366004611df2565b6108b7565b7f2213d707f04cdfd263a540394e2a26bbf3a63d6ad89a37f534d2ee35bdfe0d38610207565b610207610382366004611d80565b6109bb565b610265610395366004611d80565b6109e3565b6102076103a8366004611b85565b610a5a565b6103b5610ae1565b60405160ff9091168152602001610211565b61022d6103d5366004611d98565b610b1a565b610245610b45565b6103b56103f0366004611d80565b610b54565b610207600081565b61029061040b366004611c85565b610ba5565b61029061041e366004611ce8565b610c77565b610290610431366004611c0c565b610d3f565b610207610444366004611d80565b60ce6020526000908152604090205481565b610245610464366004611d80565b610d77565b61047c610477366004611d80565b610e5f565b604051610211919061200d565b610245610497366004611d80565b610f4b565b6102906104aa366004611d98565b611037565b61022d6104bd366004611b9f565b6001600160a01b039182166000908152606a6020908152604080832093909416825291909152205460ff1690565b6102656104f9366004611d80565b61105d565b60008061050a83610b54565b60ff16600090815260cc60205260409020549150505b919050565b60006001600160e01b031982166326a1274160e01b148061054a575061054a8261108b565b806105595750610559826110db565b92915050565b60606065805461056e9061221e565b80601f016020809104026020016040519081016040528092919081815260200182805461059a9061221e565b80156105e75780601f106105bc576101008083540402835291602001916105e7565b820191906000526020600020905b8154815290600101906020018083116105ca57829003601f168201915b5050505050905090565b6000818152606760205260408120546001600160a01b031661066f5760405162461bcd60e51b815260206004820152602c60248201527f4552433732313a20617070726f76656420717565727920666f72206e6f6e657860448201526b34b9ba32b73a103a37b5b2b760a11b60648201526084015b60405180910390fd5b506000908152606960205260409020546001600160a01b031690565b6000610696826109e3565b9050806001600160a01b0316836001600160a01b031614156107045760405162461bcd60e51b815260206004820152602160248201527f4552433732313a20617070726f76616c20746f2063757272656e74206f776e656044820152603960f91b6064820152608401610666565b336001600160a01b0382161480610720575061072081336104bd565b6107925760405162461bcd60e51b815260206004820152603860248201527f4552433732313a20617070726f76652063616c6c6572206973206e6f74206f7760448201527f6e6572206e6f7220617070726f76656420666f7220616c6c00000000000000006064820152608401610666565b61079c8383611100565b505050565b6107ab338261116e565b6107c75760405162461bcd60e51b8152600401610666906120d3565b61079c838383611265565b6000806107de83610b54565b60ff16600090815260c960205260409020549392505050565b60008281526097602052604090206001015461081481335b611405565b61079c8383611469565b6001600160a01b038116331461088e5760405162461bcd60e51b815260206004820152602f60248201527f416363657373436f6e74726f6c3a2063616e206f6e6c792072656e6f756e636560448201526e103937b632b9903337b91039b2b63360891b6064820152608401610666565b61089882826114ef565b5050565b61079c83838360405180602001604052806000815250610d3f565b6108e17fdf8b4c520ffe197c5343c6f5aec59570151ef9a492f2c624fd45ddde6135ec42336103d5565b6109245760405162461bcd60e51b81526020600482015260146024820152732a32b63632b927232a1d103737ba1030b236b4b760611b6044820152606401610666565b8051600083815260c960209081526040808320939093558084015160ca825292909120825161095993919291909101906119b7565b50604081810151600093845260cb602090815282852080546001600160a01b0319166001600160a01b0390931692909217909155606083015160cc82528285205560809092015160cd909252909120805460ff191660ff909216919091179055565b6000806109c783610b54565b60ff908116600090815260cd6020526040902054169392505050565b6000818152606760205260408120546001600160a01b0316806105595760405162461bcd60e51b815260206004820152602960248201527f4552433732313a206f776e657220717565727920666f72206e6f6e657869737460448201526832b73a103a37b5b2b760b91b6064820152608401610666565b60006001600160a01b038216610ac55760405162461bcd60e51b815260206004820152602a60248201527f4552433732313a2062616c616e636520717565727920666f7220746865207a65604482015269726f206164647265737360b01b6064820152608401610666565b506001600160a01b031660009081526068602052604090205490565b60007e210201000302010003020100030201000302010003020100030201000302016002610b10816008611556565b9190911c91505090565b60009182526097602090815260408084206001600160a01b0393909316845291905290205460ff1690565b60606066805461056e9061221e565b600080610b62836020611562565b600081815260ce60209081526040822054929350610b9990600890610b8890889061156e565b610b9390601f6121c4565b90611556565b9190911c949350505050565b6001600160a01b038216331415610bfe5760405162461bcd60e51b815260206004820152601960248201527f4552433732313a20617070726f766520746f2063616c6c6572000000000000006044820152606401610666565b336000818152606a602090815260408083206001600160a01b0387168085529252909120805460ff1916841515179055906001600160a01b03167f17307eab39ab6107e8899845ad3d59bd9653f200f220920489ca2b5937696c3183604051610c6b911515815260200190565b60405180910390a35050565b610ca17fdf8b4c520ffe197c5343c6f5aec59570151ef9a492f2c624fd45ddde6135ec42336103d5565b610ce45760405162461bcd60e51b81526020600482015260146024820152732a32b63632b927232a1d103737ba1030b236b4b760611b6044820152606401610666565b80600081518110610d0557634e487b7160e01b600052603260045260246000fd5b6020908102919091018101516000805260ce9091527fd3f5862f6f80175da7514904f3a889cc3cc8c4f3af5129e28cdeaee2baa6efc45550565b610d49338361116e565b610d655760405162461bcd60e51b8152600401610666906120d3565b610d718484848461157a565b50505050565b6000818152606760205260409020546060906001600160a01b0316610df65760405162461bcd60e51b815260206004820152602f60248201527f4552433732314d657461646174613a2055524920717565727920666f72206e6f60448201526e3732bc34b9ba32b73a103a37b5b2b760891b6064820152608401610666565b6000610e0d60408051602081019091526000815290565b90506000815111610e2d5760405180602001604052806000815250610e58565b80610e37846115ad565b604051602001610e48929190611f2c565b6040516020818303038152906040525b9392505050565b606060ca6000838152602001908152602001600020805480602002602001604051908101604052809291908181526020016000905b82821015610f40578382906000526020600020018054610eb39061221e565b80601f0160208091040260200160405190810160405280929190818152602001828054610edf9061221e565b8015610f2c5780601f10610f0157610100808354040283529160200191610f2c565b820191906000526020600020905b815481529060010190602001808311610f0f57829003601f168201915b505050505081526020019060010190610e94565b505050509050919050565b60606000610f5883610b54565b60ff8116600090815260ca602052604090208054919250908190610f7d90869061156e565b81548110610f9b57634e487b7160e01b600052603260045260246000fd5b906000526020600020018054610fb09061221e565b80601f0160208091040260200160405190810160405280929190818152602001828054610fdc9061221e565b80156110295780601f10610ffe57610100808354040283529160200191611029565b820191906000526020600020905b81548152906001019060200180831161100c57829003601f168201915b505050505092505050919050565b600082815260976020526040902060010154611053813361080f565b61079c83836114ef565b60008061106983610b54565b60ff16600090815260cb60205260409020546001600160a01b03169392505050565b60006001600160e01b031982166380ac58cd60e01b14806110bc57506001600160e01b03198216635b5e139f60e01b145b8061055957506301ffc9a760e01b6001600160e01b0319831614610559565b60006001600160e01b03198216637965db0b60e01b148061055957506105598261108b565b600081815260696020526040902080546001600160a01b0319166001600160a01b0384169081179091558190611135826109e3565b6001600160a01b03167f8c5be1e5ebec7d5bd14f71427d1e84f3dd0314c0f7b2291e5b200ac8c7c3b92560405160405180910390a45050565b6000818152606760205260408120546001600160a01b03166111e75760405162461bcd60e51b815260206004820152602c60248201527f4552433732313a206f70657261746f7220717565727920666f72206e6f6e657860448201526b34b9ba32b73a103a37b5b2b760a11b6064820152608401610666565b60006111f2836109e3565b9050806001600160a01b0316846001600160a01b0316148061122d5750836001600160a01b0316611222846105f1565b6001600160a01b0316145b8061125d57506001600160a01b038082166000908152606a602090815260408083209388168352929052205460ff165b949350505050565b826001600160a01b0316611278826109e3565b6001600160a01b0316146112e05760405162461bcd60e51b815260206004820152602960248201527f4552433732313a207472616e73666572206f6620746f6b656e2074686174206960448201526839903737ba1037bbb760b91b6064820152608401610666565b6001600160a01b0382166113425760405162461bcd60e51b8152602060048201526024808201527f4552433732313a207472616e7366657220746f20746865207a65726f206164646044820152637265737360e01b6064820152608401610666565b61134d600082611100565b6001600160a01b03831660009081526068602052604081208054600192906113769084906121c4565b90915550506001600160a01b03821660009081526068602052604081208054600192906113a4908490612179565b909155505060008181526067602052604080822080546001600160a01b0319166001600160a01b0386811691821790925591518493918716917fddf252ad1be2c89b69c2b068fc378daa952ba7f163c4a11628f55a4df523b3ef91a4505050565b61140f8282610b1a565b61089857611427816001600160a01b031660146116c8565b6114328360206116c8565b604051602001611443929190611f5b565b60408051601f198184030181529082905262461bcd60e51b82526106669160040161206e565b6114738282610b1a565b6108985760008281526097602090815260408083206001600160a01b03851684529091529020805460ff191660011790556114ab3390565b6001600160a01b0316816001600160a01b0316837f2f8788117e7eff1d82e926ec794901d17c78024a50270940304540a733656f0d60405160405180910390a45050565b6114f98282610b1a565b156108985760008281526097602090815260408083206001600160a01b0385168085529252808320805460ff1916905551339285917ff6391f5c32d9c69d2a47ea670b442974b53935d1edc7fd64eb21e047a839171b9190a45050565b6000610e5882846121a5565b6000610e588284612191565b6000610e588284612274565b611585848484611265565b611591848484846118aa565b610d715760405162461bcd60e51b815260040161066690612081565b6060816115d257506040805180820190915260018152600360fc1b6020820152610520565b8160005b81156115fc57806115e681612259565b91506115f59050600a83612191565b91506115d6565b60008167ffffffffffffffff81111561162557634e487b7160e01b600052604160045260246000fd5b6040519080825280601f01601f19166020018201604052801561164f576020820181803683370190505b5090505b841561125d576116646001836121c4565b9150611671600a86612274565b61167c906030612179565b60f81b81838151811061169f57634e487b7160e01b600052603260045260246000fd5b60200101906001600160f81b031916908160001a9053506116c1600a86612191565b9450611653565b606060006116d78360026121a5565b6116e2906002612179565b67ffffffffffffffff81111561170857634e487b7160e01b600052604160045260246000fd5b6040519080825280601f01601f191660200182016040528015611732576020820181803683370190505b509050600360fc1b8160008151811061175b57634e487b7160e01b600052603260045260246000fd5b60200101906001600160f81b031916908160001a905350600f60fb1b8160018151811061179857634e487b7160e01b600052603260045260246000fd5b60200101906001600160f81b031916908160001a90535060006117bc8460026121a5565b6117c7906001612179565b90505b600181111561185b576f181899199a1a9b1b9c1cb0b131b232b360811b85600f166010811061180957634e487b7160e01b600052603260045260246000fd5b1a60f81b82828151811061182d57634e487b7160e01b600052603260045260246000fd5b60200101906001600160f81b031916908160001a90535060049490941c9361185481612207565b90506117ca565b508315610e585760405162461bcd60e51b815260206004820181905260248201527f537472696e67733a20686578206c656e67746820696e73756666696369656e746044820152606401610666565b60006001600160a01b0384163b156119ac57604051630a85bd0160e11b81526001600160a01b0385169063150b7a02906118ee903390899088908890600401611fd0565b602060405180830381600087803b15801561190857600080fd5b505af1925050508015611938575060408051601f3d908101601f1916820190925261193591810190611dd6565b60015b611992573d808015611966576040519150601f19603f3d011682016040523d82523d6000602084013e61196b565b606091505b50805161198a5760405162461bcd60e51b815260040161066690612081565b805181602001fd5b6001600160e01b031916630a85bd0160e11b14905061125d565b506001949350505050565b828054828255906000526020600020908101928215611a04579160200282015b82811115611a0457825180516119f4918491602090910190611a14565b50916020019190600101906119d7565b50611a10929150611a94565b5090565b828054611a209061221e565b90600052602060002090601f016020900481019282611a425760008555611a88565b82601f10611a5b57805160ff1916838001178555611a88565b82800160010185558215611a88579182015b82811115611a88578251825591602001919060010190611a6d565b50611a10929150611ab1565b80821115611a10576000611aa88282611ac6565b50600101611a94565b5b80821115611a105760008155600101611ab2565b508054611ad29061221e565b6000825580601f10611ae45750611b02565b601f016020900490600052602060002090810190611b029190611ab1565b50565b600067ffffffffffffffff831115611b1f57611b1f6122b4565b611b32601f8401601f1916602001612124565b9050828152838383011115611b4657600080fd5b828260208301376000602084830101529392505050565b80356001600160a01b038116811461052057600080fd5b803560ff8116811461052057600080fd5b600060208284031215611b96578081fd5b610e5882611b5d565b60008060408385031215611bb1578081fd5b611bba83611b5d565b9150611bc860208401611b5d565b90509250929050565b600080600060608486031215611be5578081fd5b611bee84611b5d565b9250611bfc60208501611b5d565b9150604084013590509250925092565b60008060008060808587031215611c21578081fd5b611c2a85611b5d565b9350611c3860208601611b5d565b925060408501359150606085013567ffffffffffffffff811115611c5a578182fd5b8501601f81018713611c6a578182fd5b611c7987823560208401611b05565b91505092959194509250565b60008060408385031215611c97578182fd5b611ca083611b5d565b915060208301358015158114611cb4578182fd5b809150509250929050565b60008060408385031215611cd1578182fd5b611cda83611b5d565b946020939093013593505050565b60006020808385031215611cfa578182fd5b823567ffffffffffffffff811115611d10578283fd5b8301601f81018513611d20578283fd5b8035611d33611d2e82612155565b612124565b80828252848201915084840188868560051b8701011115611d52578687fd5b8694505b83851015611d74578035835260019490940193918501918501611d56565b50979650505050505050565b600060208284031215611d91578081fd5b5035919050565b60008060408385031215611daa578182fd5b82359150611bc860208401611b5d565b600060208284031215611dcb578081fd5b8135610e58816122ca565b600060208284031215611de7578081fd5b8151610e58816122ca565b6000806040808486031215611e05578283fd5b8335925060208085013567ffffffffffffffff80821115611e24578485fd5b9086019060a08289031215611e37578485fd5b611e4160a0612124565b823581528383013582811115611e55578687fd5b83019150601f82018913611e67578586fd5b8135611e75611d2e82612155565b81815285810190848701895b84811015611ebe57813587018e603f820112611e9b578b8cfd5b611eab8f8b8301358d8401611b05565b8552509288019290880190600101611e81565b50508387015250611ed29050838601611b5d565b8582015260608301356060820152611eec60808401611b74565b608082015280955050505050509250929050565b60008151808452611f188160208601602086016121db565b601f01601f19169290920160200192915050565b60008351611f3e8184602088016121db565b835190830190611f528183602088016121db565b01949350505050565b60007f416363657373436f6e74726f6c3a206163636f756e742000000000000000000082528351611f938160178501602088016121db565b7001034b99036b4b9b9b4b733903937b6329607d1b6017918401918201528351611fc48160288401602088016121db565b01602801949350505050565b6001600160a01b038581168252841660208201526040810183905260806060820181905260009061200390830184611f00565b9695505050505050565b6000602080830181845280855180835260408601915060408160051b8701019250838701855b8281101561206157603f1988860301845261204f858351611f00565b94509285019290850190600101612033565b5092979650505050505050565b600060208252610e586020830184611f00565b60208082526032908201527f4552433732313a207472616e7366657220746f206e6f6e20455243373231526560408201527131b2b4bb32b91034b6b83632b6b2b73a32b960711b606082015260800190565b60208082526031908201527f4552433732313a207472616e736665722063616c6c6572206973206e6f74206f6040820152701ddb995c881b9bdc88185c1c1c9bdd9959607a1b606082015260800190565b604051601f8201601f1916810167ffffffffffffffff8111828210171561214d5761214d6122b4565b604052919050565b600067ffffffffffffffff82111561216f5761216f6122b4565b5060051b60200190565b6000821982111561218c5761218c612288565b500190565b6000826121a0576121a061229e565b500490565b60008160001904831182151516156121bf576121bf612288565b500290565b6000828210156121d6576121d6612288565b500390565b60005b838110156121f65781810151838201526020016121de565b83811115610d715750506000910152565b60008161221657612216612288565b506000190190565b600181811c9082168061223257607f821691505b6020821081141561225357634e487b7160e01b600052602260045260246000fd5b50919050565b600060001982141561226d5761226d612288565b5060010190565b6000826122835761228361229e565b500690565b634e487b7160e01b600052601160045260246000fd5b634e487b7160e01b600052601260045260246000fd5b634e487b7160e01b600052604160045260246000fd5b6001600160e01b031981168114611b0257600080fdfea2646970667358221220b4c92109654624cf4b1db02c8d3204d900ce093eedf497c32de99a273b3be8e964736f6c63430008030033",
  "linkReferences": {},
  "deployedLinkReferences": {}
}