{
  "_format": "hh-sol-artifact-1",
  "contractName": "TellerNFTDictionary",
  "sourceName": "contracts/TellerNftDictionary.sol",
  "abi": [
    {
      "inputs": [],
      "stateMutability": "nonpayable",
      "type": "constructor"
    },
    {
      "anonymous": false,
      "inputs": [
        {
          "indexed": true,
          "internalType": "bytes32",
          "name": "role",
          "type": "bytes32"
        },
        {
          "indexed": true,
          "internalType": "bytes32",
          "name": "previousAdminRole",
          "type": "bytes32"
        },
        {
          "indexed": true,
          "internalType": "bytes32",
          "name": "newAdminRole",
          "type": "bytes32"
        }
      ],
      "name": "RoleAdminChanged",
      "type": "event"
    },
    {
      "anonymous": false,
      "inputs": [
        {
          "indexed": true,
          "internalType": "bytes32",
          "name": "role",
          "type": "bytes32"
        },
        {
          "indexed": true,
          "internalType": "address",
          "name": "account",
          "type": "address"
        },
        {
          "indexed": true,
          "internalType": "address",
          "name": "sender",
          "type": "address"
        }
      ],
      "name": "RoleGranted",
      "type": "event"
    },
    {
      "anonymous": false,
      "inputs": [
        {
          "indexed": true,
          "internalType": "bytes32",
          "name": "role",
          "type": "bytes32"
        },
        {
          "indexed": true,
          "internalType": "address",
          "name": "account",
          "type": "address"
        },
        {
          "indexed": true,
          "internalType": "address",
          "name": "sender",
          "type": "address"
        }
      ],
      "name": "RoleRevoked",
      "type": "event"
    },
    {
      "inputs": [],
      "name": "ADMIN",
      "outputs": [
        {
          "internalType": "bytes32",
          "name": "",
          "type": "bytes32"
        }
      ],
      "stateMutability": "view",
      "type": "function"
    },
    {
      "inputs": [],
      "name": "DEFAULT_ADMIN_ROLE",
      "outputs": [
        {
          "internalType": "bytes32",
          "name": "",
          "type": "bytes32"
        }
      ],
      "stateMutability": "view",
      "type": "function"
    },
    {
      "inputs": [
        {
          "internalType": "uint256",
          "name": "",
          "type": "uint256"
        }
      ],
      "name": "_tokenTierMappingCompressed",
      "outputs": [
        {
          "internalType": "uint256",
          "name": "",
          "type": "uint256"
        }
      ],
      "stateMutability": "view",
      "type": "function"
    },
    {
      "inputs": [
        {
          "internalType": "bytes32",
          "name": "role",
          "type": "bytes32"
        }
      ],
      "name": "getRoleAdmin",
      "outputs": [
        {
          "internalType": "bytes32",
          "name": "",
          "type": "bytes32"
        }
      ],
      "stateMutability": "view",
      "type": "function"
    },
    {
      "inputs": [
        {
          "internalType": "uint256",
          "name": "tierIndex",
          "type": "uint256"
        }
      ],
      "name": "getTierHashes",
      "outputs": [
        {
          "internalType": "string[]",
          "name": "hashes_",
          "type": "string[]"
        }
      ],
      "stateMutability": "view",
      "type": "function"
    },
    {
      "inputs": [
        {
          "internalType": "uint256",
          "name": "tokenId",
          "type": "uint256"
        }
      ],
      "name": "getTokenTierIndex",
      "outputs": [
        {
          "internalType": "uint8",
          "name": "index_",
          "type": "uint8"
        }
      ],
      "stateMutability": "view",
      "type": "function"
    },
    {
      "inputs": [
        {
          "internalType": "bytes32",
          "name": "role",
          "type": "bytes32"
        },
        {
          "internalType": "address",
          "name": "account",
          "type": "address"
        }
      ],
      "name": "grantRole",
      "outputs": [],
      "stateMutability": "nonpayable",
      "type": "function"
    },
    {
      "inputs": [
        {
          "internalType": "bytes32",
          "name": "role",
          "type": "bytes32"
        },
        {
          "internalType": "address",
          "name": "account",
          "type": "address"
        }
      ],
      "name": "hasRole",
      "outputs": [
        {
          "internalType": "bool",
          "name": "",
          "type": "bool"
        }
      ],
      "stateMutability": "view",
      "type": "function"
    },
    {
      "inputs": [
        {
          "internalType": "bytes32",
          "name": "role",
          "type": "bytes32"
        },
        {
          "internalType": "address",
          "name": "account",
          "type": "address"
        }
      ],
      "name": "renounceRole",
      "outputs": [],
      "stateMutability": "nonpayable",
      "type": "function"
    },
    {
      "inputs": [
        {
          "internalType": "bytes32",
          "name": "role",
          "type": "bytes32"
        },
        {
          "internalType": "address",
          "name": "account",
          "type": "address"
        }
      ],
      "name": "revokeRole",
      "outputs": [],
      "stateMutability": "nonpayable",
      "type": "function"
    },
    {
      "inputs": [
        {
          "internalType": "uint256[]",
          "name": "tiersMapping",
          "type": "uint256[]"
        }
      ],
      "name": "setAllTokenTierMappings",
      "outputs": [
        {
          "internalType": "bool",
          "name": "",
          "type": "bool"
        }
      ],
      "stateMutability": "nonpayable",
      "type": "function"
    },
    {
      "inputs": [
        {
          "internalType": "uint256",
          "name": "index",
          "type": "uint256"
        },
        {
          "components": [
            {
              "internalType": "uint256",
              "name": "baseLoanSize",
              "type": "uint256"
            },
            {
              "internalType": "string[]",
              "name": "hashes",
              "type": "string[]"
            },
            {
              "internalType": "address",
              "name": "contributionAsset",
              "type": "address"
            },
            {
              "internalType": "uint256",
              "name": "contributionSize",
              "type": "uint256"
            },
            {
              "internalType": "uint8",
              "name": "contributionMultiplier",
              "type": "uint8"
            }
          ],
          "internalType": "struct TellerNFTDictionary.Tier",
          "name": "newTier",
          "type": "tuple"
        }
      ],
      "name": "setTier",
      "outputs": [
        {
          "internalType": "bool",
          "name": "",
          "type": "bool"
        }
      ],
      "stateMutability": "nonpayable",
      "type": "function"
    },
    {
      "inputs": [
        {
          "internalType": "uint256",
          "name": "tokenId",
          "type": "uint256"
        },
        {
          "internalType": "uint256",
          "name": "tokenTier",
          "type": "uint256"
        }
      ],
      "name": "setTokenTierForTokenId",
      "outputs": [
        {
          "internalType": "bool",
          "name": "",
          "type": "bool"
        }
      ],
      "stateMutability": "nonpayable",
      "type": "function"
    },
    {
      "inputs": [
        {
          "internalType": "uint256",
          "name": "index",
          "type": "uint256"
        },
        {
          "internalType": "uint256",
          "name": "tierMapping",
          "type": "uint256"
        }
      ],
      "name": "setTokenTierMapping",
      "outputs": [
        {
          "internalType": "bool",
          "name": "",
          "type": "bool"
        }
      ],
      "stateMutability": "nonpayable",
      "type": "function"
    },
    {
      "inputs": [],
      "name": "stakeableTokenType",
      "outputs": [
        {
          "internalType": "bytes32",
          "name": "",
          "type": "bytes32"
        }
      ],
      "stateMutability": "view",
      "type": "function"
    },
    {
      "inputs": [
        {
          "internalType": "bytes4",
          "name": "interfaceId",
          "type": "bytes4"
        }
      ],
      "name": "supportsInterface",
      "outputs": [
        {
          "internalType": "bool",
          "name": "",
          "type": "bool"
        }
      ],
      "stateMutability": "view",
      "type": "function"
    },
    {
      "inputs": [
        {
          "internalType": "uint256",
          "name": "tokenId",
          "type": "uint256"
        }
      ],
      "name": "tokenBaseLoanSize",
      "outputs": [
        {
          "internalType": "uint256",
          "name": "",
          "type": "uint256"
        }
      ],
      "stateMutability": "view",
      "type": "function"
    },
    {
      "inputs": [
        {
          "internalType": "uint256",
          "name": "tokenId",
          "type": "uint256"
        }
      ],
      "name": "tokenContributionAsset",
      "outputs": [
        {
          "internalType": "address",
          "name": "",
          "type": "address"
        }
      ],
      "stateMutability": "view",
      "type": "function"
    },
    {
      "inputs": [
        {
          "internalType": "uint256",
          "name": "tokenId",
          "type": "uint256"
        }
      ],
      "name": "tokenContributionMultiplier",
      "outputs": [
        {
          "internalType": "uint256",
          "name": "",
          "type": "uint256"
        }
      ],
      "stateMutability": "view",
      "type": "function"
    },
    {
      "inputs": [
        {
          "internalType": "uint256",
          "name": "tokenId",
          "type": "uint256"
        }
      ],
      "name": "tokenContributionSize",
      "outputs": [
        {
          "internalType": "uint256",
          "name": "",
          "type": "uint256"
        }
      ],
      "stateMutability": "view",
      "type": "function"
    },
    {
      "inputs": [
        {
          "internalType": "uint256",
          "name": "tokenId",
          "type": "uint256"
        }
      ],
      "name": "tokenURIHash",
      "outputs": [
        {
          "internalType": "string",
          "name": "",
          "type": "string"
        }
      ],
      "stateMutability": "view",
      "type": "function"
    }
  ],
  "bytecode": "0x608060405234801561001057600080fd5b5061003b7fdf8b4c520ffe197c5343c6f5aec59570151ef9a492f2c624fd45ddde6135ec4233610040565b6100f0565b61004a828261004e565b5050565b60008281526065602090815260408083206001600160a01b038516845290915290205460ff1661004a5760008281526065602090815260408083206001600160a01b03851684529091529020805460ff191660011790556100ac3390565b6001600160a01b0316816001600160a01b0316837f2f8788117e7eff1d82e926ec794901d17c78024a50270940304540a733656f0d60405160405180910390a45050565b6113cf806100ff6000396000f3fe608060405234801561001057600080fd5b50600436106101365760003560e01c806347534ec9116100b8578063a217fddf1161007c578063a217fddf146102b4578063c5d6bbaa146102bc578063cbee53a3146102dc578063d3001339146102fc578063d547741f1461031c578063f40898ef1461032f57610136565b806347534ec91461023057806362a572331461025657806375623b451461026957806391d148541461027c578063a16eae311461028f57610136565b80632a0acc6a116100ff5780632a0acc6a146101cd5780632a4ce651146101e25780632f2ff15d146101f557806336568abe1461020a57806346765a571461021d57610136565b806284c7951461013b57806301ffc9a714610161578063245a69d414610184578063248a9ca31461019757806324db57f8146101ba575b600080fd5b61014e610149366004610eb8565b61035a565b6040519081526020015b60405180910390f35b61017461016f366004610efb565b610381565b6040519015158152602001610158565b610174610192366004610e20565b6103ac565b61014e6101a5366004610eb8565b60009081526065602052604090206001015490565b61014e6101c8366004610eb8565b61044e565b61014e60008051602061137a83398151915281565b6101746101f036600461106b565b610473565b610208610203366004610ed0565b6104bf565b005b610208610218366004610ed0565b6104eb565b61017461022b366004610f23565b610569565b7f2213d707f04cdfd263a540394e2a26bbf3a63d6ad89a37f534d2ee35bdfe0d3861014e565b61014e610264366004610eb8565b61063a565b61017461027736600461106b565b610662565b61017461028a366004610ed0565b610709565b6102a261029d366004610eb8565b610734565b60405160ff9091168152602001610158565b61014e600081565b61014e6102ca366004610eb8565b609c6020526000908152604090205481565b6102ef6102ea366004610eb8565b610774565b604051610158919061112d565b61030f61030a366004610eb8565b610860565b604051610158919061118e565b61020861032a366004610ed0565b6108c3565b61034261033d366004610eb8565b6108e9565b6040516001600160a01b039091168152602001610158565b60008061036683610734565b60ff166000908152609a60205260409020549150505b919050565b60006001600160e01b031982166326a1274160e01b14806103a657506103a682610917565b92915050565b60006103c660008051602061137a8339815191523361028a565b6103eb5760405162461bcd60e51b81526004016103e2906111a1565b60405180910390fd5b60005b82518110156104455782818151811061041757634e487b7160e01b600052603260045260246000fd5b6020908102919091018101516000838152609c9092526040909120558061043d81611308565b9150506103ee565b50600192915050565b60008061045a83610734565b60ff166000908152609760205260409020549392505050565b600061048d60008051602061137a8339815191523361028a565b6104a95760405162461bcd60e51b81526004016103e2906111a1565b506000918252609c602052604090912055600190565b6000828152606560205260409020600101546104dc81335b61094c565b6104e683836109b0565b505050565b6001600160a01b038116331461055b5760405162461bcd60e51b815260206004820152602f60248201527f416363657373436f6e74726f6c3a2063616e206f6e6c792072656e6f756e636560448201526e103937b632b9903337b91039b2b63360891b60648201526084016103e2565b6105658282610a36565b5050565b600061058360008051602061137a8339815191523361028a565b61059f5760405162461bcd60e51b81526004016103e2906111a1565b815160008481526097602090815260408083209390935580850151609882529290912082516105d49391929190910190610caa565b505060408181015160009384526099602090815282852080546001600160a01b0319166001600160a01b03909316929092179091556060830151609a825282852055608090920151609b909252909120805460ff191660ff909216919091179055600190565b60008061064683610734565b60ff9081166000908152609b6020526040902054169392505050565b600061067c60008051602061137a8339815191523361028a565b6106985760405162461bcd60e51b81526004016103e2906111a1565b60006106a5846020610a9d565b6000818152609c602090815260408220549293506106dc906008906106cb908990610ab0565b6106d690601f61126f565b90610abc565b6000938452609c6020526040909320600b841b60ff90941b19929092169290921790555060019392505050565b60009182526065602090815260408084206001600160a01b0393909316845291905290205460ff1690565b600080610742836020610a9d565b6000818152609c60209081526040822054929350610768906008906106cb908890610ab0565b9190911c949350505050565b606060986000838152602001908152602001600020805480602002602001604051908101604052809291908181526020016000905b828210156108555783829060005260206000200180546107c8906112cd565b80601f01602080910402602001604051908101604052809291908181526020018280546107f4906112cd565b80156108415780601f1061081657610100808354040283529160200191610841565b820191906000526020600020905b81548152906001019060200180831161082457829003601f168201915b5050505050815260200190600101906107a9565b505050509050919050565b6060600061086d83610734565b9050600061087d8260ff16610774565b905080610894825186610ab090919063ffffffff16565b815181106108b257634e487b7160e01b600052603260045260246000fd5b602002602001015192505050919050565b6000828152606560205260409020600101546108df81336104d7565b6104e68383610a36565b6000806108f583610734565b60ff166000908152609960205260409020546001600160a01b03169392505050565b60006001600160e01b03198216637965db0b60e01b14806103a657506301ffc9a760e01b6001600160e01b03198316146103a6565b6109568282610709565b6105655761096e816001600160a01b03166014610ac8565b610979836020610ac8565b60405160200161098a9291906110b8565b60408051601f198184030181529082905262461bcd60e51b82526103e29160040161118e565b6109ba8282610709565b6105655760008281526065602090815260408083206001600160a01b03851684529091529020805460ff191660011790556109f23390565b6001600160a01b0316816001600160a01b0316837f2f8788117e7eff1d82e926ec794901d17c78024a50270940304540a733656f0d60405160405180910390a45050565b610a408282610709565b156105655760008281526065602090815260408083206001600160a01b0385168085529252808320805460ff1916905551339285917ff6391f5c32d9c69d2a47ea670b442974b53935d1edc7fd64eb21e047a839171b9190a45050565b6000610aa9828461123c565b9392505050565b6000610aa98284611323565b6000610aa98284611250565b60606000610ad7836002611250565b610ae2906002611224565b67ffffffffffffffff811115610b0857634e487b7160e01b600052604160045260246000fd5b6040519080825280601f01601f191660200182016040528015610b32576020820181803683370190505b509050600360fc1b81600081518110610b5b57634e487b7160e01b600052603260045260246000fd5b60200101906001600160f81b031916908160001a905350600f60fb1b81600181518110610b9857634e487b7160e01b600052603260045260246000fd5b60200101906001600160f81b031916908160001a9053506000610bbc846002611250565b610bc7906001611224565b90505b6001811115610c5b576f181899199a1a9b1b9c1cb0b131b232b360811b85600f1660108110610c0957634e487b7160e01b600052603260045260246000fd5b1a60f81b828281518110610c2d57634e487b7160e01b600052603260045260246000fd5b60200101906001600160f81b031916908160001a90535060049490941c93610c54816112b6565b9050610bca565b508315610aa95760405162461bcd60e51b815260206004820181905260248201527f537472696e67733a20686578206c656e67746820696e73756666696369656e7460448201526064016103e2565b828054828255906000526020600020908101928215610cf7579160200282015b82811115610cf75782518051610ce7918491602090910190610d07565b5091602001919060010190610cca565b50610d03929150610d87565b5090565b828054610d13906112cd565b90600052602060002090601f016020900481019282610d355760008555610d7b565b82601f10610d4e57805160ff1916838001178555610d7b565b82800160010185558215610d7b579182015b82811115610d7b578251825591602001919060010190610d60565b50610d03929150610da4565b80821115610d03576000610d9b8282610db9565b50600101610d87565b5b80821115610d035760008155600101610da5565b508054610dc5906112cd565b6000825580601f10610dd75750610df5565b601f016020900490600052602060002090810190610df59190610da4565b50565b80356001600160a01b038116811461037c57600080fd5b803560ff8116811461037c57600080fd5b60006020808385031215610e32578182fd5b823567ffffffffffffffff811115610e48578283fd5b8301601f81018513610e58578283fd5b8035610e6b610e6682611200565b6111cf565b80828252848201915084840188868560051b8701011115610e8a578687fd5b8694505b83851015610eac578035835260019490940193918501918501610e8e565b50979650505050505050565b600060208284031215610ec9578081fd5b5035919050565b60008060408385031215610ee2578081fd5b82359150610ef260208401610df8565b90509250929050565b600060208284031215610f0c578081fd5b81356001600160e01b031981168114610aa9578182fd5b60008060408385031215610f35578182fd5b8235915060208084013567ffffffffffffffff80821115610f54578384fd5b9085019060a08288031215610f67578384fd5b610f7160a06111cf565b823581528383013582811115610f85578586fd5b8301601f81018913610f95578586fd5b610fa2610e668235611200565b8135815285810190868301885b843581101561102857813585018d603f820112610fca578a8bfd5b8981013588811115610fde57610fde611363565b610ff0601f8201601f19168c016111cf565b8181528f6040838501011115611004578c8dfd5b81604084018d8301379081018b018c90528552509288019290880190600101610faf565b5050838701525061103d905060408401610df8565b60408201526060830135606082015261105860808401610e0f565b6080820152809450505050509250929050565b6000806040838503121561107d578182fd5b50508035926020909101359150565b600081518084526110a4816020860160208601611286565b601f01601f19169290920160200192915050565b60007f416363657373436f6e74726f6c3a206163636f756e7420000000000000000000825283516110f0816017850160208801611286565b7001034b99036b4b9b9b4b733903937b6329607d1b6017918401918201528351611121816028840160208801611286565b01602801949350505050565b6000602080830181845280855180835260408601915060408160051b8701019250838701855b8281101561118157603f1988860301845261116f85835161108c565b94509285019290850190600101611153565b5092979650505050505050565b600060208252610aa9602083018461108c565b6020808252601490820152732a32b63632b927232a1d103737ba1030b236b4b760611b604082015260600190565b604051601f8201601f1916810167ffffffffffffffff811182821017156111f8576111f8611363565b604052919050565b600067ffffffffffffffff82111561121a5761121a611363565b5060051b60200190565b6000821982111561123757611237611337565b500190565b60008261124b5761124b61134d565b500490565b600081600019048311821515161561126a5761126a611337565b500290565b60008282101561128157611281611337565b500390565b60005b838110156112a1578181015183820152602001611289565b838111156112b0576000848401525b50505050565b6000816112c5576112c5611337565b506000190190565b600181811c908216806112e157607f821691505b6020821081141561130257634e487b7160e01b600052602260045260246000fd5b50919050565b600060001982141561131c5761131c611337565b5060010190565b6000826113325761133261134d565b500690565b634e487b7160e01b600052601160045260246000fd5b634e487b7160e01b600052601260045260246000fd5b634e487b7160e01b600052604160045260246000fdfedf8b4c520ffe197c5343c6f5aec59570151ef9a492f2c624fd45ddde6135ec42a26469706673582212208109f68a445709ef74fc232b351a43210c8718e2513c20097292e30333bab29f64736f6c63430008030033",
  "linkReferences": {},
  "deployedLinkReferences": {}
}