{
  "_format": "hh-sol-artifact-1",
  "contractName": "TellerNFTDictionary",
  "sourceName": "contracts/TellerNftDictionary.sol",
  "abi": [
    {
      "inputs": [],
      "stateMutability": "nonpayable",
      "type": "constructor"
    },
    {
      "anonymous": false,
      "inputs": [
        {
          "indexed": true,
          "internalType": "bytes32",
          "name": "role",
          "type": "bytes32"
        },
        {
          "indexed": true,
          "internalType": "bytes32",
          "name": "previousAdminRole",
          "type": "bytes32"
        },
        {
          "indexed": true,
          "internalType": "bytes32",
          "name": "newAdminRole",
          "type": "bytes32"
        }
      ],
      "name": "RoleAdminChanged",
      "type": "event"
    },
    {
      "anonymous": false,
      "inputs": [
        {
          "indexed": true,
          "internalType": "bytes32",
          "name": "role",
          "type": "bytes32"
        },
        {
          "indexed": true,
          "internalType": "address",
          "name": "account",
          "type": "address"
        },
        {
          "indexed": true,
          "internalType": "address",
          "name": "sender",
          "type": "address"
        }
      ],
      "name": "RoleGranted",
      "type": "event"
    },
    {
      "anonymous": false,
      "inputs": [
        {
          "indexed": true,
          "internalType": "bytes32",
          "name": "role",
          "type": "bytes32"
        },
        {
          "indexed": true,
          "internalType": "address",
          "name": "account",
          "type": "address"
        },
        {
          "indexed": true,
          "internalType": "address",
          "name": "sender",
          "type": "address"
        }
      ],
      "name": "RoleRevoked",
      "type": "event"
    },
    {
      "inputs": [],
      "name": "ADMIN",
      "outputs": [
        {
          "internalType": "bytes32",
          "name": "",
          "type": "bytes32"
        }
      ],
      "stateMutability": "view",
      "type": "function"
    },
    {
      "inputs": [],
      "name": "DEFAULT_ADMIN_ROLE",
      "outputs": [
        {
          "internalType": "bytes32",
          "name": "",
          "type": "bytes32"
        }
      ],
      "stateMutability": "view",
      "type": "function"
    },
    {
      "inputs": [
        {
          "internalType": "uint256",
          "name": "",
          "type": "uint256"
        }
      ],
      "name": "_tokenTierMappingCompressed",
      "outputs": [
        {
          "internalType": "uint256",
          "name": "",
          "type": "uint256"
        }
      ],
      "stateMutability": "view",
      "type": "function"
    },
    {
      "inputs": [
        {
          "internalType": "uint256",
          "name": "tokenId",
          "type": "uint256"
        },
        {
          "internalType": "uint256",
          "name": "tokenTier",
          "type": "uint256"
        }
      ],
      "name": "bitBanging",
      "outputs": [
        {
          "internalType": "uint256",
          "name": "",
          "type": "uint256"
        }
      ],
      "stateMutability": "view",
      "type": "function"
    },
    {
      "inputs": [
        {
          "internalType": "bytes32",
          "name": "role",
          "type": "bytes32"
        }
      ],
      "name": "getRoleAdmin",
      "outputs": [
        {
          "internalType": "bytes32",
          "name": "",
          "type": "bytes32"
        }
      ],
      "stateMutability": "view",
      "type": "function"
    },
    {
      "inputs": [
        {
          "internalType": "uint256",
          "name": "tierIndex",
          "type": "uint256"
        }
      ],
      "name": "getTierHashes",
      "outputs": [
        {
          "internalType": "string[]",
          "name": "hashes_",
          "type": "string[]"
        }
      ],
      "stateMutability": "view",
      "type": "function"
    },
    {
      "inputs": [
        {
          "internalType": "uint256",
          "name": "tokenId",
          "type": "uint256"
        }
      ],
      "name": "getTokenTierIndex",
      "outputs": [
        {
          "internalType": "uint8",
          "name": "index_",
          "type": "uint8"
        }
      ],
      "stateMutability": "view",
      "type": "function"
    },
    {
      "inputs": [
        {
          "internalType": "bytes32",
          "name": "role",
          "type": "bytes32"
        },
        {
          "internalType": "address",
          "name": "account",
          "type": "address"
        }
      ],
      "name": "grantRole",
      "outputs": [],
      "stateMutability": "nonpayable",
      "type": "function"
    },
    {
      "inputs": [
        {
          "internalType": "bytes32",
          "name": "role",
          "type": "bytes32"
        },
        {
          "internalType": "address",
          "name": "account",
          "type": "address"
        }
      ],
      "name": "hasRole",
      "outputs": [
        {
          "internalType": "bool",
          "name": "",
          "type": "bool"
        }
      ],
      "stateMutability": "view",
      "type": "function"
    },
    {
      "inputs": [
        {
          "internalType": "bytes32",
          "name": "role",
          "type": "bytes32"
        },
        {
          "internalType": "address",
          "name": "account",
          "type": "address"
        }
      ],
      "name": "renounceRole",
      "outputs": [],
      "stateMutability": "nonpayable",
      "type": "function"
    },
    {
      "inputs": [
        {
          "internalType": "bytes32",
          "name": "role",
          "type": "bytes32"
        },
        {
          "internalType": "address",
          "name": "account",
          "type": "address"
        }
      ],
      "name": "revokeRole",
      "outputs": [],
      "stateMutability": "nonpayable",
      "type": "function"
    },
    {
      "inputs": [
        {
          "internalType": "uint256[]",
          "name": "tiersMapping",
          "type": "uint256[]"
        }
      ],
      "name": "setAllTokenTierMappings",
      "outputs": [],
      "stateMutability": "nonpayable",
      "type": "function"
    },
    {
      "inputs": [
        {
          "internalType": "uint256",
          "name": "index",
          "type": "uint256"
        },
        {
          "components": [
            {
              "internalType": "uint256",
              "name": "baseLoanSize",
              "type": "uint256"
            },
            {
              "internalType": "string[]",
              "name": "hashes",
              "type": "string[]"
            },
            {
              "internalType": "address",
              "name": "contributionAsset",
              "type": "address"
            },
            {
              "internalType": "uint256",
              "name": "contributionSize",
              "type": "uint256"
            },
            {
              "internalType": "uint8",
              "name": "contributionMultiplier",
              "type": "uint8"
            }
          ],
          "internalType": "struct TellerNFTDictionary.Tier",
          "name": "newTier",
          "type": "tuple"
        }
      ],
      "name": "setTier",
      "outputs": [],
      "stateMutability": "nonpayable",
      "type": "function"
    },
    {
      "inputs": [
        {
          "internalType": "uint256",
          "name": "tokenId",
          "type": "uint256"
        },
        {
          "internalType": "uint256",
          "name": "tokenTier",
          "type": "uint256"
        }
      ],
      "name": "setTokenTierForTokenId",
      "outputs": [
        {
          "internalType": "bool",
          "name": "",
          "type": "bool"
        }
      ],
      "stateMutability": "nonpayable",
      "type": "function"
    },
    {
      "inputs": [
        {
          "internalType": "uint256",
          "name": "index",
          "type": "uint256"
        },
        {
          "internalType": "uint256",
          "name": "tierMapping",
          "type": "uint256"
        }
      ],
      "name": "setTokenTierMapping",
      "outputs": [],
      "stateMutability": "nonpayable",
      "type": "function"
    },
    {
      "inputs": [],
      "name": "stakeableTokenType",
      "outputs": [
        {
          "internalType": "bytes32",
          "name": "",
          "type": "bytes32"
        }
      ],
      "stateMutability": "view",
      "type": "function"
    },
    {
      "inputs": [
        {
          "internalType": "bytes4",
          "name": "interfaceId",
          "type": "bytes4"
        }
      ],
      "name": "supportsInterface",
      "outputs": [
        {
          "internalType": "bool",
          "name": "",
          "type": "bool"
        }
      ],
      "stateMutability": "view",
      "type": "function"
    },
    {
      "inputs": [
        {
          "internalType": "uint256",
          "name": "tokenId",
          "type": "uint256"
        }
      ],
      "name": "tokenBaseLoanSize",
      "outputs": [
        {
          "internalType": "uint256",
          "name": "",
          "type": "uint256"
        }
      ],
      "stateMutability": "view",
      "type": "function"
    },
    {
      "inputs": [
        {
          "internalType": "uint256",
          "name": "tokenId",
          "type": "uint256"
        }
      ],
      "name": "tokenContributionAsset",
      "outputs": [
        {
          "internalType": "address",
          "name": "",
          "type": "address"
        }
      ],
      "stateMutability": "view",
      "type": "function"
    },
    {
      "inputs": [
        {
          "internalType": "uint256",
          "name": "tokenId",
          "type": "uint256"
        }
      ],
      "name": "tokenContributionMultiplier",
      "outputs": [
        {
          "internalType": "uint256",
          "name": "",
          "type": "uint256"
        }
      ],
      "stateMutability": "view",
      "type": "function"
    },
    {
      "inputs": [
        {
          "internalType": "uint256",
          "name": "tokenId",
          "type": "uint256"
        }
      ],
      "name": "tokenContributionSize",
      "outputs": [
        {
          "internalType": "uint256",
          "name": "",
          "type": "uint256"
        }
      ],
      "stateMutability": "view",
      "type": "function"
    },
    {
      "inputs": [
        {
          "internalType": "uint256",
          "name": "tokenId",
          "type": "uint256"
        }
      ],
      "name": "tokenURIHash",
      "outputs": [
        {
          "internalType": "string",
          "name": "",
          "type": "string"
        }
      ],
      "stateMutability": "view",
      "type": "function"
    }
  ],
  "bytecode": "0x608060405234801561001057600080fd5b5061003b7fdf8b4c520ffe197c5343c6f5aec59570151ef9a492f2c624fd45ddde6135ec4233610040565b6100f0565b61004a828261004e565b5050565b60008281526065602090815260408083206001600160a01b038516845290915290205460ff1661004a5760008281526065602090815260408083206001600160a01b03851684529091529020805460ff191660011790556100ac3390565b6001600160a01b0316816001600160a01b0316837f2f8788117e7eff1d82e926ec794901d17c78024a50270940304540a733656f0d60405160405180910390a45050565b61145a806100ff6000396000f3fe608060405234801561001057600080fd5b50600436106101415760003560e01c806362a57233116100b8578063c5d6bbaa1161007c578063c5d6bbaa146102c7578063cbee53a3146102e7578063d300133914610307578063d547741f14610327578063db6c07f51461033a578063f40898ef1461034d57610141565b806362a572331461026157806375623b451461027457806391d1485414610287578063a16eae311461029a578063a217fddf146102bf57610141565b80632a0acc6a1161010a5780632a0acc6a146101da5780632a4ce651146101ef5780632f2ff15d1461020257806336568abe1461021557806346765a571461022857806347534ec91461023b57610141565b806284c7951461014657806301ffc9a71461016c578063245a69d41461018f578063248a9ca3146101a457806324db57f8146101c7575b600080fd5b610159610154366004610f43565b610378565b6040519081526020015b60405180910390f35b61017f61017a366004610f86565b61039f565b6040519015158152602001610163565b6101a261019d366004610eab565b6103ca565b005b6101596101b2366004610f43565b60009081526065602052604090206001015490565b6101596101d5366004610f43565b610465565b61015960008051602061140583398151915281565b6101a26101fd3660046110f6565b61048a565b6101a2610210366004610f5b565b6104d0565b6101a2610223366004610f5b565b6104fc565b6101a2610236366004610fae565b610576565b7f2213d707f04cdfd263a540394e2a26bbf3a63d6ad89a37f534d2ee35bdfe0d38610159565b61015961026f366004610f43565b610641565b61017f6102823660046110f6565b610669565b61017f610295366004610f5b565b610710565b6102ad6102a8366004610f43565b61073b565b60405160ff9091168152602001610163565b610159600081565b6101596102d5366004610f43565b609c6020526000908152604090205481565b6102fa6102f5366004610f43565b61077b565b60405161016391906111b8565b61031a610315366004610f43565b610867565b6040516101639190611219565b6101a2610335366004610f5b565b6108ca565b6101596103483660046110f6565b6108f0565b61036061035b366004610f43565b610974565b6040516001600160a01b039091168152602001610163565b6000806103848361073b565b60ff166000908152609a60205260409020549150505b919050565b60006001600160e01b031982166326a1274160e01b14806103c457506103c4826109a2565b92915050565b6103e260008051602061140583398151915233610295565b6104075760405162461bcd60e51b81526004016103fe9061122c565b60405180910390fd5b60005b81518110156104615781818151811061043357634e487b7160e01b600052603260045260246000fd5b6020908102919091018101516000838152609c9092526040909120558061045981611393565b91505061040a565b5050565b6000806104718361073b565b60ff166000908152609760205260409020549392505050565b6104a260008051602061140583398151915233610295565b6104be5760405162461bcd60e51b81526004016103fe9061122c565b6000918252609c602052604090912055565b6000828152606560205260409020600101546104ed81335b6109d7565b6104f78383610a3b565b505050565b6001600160a01b038116331461056c5760405162461bcd60e51b815260206004820152602f60248201527f416363657373436f6e74726f6c3a2063616e206f6e6c792072656e6f756e636560448201526e103937b632b9903337b91039b2b63360891b60648201526084016103fe565b6104618282610ac1565b61058e60008051602061140583398151915233610295565b6105aa5760405162461bcd60e51b81526004016103fe9061122c565b805160008381526097602090815260408083209390935580840151609882529290912082516105df9391929190910190610d35565b5060408181015160009384526099602090815282852080546001600160a01b0319166001600160a01b03909316929092179091556060830151609a825282852055608090920151609b909252909120805460ff191660ff909216919091179055565b60008061064d8361073b565b60ff9081166000908152609b6020526040902054169392505050565b600061068360008051602061140583398151915233610295565b61069f5760405162461bcd60e51b81526004016103fe9061122c565b60006106ac846020610b28565b6000818152609c602090815260408220549293506106e3906008906106d2908990610b3b565b6106dd90601f6112fa565b90610b47565b6000938452609c6020526040909320600b841b60ff90941b19929092169290921790555060019392505050565b60009182526065602090815260408084206001600160a01b0393909316845291905290205460ff1690565b600080610749836020610b28565b6000818152609c6020908152604082205492935061076f906008906106d2908890610b3b565b9190911c949350505050565b606060986000838152602001908152602001600020805480602002602001604051908101604052809291908181526020016000905b8282101561085c5783829060005260206000200180546107cf90611358565b80601f01602080910402602001604051908101604052809291908181526020018280546107fb90611358565b80156108485780601f1061081d57610100808354040283529160200191610848565b820191906000526020600020905b81548152906001019060200180831161082b57829003601f168201915b5050505050815260200190600101906107b0565b505050509050919050565b606060006108748361073b565b905060006108848260ff1661077b565b90508061089b825186610b3b90919063ffffffff16565b815181106108b957634e487b7160e01b600052603260045260246000fd5b602002602001015192505050919050565b6000828152606560205260409020600101546108e681336104e8565b6104f78383610ac1565b600061090a60008051602061140583398151915233610295565b6109265760405162461bcd60e51b81526004016103fe9061122c565b6000610933846020610b28565b6000818152609c60209081526040822054929350610959906008906106d2908990610b3b565b600b811b60ff90911b19929092169190911795945050505050565b6000806109808361073b565b60ff166000908152609960205260409020546001600160a01b03169392505050565b60006001600160e01b03198216637965db0b60e01b14806103c457506301ffc9a760e01b6001600160e01b03198316146103c4565b6109e18282610710565b610461576109f9816001600160a01b03166014610b53565b610a04836020610b53565b604051602001610a15929190611143565b60408051601f198184030181529082905262461bcd60e51b82526103fe91600401611219565b610a458282610710565b6104615760008281526065602090815260408083206001600160a01b03851684529091529020805460ff19166001179055610a7d3390565b6001600160a01b0316816001600160a01b0316837f2f8788117e7eff1d82e926ec794901d17c78024a50270940304540a733656f0d60405160405180910390a45050565b610acb8282610710565b156104615760008281526065602090815260408083206001600160a01b0385168085529252808320805460ff1916905551339285917ff6391f5c32d9c69d2a47ea670b442974b53935d1edc7fd64eb21e047a839171b9190a45050565b6000610b3482846112c7565b9392505050565b6000610b3482846113ae565b6000610b3482846112db565b60606000610b628360026112db565b610b6d9060026112af565b67ffffffffffffffff811115610b9357634e487b7160e01b600052604160045260246000fd5b6040519080825280601f01601f191660200182016040528015610bbd576020820181803683370190505b509050600360fc1b81600081518110610be657634e487b7160e01b600052603260045260246000fd5b60200101906001600160f81b031916908160001a905350600f60fb1b81600181518110610c2357634e487b7160e01b600052603260045260246000fd5b60200101906001600160f81b031916908160001a9053506000610c478460026112db565b610c529060016112af565b90505b6001811115610ce6576f181899199a1a9b1b9c1cb0b131b232b360811b85600f1660108110610c9457634e487b7160e01b600052603260045260246000fd5b1a60f81b828281518110610cb857634e487b7160e01b600052603260045260246000fd5b60200101906001600160f81b031916908160001a90535060049490941c93610cdf81611341565b9050610c55565b508315610b345760405162461bcd60e51b815260206004820181905260248201527f537472696e67733a20686578206c656e67746820696e73756666696369656e7460448201526064016103fe565b828054828255906000526020600020908101928215610d82579160200282015b82811115610d825782518051610d72918491602090910190610d92565b5091602001919060010190610d55565b50610d8e929150610e12565b5090565b828054610d9e90611358565b90600052602060002090601f016020900481019282610dc05760008555610e06565b82601f10610dd957805160ff1916838001178555610e06565b82800160010185558215610e06579182015b82811115610e06578251825591602001919060010190610deb565b50610d8e929150610e2f565b80821115610d8e576000610e268282610e44565b50600101610e12565b5b80821115610d8e5760008155600101610e30565b508054610e5090611358565b6000825580601f10610e625750610e80565b601f016020900490600052602060002090810190610e809190610e2f565b50565b80356001600160a01b038116811461039a57600080fd5b803560ff8116811461039a57600080fd5b60006020808385031215610ebd578182fd5b823567ffffffffffffffff811115610ed3578283fd5b8301601f81018513610ee3578283fd5b8035610ef6610ef18261128b565b61125a565b80828252848201915084840188868560051b8701011115610f15578687fd5b8694505b83851015610f37578035835260019490940193918501918501610f19565b50979650505050505050565b600060208284031215610f54578081fd5b5035919050565b60008060408385031215610f6d578081fd5b82359150610f7d60208401610e83565b90509250929050565b600060208284031215610f97578081fd5b81356001600160e01b031981168114610b34578182fd5b60008060408385031215610fc0578182fd5b8235915060208084013567ffffffffffffffff80821115610fdf578384fd5b9085019060a08288031215610ff2578384fd5b610ffc60a061125a565b823581528383013582811115611010578586fd5b8301601f81018913611020578586fd5b61102d610ef1823561128b565b8135815285810190868301885b84358110156110b357813585018d603f820112611055578a8bfd5b8981013588811115611069576110696113ee565b61107b601f8201601f19168c0161125a565b8181528f604083850101111561108f578c8dfd5b81604084018d8301379081018b018c9052855250928801929088019060010161103a565b505083870152506110c8905060408401610e83565b6040820152606083013560608201526110e360808401610e9a565b6080820152809450505050509250929050565b60008060408385031215611108578182fd5b50508035926020909101359150565b6000815180845261112f816020860160208601611311565b601f01601f19169290920160200192915050565b60007f416363657373436f6e74726f6c3a206163636f756e74200000000000000000008252835161117b816017850160208801611311565b7001034b99036b4b9b9b4b733903937b6329607d1b60179184019182015283516111ac816028840160208801611311565b01602801949350505050565b6000602080830181845280855180835260408601915060408160051b8701019250838701855b8281101561120c57603f198886030184526111fa858351611117565b945092850192908501906001016111de565b5092979650505050505050565b600060208252610b346020830184611117565b6020808252601490820152732a32b63632b927232a1d103737ba1030b236b4b760611b604082015260600190565b604051601f8201601f1916810167ffffffffffffffff81118282101715611283576112836113ee565b604052919050565b600067ffffffffffffffff8211156112a5576112a56113ee565b5060051b60200190565b600082198211156112c2576112c26113c2565b500190565b6000826112d6576112d66113d8565b500490565b60008160001904831182151516156112f5576112f56113c2565b500290565b60008282101561130c5761130c6113c2565b500390565b60005b8381101561132c578181015183820152602001611314565b8381111561133b576000848401525b50505050565b600081611350576113506113c2565b506000190190565b600181811c9082168061136c57607f821691505b6020821081141561138d57634e487b7160e01b600052602260045260246000fd5b50919050565b60006000198214156113a7576113a76113c2565b5060010190565b6000826113bd576113bd6113d8565b500690565b634e487b7160e01b600052601160045260246000fd5b634e487b7160e01b600052601260045260246000fd5b634e487b7160e01b600052604160045260246000fdfedf8b4c520ffe197c5343c6f5aec59570151ef9a492f2c624fd45ddde6135ec42a2646970667358221220102c7073b49b6d7b1f6eb29142d40a657397174401410a1b99208ca7a77d17f464736f6c63430008030033",
  "linkReferences": {},
  "deployedLinkReferences": {}
}