{
  "_format": "hh-sol-artifact-1",
  "contractName": "TellerNFTDictionary",
  "sourceName": "contracts/TellerNftDictionary.sol",
  "abi": [
    {
      "inputs": [],
      "stateMutability": "nonpayable",
      "type": "constructor"
    },
    {
      "anonymous": false,
      "inputs": [
        {
          "indexed": true,
          "internalType": "bytes32",
          "name": "role",
          "type": "bytes32"
        },
        {
          "indexed": true,
          "internalType": "bytes32",
          "name": "previousAdminRole",
          "type": "bytes32"
        },
        {
          "indexed": true,
          "internalType": "bytes32",
          "name": "newAdminRole",
          "type": "bytes32"
        }
      ],
      "name": "RoleAdminChanged",
      "type": "event"
    },
    {
      "anonymous": false,
      "inputs": [
        {
          "indexed": true,
          "internalType": "bytes32",
          "name": "role",
          "type": "bytes32"
        },
        {
          "indexed": true,
          "internalType": "address",
          "name": "account",
          "type": "address"
        },
        {
          "indexed": true,
          "internalType": "address",
          "name": "sender",
          "type": "address"
        }
      ],
      "name": "RoleGranted",
      "type": "event"
    },
    {
      "anonymous": false,
      "inputs": [
        {
          "indexed": true,
          "internalType": "bytes32",
          "name": "role",
          "type": "bytes32"
        },
        {
          "indexed": true,
          "internalType": "address",
          "name": "account",
          "type": "address"
        },
        {
          "indexed": true,
          "internalType": "address",
          "name": "sender",
          "type": "address"
        }
      ],
      "name": "RoleRevoked",
      "type": "event"
    },
    {
      "inputs": [],
      "name": "ADMIN",
      "outputs": [
        {
          "internalType": "bytes32",
          "name": "",
          "type": "bytes32"
        }
      ],
      "stateMutability": "view",
      "type": "function"
    },
    {
      "inputs": [],
      "name": "DEFAULT_ADMIN_ROLE",
      "outputs": [
        {
          "internalType": "bytes32",
          "name": "",
          "type": "bytes32"
        }
      ],
      "stateMutability": "view",
      "type": "function"
    },
    {
      "inputs": [
        {
          "internalType": "uint256",
          "name": "",
          "type": "uint256"
        }
      ],
      "name": "_tokenTierMappingCompressed",
      "outputs": [
        {
          "internalType": "uint256",
          "name": "",
          "type": "uint256"
        }
      ],
      "stateMutability": "view",
      "type": "function"
    },
    {
      "inputs": [
        {
          "internalType": "uint256",
          "name": "",
          "type": "uint256"
        }
      ],
      "name": "baseLoanSizes",
      "outputs": [
        {
          "internalType": "uint256",
          "name": "",
          "type": "uint256"
        }
      ],
      "stateMutability": "view",
      "type": "function"
    },
    {
      "inputs": [
        {
          "internalType": "uint256",
          "name": "",
          "type": "uint256"
        }
      ],
      "name": "contributionAssets",
      "outputs": [
        {
          "internalType": "address",
          "name": "",
          "type": "address"
        }
      ],
      "stateMutability": "view",
      "type": "function"
    },
    {
      "inputs": [
        {
          "internalType": "uint256",
          "name": "",
          "type": "uint256"
        }
      ],
      "name": "contributionMultipliers",
      "outputs": [
        {
          "internalType": "uint8",
          "name": "",
          "type": "uint8"
        }
      ],
      "stateMutability": "view",
      "type": "function"
    },
    {
      "inputs": [
        {
          "internalType": "uint256",
          "name": "",
          "type": "uint256"
        }
      ],
      "name": "contributionSizes",
      "outputs": [
        {
          "internalType": "uint256",
          "name": "",
          "type": "uint256"
        }
      ],
      "stateMutability": "view",
      "type": "function"
    },
    {
      "inputs": [
        {
          "internalType": "bytes32",
          "name": "role",
          "type": "bytes32"
        }
      ],
      "name": "getRoleAdmin",
      "outputs": [
        {
          "internalType": "bytes32",
          "name": "",
          "type": "bytes32"
        }
      ],
      "stateMutability": "view",
      "type": "function"
    },
    {
      "inputs": [
        {
          "internalType": "uint256",
          "name": "tokenId",
          "type": "uint256"
        }
      ],
      "name": "getTokenTierIndex",
      "outputs": [
        {
          "internalType": "uint8",
          "name": "index_",
          "type": "uint8"
        }
      ],
      "stateMutability": "view",
      "type": "function"
    },
    {
      "inputs": [
        {
          "internalType": "bytes32",
          "name": "role",
          "type": "bytes32"
        },
        {
          "internalType": "address",
          "name": "account",
          "type": "address"
        }
      ],
      "name": "grantRole",
      "outputs": [],
      "stateMutability": "nonpayable",
      "type": "function"
    },
    {
      "inputs": [
        {
          "internalType": "bytes32",
          "name": "role",
          "type": "bytes32"
        },
        {
          "internalType": "address",
          "name": "account",
          "type": "address"
        }
      ],
      "name": "hasRole",
      "outputs": [
        {
          "internalType": "bool",
          "name": "",
          "type": "bool"
        }
      ],
      "stateMutability": "view",
      "type": "function"
    },
    {
      "inputs": [
        {
          "internalType": "uint256",
          "name": "",
          "type": "uint256"
        },
        {
          "internalType": "uint256",
          "name": "",
          "type": "uint256"
        }
      ],
      "name": "hashes",
      "outputs": [
        {
          "internalType": "string",
          "name": "",
          "type": "string"
        }
      ],
      "stateMutability": "view",
      "type": "function"
    },
    {
      "inputs": [
        {
          "internalType": "address",
          "name": "initialAdmin",
          "type": "address"
        }
      ],
      "name": "initialize",
      "outputs": [],
      "stateMutability": "nonpayable",
      "type": "function"
    },
    {
      "inputs": [
        {
          "internalType": "bytes32",
          "name": "role",
          "type": "bytes32"
        },
        {
          "internalType": "address",
          "name": "account",
          "type": "address"
        }
      ],
      "name": "renounceRole",
      "outputs": [],
      "stateMutability": "nonpayable",
      "type": "function"
    },
    {
      "inputs": [
        {
          "internalType": "bytes32",
          "name": "role",
          "type": "bytes32"
        },
        {
          "internalType": "address",
          "name": "account",
          "type": "address"
        }
      ],
      "name": "revokeRole",
      "outputs": [],
      "stateMutability": "nonpayable",
      "type": "function"
    },
    {
      "inputs": [
        {
          "internalType": "uint256[]",
          "name": "tiersMapping",
          "type": "uint256[]"
        }
      ],
      "name": "setAllTokenTierMappings",
      "outputs": [
        {
          "internalType": "bool",
          "name": "",
          "type": "bool"
        }
      ],
      "stateMutability": "nonpayable",
      "type": "function"
    },
    {
      "inputs": [
        {
          "internalType": "uint256",
          "name": "index",
          "type": "uint256"
        },
        {
          "components": [
            {
              "internalType": "uint256",
              "name": "baseLoanSize",
              "type": "uint256"
            },
            {
              "internalType": "string[]",
              "name": "hashes",
              "type": "string[]"
            },
            {
              "internalType": "address",
              "name": "contributionAsset",
              "type": "address"
            },
            {
              "internalType": "uint256",
              "name": "contributionSize",
              "type": "uint256"
            },
            {
              "internalType": "uint8",
              "name": "contributionMultiplier",
              "type": "uint8"
            }
          ],
          "internalType": "struct TellerNFTDictionary.Tier",
          "name": "newTier",
          "type": "tuple"
        }
      ],
      "name": "setTier",
      "outputs": [
        {
          "internalType": "bool",
          "name": "",
          "type": "bool"
        }
      ],
      "stateMutability": "nonpayable",
      "type": "function"
    },
    {
      "inputs": [
        {
          "internalType": "uint256",
          "name": "tokenId",
          "type": "uint256"
        },
        {
          "internalType": "uint256",
          "name": "tokenTier",
          "type": "uint256"
        }
      ],
      "name": "setTokenTierForTokenId",
      "outputs": [
        {
          "internalType": "bool",
          "name": "",
          "type": "bool"
        }
      ],
      "stateMutability": "nonpayable",
      "type": "function"
    },
    {
      "inputs": [
        {
          "internalType": "uint256[]",
          "name": "tokenIds",
          "type": "uint256[]"
        },
        {
          "internalType": "uint256",
          "name": "tokenTier",
          "type": "uint256"
        }
      ],
      "name": "setTokenTierForTokenIds",
      "outputs": [
        {
          "internalType": "bool",
          "name": "",
          "type": "bool"
        }
      ],
      "stateMutability": "nonpayable",
      "type": "function"
    },
    {
      "inputs": [
        {
          "internalType": "uint256",
          "name": "index",
          "type": "uint256"
        },
        {
          "internalType": "uint256",
          "name": "tierMapping",
          "type": "uint256"
        }
      ],
      "name": "setTokenTierMapping",
      "outputs": [
        {
          "internalType": "bool",
          "name": "",
          "type": "bool"
        }
      ],
      "stateMutability": "nonpayable",
      "type": "function"
    },
    {
      "inputs": [
        {
          "internalType": "bytes4",
          "name": "interfaceId",
          "type": "bytes4"
        }
      ],
      "name": "supportsInterface",
      "outputs": [
        {
          "internalType": "bool",
          "name": "",
          "type": "bool"
        }
      ],
      "stateMutability": "view",
      "type": "function"
    },
    {
      "inputs": [
        {
          "internalType": "uint256",
          "name": "tokenId",
          "type": "uint256"
        }
      ],
      "name": "tokenBaseLoanSize",
      "outputs": [
        {
          "internalType": "uint256",
          "name": "",
          "type": "uint256"
        }
      ],
      "stateMutability": "view",
      "type": "function"
    },
    {
      "inputs": [
        {
          "internalType": "uint256",
          "name": "tokenId",
          "type": "uint256"
        }
      ],
      "name": "tokenContributionAsset",
      "outputs": [
        {
          "internalType": "address",
          "name": "",
          "type": "address"
        }
      ],
      "stateMutability": "view",
      "type": "function"
    },
    {
      "inputs": [
        {
          "internalType": "uint256",
          "name": "tokenId",
          "type": "uint256"
        }
      ],
      "name": "tokenContributionMultiplier",
      "outputs": [
        {
          "internalType": "uint8",
          "name": "",
          "type": "uint8"
        }
      ],
      "stateMutability": "view",
      "type": "function"
    },
    {
      "inputs": [
        {
          "internalType": "uint256",
          "name": "tokenId",
          "type": "uint256"
        }
      ],
      "name": "tokenContributionSize",
      "outputs": [
        {
          "internalType": "uint256",
          "name": "",
          "type": "uint256"
        }
      ],
      "stateMutability": "view",
      "type": "function"
    },
    {
      "inputs": [
        {
          "internalType": "uint256",
          "name": "tokenId",
          "type": "uint256"
        }
      ],
      "name": "tokenURIHash",
      "outputs": [
        {
          "internalType": "string",
          "name": "",
          "type": "string"
        }
      ],
      "stateMutability": "view",
      "type": "function"
    }
  ],
  "bytecode": "0x608060405234801561001057600080fd5b506117ae806100206000396000f3fe608060405234801561001057600080fd5b506004361061018d5760003560e01c806375623b45116100de578063c4d66de811610097578063d300133911610071578063d3001339146103e4578063d547741f146103f7578063f40898ef1461040a578063f89a268e1461041d5761018d565b8063c4d66de814610391578063c5d6bbaa146103a4578063d13372ca146103c45761018d565b806375623b451461030d5780638a41823c1461032057806391d1485414610340578063a16eae3114610353578063a217fddf14610366578063bd5c89ed1461036e5761018d565b806324db57f81161014b5780632f2ff15d116101255780632f2ff15d146102ad57806336568abe146102c257806346765a57146102d557806362a57233146102e85761018d565b806324db57f8146102725780632a0acc6a146102855780632a4ce6511461029a5761018d565b806284c7951461019257806301ffc9a7146101b85780631a619740146101db5780631e89487a146101fb578063245a69d41461023c578063248a9ca31461024f575b600080fd5b6101a56101a03660046112b6565b610430565b6040519081526020015b60405180910390f35b6101cb6101c63660046112f9565b610457565b60405190151581526020016101af565b6101a56101e93660046112b6565b60976020526000908152604090205481565b6102246102093660046112b6565b6099602052600090815260409020546001600160a01b031681565b6040516001600160a01b0390911681526020016101af565b6101cb61024a36600461121e565b610482565b6101a561025d3660046112b6565b60009081526065602052604090206001015490565b6101a56102803660046112b6565b610524565b6101a560008051602061175983398151915281565b6101cb6102a8366004611469565b610549565b6102c06102bb3660046112ce565b610595565b005b6102c06102d03660046112ce565b6105c1565b6101cb6102e3366004611321565b61063f565b6102fb6102f63660046112b6565b610710565b60405160ff90911681526020016101af565b6101cb61031b366004611469565b610738565b6101a561032e3660046112b6565b609a6020526000908152604090205481565b6101cb61034e3660046112ce565b6107db565b6102fb6103613660046112b6565b610806565b6101a5600081565b6102fb61037c3660046112b6565b609b6020526000908152604090205460ff1681565b6102c061039f36600461118e565b610854565b6101a56103b23660046112b6565b609c6020526000908152604090205481565b6103d76103d2366004611469565b61088f565b6040516101af91906114ff565b6103d76103f23660046112b6565b610948565b6102c06104053660046112ce565b610a7e565b6102246104183660046112b6565b610aa4565b6101cb61042b3660046111a8565b610ad2565b60008061043c83610806565b60ff166000908152609a60205260409020549150505b919050565b60006001600160e01b03198216630c3e4d3160e31b148061047c575061047c82610b61565b92915050565b600061049c6000805160206117598339815191523361034e565b6104c15760405162461bcd60e51b81526004016104b890611532565b60405180910390fd5b60005b825181101561051b578281815181106104ed57634e487b7160e01b600052603260045260246000fd5b6020908102919091018101516000838152609c90925260409091205580610513816116e7565b9150506104c4565b50600192915050565b60008061053083610806565b60ff166000908152609760205260409020549392505050565b60006105636000805160206117598339815191523361034e565b61057f5760405162461bcd60e51b81526004016104b890611532565b506000918252609c602052604090912055600190565b6000828152606560205260409020600101546105b281335b610b96565b6105bc8383610bfa565b505050565b6001600160a01b03811633146106315760405162461bcd60e51b815260206004820152602f60248201527f416363657373436f6e74726f6c3a2063616e206f6e6c792072656e6f756e636560448201526e103937b632b9903337b91039b2b63360891b60648201526084016104b8565b61063b8282610c80565b5050565b60006106596000805160206117598339815191523361034e565b6106755760405162461bcd60e51b81526004016104b890611532565b815160008481526097602090815260408083209390935580850151609882529290912082516106aa939192919091019061101b565b505060408181015160009384526099602090815282852080546001600160a01b0319166001600160a01b03909316929092179091556060830151609a825282852055608090920151609b909252909120805460ff191660ff909216919091179055600190565b60008061071c83610806565b60ff9081166000908152609b6020526040902054169392505050565b60006107526000805160206117598339815191523361034e565b61076e5760405162461bcd60e51b81526004016104b890611532565b600061077b60208561161b565b6000818152609c602090815260408220549293506107999087611702565b6107a490601f61164e565b6107af90600861162f565b6000938452609c602052604090932094831b60ff90931b19919091169190911790925550600192915050565b60009182526065602090815260408084206001600160a01b0393909316845291905290205460ff1690565b60008061081460208461161b565b6000818152609c602090815260408220549293506108329086611702565b61083d90601f61164e565b61084890600861162f565b9190911c949350505050565b61086c60008051602061175983398151915282610ce7565b61088460008051602061175983398151915280610cf1565b61088c610d45565b50565b609860205281600052604060002081815481106108ab57600080fd5b906000526020600020016000915091505080546108c7906116ac565b80601f01602080910402602001604051908101604052809291908181526020018280546108f3906116ac565b80156109405780601f1061091557610100808354040283529160200191610940565b820191906000526020600020905b81548152906001019060200180831161092357829003601f168201915b505050505081565b6060600061095583610806565b90506000609860008360ff168152602001908152602001600020805480602002602001604051908101604052809291908181526020016000905b82821015610a3b5783829060005260206000200180546109ae906116ac565b80601f01602080910402602001604051908101604052809291908181526020018280546109da906116ac565b8015610a275780601f106109fc57610100808354040283529160200191610a27565b820191906000526020600020905b815481529060010190602001808311610a0a57829003601f168201915b50505050508152602001906001019061098f565b50505050905080815185610a4f9190611702565b81518110610a6d57634e487b7160e01b600052603260045260246000fd5b602002602001015192505050919050565b600082815260656020526040902060010154610a9a81336105ad565b6105bc8383610c80565b600080610ab083610806565b60ff166000908152609960205260409020546001600160a01b03169392505050565b6000610aec6000805160206117598339815191523361034e565b610b085760405162461bcd60e51b81526004016104b890611532565b60005b83811015610b5657610b43858583818110610b3657634e487b7160e01b600052603260045260246000fd5b9050602002013584610738565b5080610b4e816116e7565b915050610b0b565b506001949350505050565b60006001600160e01b03198216637965db0b60e01b148061047c57506301ffc9a760e01b6001600160e01b031983161461047c565b610ba082826107db565b61063b57610bb8816001600160a01b03166014610dc8565b610bc3836020610dc8565b604051602001610bd492919061148a565b60408051601f198184030181529082905262461bcd60e51b82526104b8916004016114ff565b610c0482826107db565b61063b5760008281526065602090815260408083206001600160a01b03851684529091529020805460ff19166001179055610c3c3390565b6001600160a01b0316816001600160a01b0316837f2f8788117e7eff1d82e926ec794901d17c78024a50270940304540a733656f0d60405160405180910390a45050565b610c8a82826107db565b1561063b5760008281526065602090815260408083206001600160a01b0385168085529252808320805460ff1916905551339285917ff6391f5c32d9c69d2a47ea670b442974b53935d1edc7fd64eb21e047a839171b9190a45050565b61063b8282610bfa565b600082815260656020526040902060010154819060405184907fbd79b86ffe0ab8e8776151514217cd7cacd52c909f66475c3af44e129f0b00ff90600090a460009182526065602052604090912060010155565b600054610100900460ff1680610d5e575060005460ff16155b610d7a5760405162461bcd60e51b81526004016104b890611560565b600054610100900460ff16158015610d9c576000805461ffff19166101011790555b610da4610fb1565b610dac610fb1565b610db4610fb1565b801561088c576000805461ff001916905550565b60606000610dd783600261162f565b610de2906002611603565b67ffffffffffffffff811115610e0857634e487b7160e01b600052604160045260246000fd5b6040519080825280601f01601f191660200182016040528015610e32576020820181803683370190505b509050600360fc1b81600081518110610e5b57634e487b7160e01b600052603260045260246000fd5b60200101906001600160f81b031916908160001a905350600f60fb1b81600181518110610e9857634e487b7160e01b600052603260045260246000fd5b60200101906001600160f81b031916908160001a9053506000610ebc84600261162f565b610ec7906001611603565b90505b6001811115610f5b576f181899199a1a9b1b9c1cb0b131b232b360811b85600f1660108110610f0957634e487b7160e01b600052603260045260246000fd5b1a60f81b828281518110610f2d57634e487b7160e01b600052603260045260246000fd5b60200101906001600160f81b031916908160001a90535060049490941c93610f5481611695565b9050610eca565b508315610faa5760405162461bcd60e51b815260206004820181905260248201527f537472696e67733a20686578206c656e67746820696e73756666696369656e7460448201526064016104b8565b9392505050565b600054610100900460ff1680610fca575060005460ff16155b610fe65760405162461bcd60e51b81526004016104b890611560565b600054610100900460ff16158015610db4576000805461ffff1916610101179055801561088c576000805461ff001916905550565b828054828255906000526020600020908101928215611068579160200282015b828111156110685782518051611058918491602090910190611078565b509160200191906001019061103b565b506110749291506110f8565b5090565b828054611084906116ac565b90600052602060002090601f0160209004810192826110a657600085556110ec565b82601f106110bf57805160ff19168380011785556110ec565b828001600101855582156110ec579182015b828111156110ec5782518255916020019190600101906110d1565b50611074929150611115565b8082111561107457600061110c828261112a565b506001016110f8565b5b808211156110745760008155600101611116565b508054611136906116ac565b6000825580601f10611148575061088c565b601f01602090049060005260206000209081019061088c9190611115565b80356001600160a01b038116811461045257600080fd5b803560ff8116811461045257600080fd5b60006020828403121561119f578081fd5b610faa82611166565b6000806000604084860312156111bc578182fd5b833567ffffffffffffffff808211156111d3578384fd5b818601915086601f8301126111e6578384fd5b8135818111156111f4578485fd5b8760208260051b8501011115611208578485fd5b6020928301989097509590910135949350505050565b60006020808385031215611230578182fd5b823567ffffffffffffffff811115611246578283fd5b8301601f81018513611256578283fd5b8035611269611264826115df565b6115ae565b80828252848201915084840188868560051b8701011115611288578687fd5b8694505b838510156112aa57803583526001949094019391850191850161128c565b50979650505050505050565b6000602082840312156112c7578081fd5b5035919050565b600080604083850312156112e0578182fd5b823591506112f060208401611166565b90509250929050565b60006020828403121561130a578081fd5b81356001600160e01b031981168114610faa578182fd5b60008060408385031215611333578182fd5b8235915060208084013567ffffffffffffffff80821115611352578384fd5b9085019060a08288031215611365578384fd5b61136f60a06115ae565b823581528383013582811115611383578586fd5b8301601f81018913611393578586fd5b6113a061126482356115df565b8135815285810190868301885b843581101561142657813585018d603f8201126113c8578a8bfd5b89810135888111156113dc576113dc611742565b6113ee601f8201601f19168c016115ae565b8181528f6040838501011115611402578c8dfd5b81604084018d8301379081018b018c905285525092880192908801906001016113ad565b5050838701525061143b905060408401611166565b6040820152606083013560608201526114566080840161117d565b6080820152809450505050509250929050565b6000806040838503121561147b578182fd5b50508035926020909101359150565b60007f416363657373436f6e74726f6c3a206163636f756e7420000000000000000000825283516114c2816017850160208801611665565b7001034b99036b4b9b9b4b733903937b6329607d1b60179184019182015283516114f3816028840160208801611665565b01602801949350505050565b600060208252825180602084015261151e816040850160208701611665565b601f01601f19169190910160400192915050565b6020808252601490820152732a32b63632b927232a1d103737ba1030b236b4b760611b604082015260600190565b6020808252602e908201527f496e697469616c697a61626c653a20636f6e747261637420697320616c72656160408201526d191e481a5b9a5d1a585b1a5e995960921b606082015260800190565b604051601f8201601f1916810167ffffffffffffffff811182821017156115d7576115d7611742565b604052919050565b600067ffffffffffffffff8211156115f9576115f9611742565b5060051b60200190565b6000821982111561161657611616611716565b500190565b60008261162a5761162a61172c565b500490565b600081600019048311821515161561164957611649611716565b500290565b60008282101561166057611660611716565b500390565b60005b83811015611680578181015183820152602001611668565b8381111561168f576000848401525b50505050565b6000816116a4576116a4611716565b506000190190565b600181811c908216806116c057607f821691505b602082108114156116e157634e487b7160e01b600052602260045260246000fd5b50919050565b60006000198214156116fb576116fb611716565b5060010190565b6000826117115761171161172c565b500690565b634e487b7160e01b600052601160045260246000fd5b634e487b7160e01b600052601260045260246000fd5b634e487b7160e01b600052604160045260246000fdfedf8b4c520ffe197c5343c6f5aec59570151ef9a492f2c624fd45ddde6135ec42a2646970667358221220b22fcc20cbf96d65a6dec0ce507c4fdb043dda965e22b51f97dc420ec03f2e8c64736f6c63430008030033",
  "linkReferences": {},
  "deployedLinkReferences": {}
}